{
	"data": {
		"bytecode": {
			"linkReferences": {},
			"object": "6080604052600160045560016012553480156200001b57600080fd5b506040516200511d3803806200511d8339810180604052620000419190810190620006cf565b33600660006101000a81548173ffffffffffffffffffffffffffffffffffffffff021916908373ffffffffffffffffffffffffffffffffffffffff1602179055506200009c84620000ca640100000000026401000000009004565b620000b88383836200010e640100000000026401000000009004565b600160078190555050505050620009e3565b80600260006101000a81548173ffffffffffffffffffffffffffffffffffffffff021916908373ffffffffffffffffffffffffffffffffffffffff16021790555050565b600660009054906101000a900473ffffffffffffffffffffffffffffffffffffffff1673ffffffffffffffffffffffffffffffffffffffff163373ffffffffffffffffffffffffffffffffffffffff161415156200016b57600080fd5b826fffffffffffffffffffffffffffffffff168282601c825111151515620001ca576040517f08c379a0000000000000000000000000000000000000000000000000000000008152600401620001c1906200085e565b60405180910390fd5b8282511015151562000213576040517f08c379a00000000000000000000000000000000000000000000000000000000081526004016200020a9062000880565b60405180910390fd5b805182511415156200025c576040517f08c379a00000000000000000000000000000000000000000000000000000000081526004016200025390620008a2565b60405180910390fd5b85600d60106101000a8154816fffffffffffffffffffffffffffffffff02191690836fffffffffffffffffffffffffffffffff16021790555083600e9080519060200190620002ad929190620002cf565b5084600f9080519060200190620002c692919062000336565b50505050505050565b82805482825590600052602060002090810192821562000323579160200282015b828111156200032257825182908051906020019062000311929190620003c5565b5091602001919060010190620002f0565b5b5090506200033291906200044c565b5090565b828054828255906000526020600020908101928215620003b2579160200282015b82811115620003b15782518260006101000a81548173ffffffffffffffffffffffffffffffffffffffff021916908373ffffffffffffffffffffffffffffffffffffffff1602179055509160200191906001019062000357565b5b509050620003c191906200047d565b5090565b828054600181600116156101000203166002900490600052602060002090601f016020900481019282601f106200040857805160ff191683800117855562000439565b8280016001018555821562000439579182015b82811115620004385782518255916020019190600101906200041b565b5b509050620004489190620004c3565b5090565b6200047a91905b808211156200047657600081816200046c9190620004eb565b5060010162000453565b5090565b90565b620004c091905b80821115620004bc57600081816101000a81549073ffffffffffffffffffffffffffffffffffffffff02191690555060010162000484565b5090565b90565b620004e891905b80821115620004e4576000816000905550600101620004ca565b5090565b90565b50805460018160011615610100020316600290046000825580601f1062000513575062000534565b601f016020900490600052602060002090810190620005339190620004c3565b5b50565b600062000545825162000971565b905092915050565b600082601f83011215156200056157600080fd5b8151620005786200057282620008f2565b620008c4565b915081818352602084019350602081019050838560208402820111156200059e57600080fd5b60005b83811015620005d25781620005b7888262000537565b845260208401935060208301925050600181019050620005a1565b5050505092915050565b600082601f8301121515620005f057600080fd5b81516200060762000601826200091b565b620008c4565b9150818183526020840193506020810190508360005b838110156200065157815186016200063688826200065b565b8452602084019350602083019250506001810190506200061d565b5050505092915050565b600082601f83011215156200066f57600080fd5b815162000686620006808262000944565b620008c4565b91508082526020830160208301858383011115620006a357600080fd5b620006b0838284620009ad565b50505092915050565b6000620006c7825162000991565b905092915050565b60008060008060808587031215620006e657600080fd5b6000620006f68782880162000537565b94505060206200070987828801620006b9565b935050604085015167ffffffffffffffff8111156200072757600080fd5b62000735878288016200054d565b925050606085015167ffffffffffffffff8111156200075357600080fd5b6200076187828801620005dc565b91505092959194509250565b6000602082527f63616e6e6f742068617665206d6f7265207468616e203435206f7261636c65736020830152604082019050919050565b6000602f82527f6d7573742068617665206174206c65617374206173206d616e79206f7261636c60208301527f657320617320726573706f6e73657300000000000000000000000000000000006040830152606082019050919050565b6000602c82527f6d75737420686176652065786163746c79206173206d616e79206f7261636c6560208301527f73206173206a6f622049447300000000000000000000000000000000000000006040830152606082019050919050565b6000602082019050818103600083015262000879816200076d565b9050919050565b600060208201905081810360008301526200089b81620007a4565b9050919050565b60006020820190508181036000830152620008bd8162000801565b9050919050565b6000604051905081810181811067ffffffffffffffff82111715620008e857600080fd5b8060405250919050565b600067ffffffffffffffff8211156200090a57600080fd5b602082029050602081019050919050565b600067ffffffffffffffff8211156200093357600080fd5b602082029050602081019050919050565b600067ffffffffffffffff8211156200095c57600080fd5b601f19601f8301169050602081019050919050565b600073ffffffffffffffffffffffffffffffffffffffff82169050919050565b60006fffffffffffffffffffffffffffffffff82169050919050565b60005b83811015620009cd578082015181840152602081019050620009b0565b83811115620009dd576000848401525b50505050565b61472a80620009f36000396000f300608060405260043610610175576000357c0100000000000000000000000000000000000000000000000000000000900463ffffffff1680630172e1451461017a57806305c165bf146101a35780632d8c762c146101ce57806333bfcdd8146101e55780633ea478aa1461020e5780634162cc881461024b57806350d25bcd1461028857806354bcd7ff146102b35780635b69a7d8146102de57806364bb057f1461031b578063668a0f0214610359578063715018a6146103845780638205bf6a1461039b57806383197ef0146103c65780638da5cb5b146103dd5780638e62ef0c146104085780639dd4cc5d14610431578063a2e36c5f1461046e578063b5ab58dc146104ac578063b633620c146104e9578063bc31c1c114610526578063c35905c614610565578063d163f71514610590578063d378d5eb146105b9578063dd5fd792146105f6578063e46d225014610621578063eecea0001461065e578063f2fde38b14610687578063f3d6d2a1146106b0575b600080fd5b34801561018657600080fd5b506101a1600480360361019c9190810190613a9a565b6106db565b005b3480156101af57600080fd5b506101b86107eb565b6040516101c5919061443b565b60405180910390f35b3480156101da57600080fd5b506101e36107f1565b005b3480156101f157600080fd5b5061020c60048036036102079190810190613ad6565b610bf5565b005b34801561021a57600080fd5b50610235600480360361023091908101906139d0565b610ddf565b6040516102429190614223565b60405180910390f35b34801561025757600080fd5b50610272600480360361026d9190810190613ba4565b610dff565b60405161027f919061429e565b60405180910390f35b34801561029457600080fd5b5061029d610eba565b6040516102aa9190614283565b60405180910390f35b3480156102bf57600080fd5b506102c8610ed7565b6040516102d59190614420565b60405180910390f35b3480156102ea57600080fd5b5061030560048036036103009190810190613ba4565b610ef9565b60405161031291906140c3565b60405180910390f35b34801561032757600080fd5b50610342600480360361033d9190810190613ba4565b610f37565b604051610350929190614456565b60405180910390f35b34801561036557600080fd5b5061036e610f71565b60405161037b919061443b565b60405180910390f35b34801561039057600080fd5b50610399610f7b565b005b3480156103a757600080fd5b506103b0611080565b6040516103bd919061443b565b60405180910390f35b3480156103d257600080fd5b506103db61109d565b005b3480156103e957600080fd5b506103f2611212565b6040516103ff91906140c3565b60405180910390f35b34801561041457600080fd5b5061042f600480360361042a9190810190613a35565b611238565b005b34801561043d57600080fd5b50610458600480360361045391908101906139d0565b61138f565b604051610465919061443b565b60405180910390f35b34801561047a57600080fd5b50610495600480360361049091908101906139d0565b61187d565b6040516104a3929190614115565b60405180910390f35b3480156104b857600080fd5b506104d360048036036104ce9190810190613ba4565b6118c1565b6040516104e09190614283565b60405180910390f35b3480156104f557600080fd5b50610510600480360361050b9190810190613ba4565b6118de565b60405161051d919061443b565b60405180910390f35b34801561053257600080fd5b5061054d60048036036105489190810190613ba4565b6118fb565b60405161055c9392919061447f565b60405180910390f35b34801561057157600080fd5b5061057a611925565b6040516105879190614420565b60405180910390f35b34801561059c57600080fd5b506105b760048036036105b29190810190613b25565b611947565b005b3480156105c557600080fd5b506105e060048036036105db9190810190613ba4565b611afa565b6040516105ed9190614223565b60405180910390f35b34801561060257600080fd5b5061060b611d8a565b6040516106189190614201565b60405180910390f35b34801561062d57600080fd5b5061064860048036036106439190810190613ba4565b611de2565b6040516106559190614283565b60405180910390f35b34801561066a57600080fd5b50610685600480360361068091908101906139f9565b611e05565b005b34801561069357600080fd5b506106ae60048036036106a991908101906139d0565b611ebc565b005b3480156106bc57600080fd5b506106c5611f24565b6040516106d2919061443b565b60405180910390f35b60006106e683611f2a565b601460008460001916600019168152602001908152602001600020549050601460008460001916600019168152602001908152602001600020600090556015600082815260200190815260200160002060010182908060018154018082558091505090600182039060005260206000200160009091929091909150555060108290806001815401808255809150509060018203906000526020600020016000909192909190915055503373ffffffffffffffffffffffffffffffffffffffff1681837fb51168059c83c860caf5b830c5d2e64c2172c6fb2fe9f25447d9838e18d93b6060405160405180910390a46107dd81612049565b6107e6816123b7565b505050565b60115481565b6107f9613481565b6000806000655af3107a40009150600090505b600f80549050811015610ac1576109006108d6600e8381548110151561082e57fe5b906000526020600020018054600181600116156101000203166002900480601f0160208091040260200160405190810160405280929190818152602001828054600181600116156101000203166002900480156108cc5780601f106108a1576101008083540402835291602001916108cc565b820191906000526020600020905b8154815290600101906020018083116108af57829003601f168201915b505050505061248e565b30630172e1457c0100000000000000000000000000000000000000000000000000000000026124b9565b93506109816040805190810160405280600681526020017f5f6673796d7300000000000000000000000000000000000000000000000000008152506040805190810160405280600381526020017f5844430000000000000000000000000000000000000000000000000000000000815250866124ea9092919063ffffffff16565b610a006040805190810160405280600681526020017f5f7473796d7300000000000000000000000000000000000000000000000000008152506040805190810160405280600481526020017f5553445400000000000000000000000000000000000000000000000000000000815250866124ea9092919063ffffffff16565b610a4c6040805190810160405280600581526020017f74696d65730000000000000000000000000000000000000000000000000000008152506127108661251d9092919063ffffffff16565b610a90600f82815481101515610a5e57fe5b9060005260206000200160009054906101000a900473ffffffffffffffffffffffffffffffffffffffff168584612550565b925060125460146000856000191660001916815260200190815260200160002081905550808060010191505061080c565b600d60109054906101000a90046fffffffffffffffffffffffffffffffff1660156000601254815260200190815260200160002060000160006101000a8154816fffffffffffffffffffffffffffffffff02191690836fffffffffffffffffffffffffffffffff160217905550600f8054905060156000601254815260200190815260200160002060000160106101000a8154816fffffffffffffffffffffffffffffffff02191690836fffffffffffffffffffffffffffffffff1602179055503373ffffffffffffffffffffffffffffffffffffffff166012547f0109fc6f55cf40689f02fbaad7af7fe7bbac8a3d2186600afc7d3e10cac6027142604051610bcb919061443b565b60405180910390a3610be960016012546127e390919063ffffffff16565b60128190555050505050565b6000601360003373ffffffffffffffffffffffffffffffffffffffff1673ffffffffffffffffffffffffffffffffffffffff16815260200190815260200160002060009054906101000a900460ff1680610c9c5750600660009054906101000a900473ffffffffffffffffffffffffffffffffffffffff1673ffffffffffffffffffffffffffffffffffffffff163373ffffffffffffffffffffffffffffffffffffffff16145b1515610cdd576040517f08c379a0000000000000000000000000000000000000000000000000000000008152600401610cd4906142c0565b60405180910390fd5b601460008560001916600019168152602001908152602001600020549050600c5481101515610d41576040517f08c379a0000000000000000000000000000000000000000000000000000000008152600401610d3890614340565b60405180910390fd5b601460008560001916600019168152602001908152602001600020600090556015600082815260200190815260200160002060010160009080600181540180825580915050906001820390600052602060002001600090919290919091505550610daa816123b7565b610dd98484630172e1457c010000000000000000000000000000000000000000000000000000000002856127ff565b50505050565b60136020528060005260406000206000915054906101000a900460ff1681565b600e81815481101515610e0e57fe5b906000526020600020016000915090508054600181600116156101000203166002900480601f016020809104026020016040519081016040528092919081815260200182805460018160011615610100020316600290048015610eb25780601f10610e8757610100808354040283529160200191610eb2565b820191906000526020600020905b815481529060010190602001808311610e9557829003601f168201915b505050505081565b600060166000600c54815260200190815260200160002054905090565b600d60109054906101000a90046fffffffffffffffffffffffffffffffff1681565b600f81815481101515610f0857fe5b906000526020600020016000915054906101000a900473ffffffffffffffffffffffffffffffffffffffff1681565b6000806008600084815260200190815260200160002060010154600860008581526020019081526020016000206002015491509150915091565b6000600c54905090565b600660009054906101000a900473ffffffffffffffffffffffffffffffffffffffff1673ffffffffffffffffffffffffffffffffffffffff163373ffffffffffffffffffffffffffffffffffffffff16141515610fd757600080fd5b600660009054906101000a900473ffffffffffffffffffffffffffffffffffffffff1673ffffffffffffffffffffffffffffffffffffffff167ff8df31144d9c2f0f6b59d69b8b98abd5459d07f2742c4df920b25aae33c6482060405160405180910390a26000600660006101000a81548173ffffffffffffffffffffffffffffffffffffffff021916908373ffffffffffffffffffffffffffffffffffffffff160217905550565b600060176000600c54815260200190815260200160002054905090565b6000600660009054906101000a900473ffffffffffffffffffffffffffffffffffffffff1673ffffffffffffffffffffffffffffffffffffffff163373ffffffffffffffffffffffffffffffffffffffff161415156110fb57600080fd5b611103612942565b90506111d7600660009054906101000a900473ffffffffffffffffffffffffffffffffffffffff168273ffffffffffffffffffffffffffffffffffffffff166370a08231306040518263ffffffff167c010000000000000000000000000000000000000000000000000000000002815260040161118091906140c3565b602060405180830381600087803b15801561119a57600080fd5b505af11580156111ae573d6000803e3d6000fd5b505050506040513d601f19601f820116820180604052506111d29190810190613bcd565b611238565b600660009054906101000a900473ffffffffffffffffffffffffffffffffffffffff1673ffffffffffffffffffffffffffffffffffffffff16ff5b600660009054906101000a900473ffffffffffffffffffffffffffffffffffffffff1681565b6000600660009054906101000a900473ffffffffffffffffffffffffffffffffffffffff1673ffffffffffffffffffffffffffffffffffffffff163373ffffffffffffffffffffffffffffffffffffffff1614151561129657600080fd5b61129e612942565b90508073ffffffffffffffffffffffffffffffffffffffff1663a9059cbb84846040518363ffffffff167c01000000000000000000000000000000000000000000000000000000000281526004016112f7929190614115565b602060405180830381600087803b15801561131157600080fd5b505af1158015611325573d6000803e3d6000fd5b505050506040513d601f19601f820116820180604052506113499190810190613a71565b151561138a576040517f08c379a0000000000000000000000000000000000000000000000000000000008152600401611381906143a0565b60405180910390fd5b505050565b60008061139a613481565b60008060006007549550600960008873ffffffffffffffffffffffffffffffffffffffff1673ffffffffffffffffffffffffffffffffffffffff168152602001908152602001600020600101549450655af3107a400085111515611433576040517f08c379a000000000000000000000000000000000000000000000000000000000815260040161142a906143c0565b60405180910390fd5b655af3107a40008503600960008973ffffffffffffffffffffffffffffffffffffffff1673ffffffffffffffffffffffffffffffffffffffff16815260200190815260200160002060010181905550655af3107a40009150600090505b600f805490508110156117455761158461155a600e838154811015156114b257fe5b906000526020600020018054600181600116156101000203166002900480601f0160208091040260200160405190810160405280929190818152602001828054600181600116156101000203166002900480156115505780601f1061152557610100808354040283529160200191611550565b820191906000526020600020905b81548152906001019060200180831161153357829003601f168201915b505050505061248e565b30630172e1457c0100000000000000000000000000000000000000000000000000000000026124b9565b93506116056040805190810160405280600681526020017f5f6673796d7300000000000000000000000000000000000000000000000000008152506040805190810160405280600381526020017f5844430000000000000000000000000000000000000000000000000000000000815250866124ea9092919063ffffffff16565b6116846040805190810160405280600681526020017f5f7473796d7300000000000000000000000000000000000000000000000000008152506040805190810160405280600481526020017f5553445400000000000000000000000000000000000000000000000000000000815250866124ea9092919063ffffffff16565b6116d06040805190810160405280600581526020017f74696d65730000000000000000000000000000000000000000000000000000008152506127108661251d9092919063ffffffff16565b611714600f828154811015156116e257fe5b9060005260206000200160009054906101000a900473ffffffffffffffffffffffffffffffffffffffff168584612550565b9250601254601460008560001916600019168152602001908152602001600020819055508080600101915050611490565b600d60109054906101000a90046fffffffffffffffffffffffffffffffff1660156000601254815260200190815260200160002060000160006101000a8154816fffffffffffffffffffffffffffffffff02191690836fffffffffffffffffffffffffffffffff160217905550600f8054905060156000601254815260200190815260200160002060000160106101000a8154816fffffffffffffffffffffffffffffffff02191690836fffffffffffffffffffffffffffffffff1602179055503373ffffffffffffffffffffffffffffffffffffffff166012547f0109fc6f55cf40689f02fbaad7af7fe7bbac8a3d2186600afc7d3e10cac602714260405161184f919061443b565b60405180910390a361186d60016012546127e390919063ffffffff16565b6012819055505050505050919050565b60096020528060005260406000206000915090508060000160009054906101000a900473ffffffffffffffffffffffffffffffffffffffff16908060010154905082565b600060166000838152602001908152602001600020549050919050565b600060176000838152602001908152602001600020549050919050565b60086020528060005260406000206000915090508060000154908060010154908060020154905083565b600d60009054906101000a90046fffffffffffffffffffffffffffffffff1681565b600660009054906101000a900473ffffffffffffffffffffffffffffffffffffffff1673ffffffffffffffffffffffffffffffffffffffff163373ffffffffffffffffffffffffffffffffffffffff161415156119a357600080fd5b826fffffffffffffffffffffffffffffffff168282601c8251111515156119ff576040517f08c379a00000000000000000000000000000000000000000000000000000000081526004016119f690614360565b60405180910390fd5b82825110151515611a45576040517f08c379a0000000000000000000000000000000000000000000000000000000008152600401611a3c90614380565b60405180910390fd5b80518251141515611a8b576040517f08c379a0000000000000000000000000000000000000000000000000000000008152600401611a8290614400565b60405180910390fd5b85600d60106101000a8154816fffffffffffffffffffffffffffffffff02191690836fffffffffffffffffffffffffffffffff16021790555083600e9080519060200190611ada9291906134ef565b5084600f9080519060200190611af192919061354f565b50505050505050565b600080611b056135d9565b600068056bc75e2d631000008511151515611b55576040517f08c379a0000000000000000000000000000000000000000000000000000000008152600401611b4c906142e0565b60405180910390fd5b611b5d612942565b92508273ffffffffffffffffffffffffffffffffffffffff166323b872dd3330886040518463ffffffff167c0100000000000000000000000000000000000000000000000000000000028152600401611bb8939291906140de565b602060405180830381600087803b158015611bd257600080fd5b505af1158015611be6573d6000803e3d6000fd5b505050506040513d601f19601f82011682018060405250611c0a9190810190613a71565b50600960003373ffffffffffffffffffffffffffffffffffffffff1673ffffffffffffffffffffffffffffffffffffffff1681526020019081526020016000206040805190810160405290816000820160009054906101000a900473ffffffffffffffffffffffffffffffffffffffff1673ffffffffffffffffffffffffffffffffffffffff1673ffffffffffffffffffffffffffffffffffffffff168152602001600182015481525050915084826020015101905060408051908101604052803373ffffffffffffffffffffffffffffffffffffffff16815260200182815250600960003373ffffffffffffffffffffffffffffffffffffffff1673ffffffffffffffffffffffffffffffffffffffff16815260200190815260200160002060008201518160000160006101000a81548173ffffffffffffffffffffffffffffffffffffffff021916908373ffffffffffffffffffffffffffffffffffffffff1602179055506020820151816001015590505060019350505050919050565b60606010805480602002602001604051908101604052809291908181526020018280548015611dd857602002820191906000526020600020905b815481526020019060010190808311611dc4575b5050505050905090565b601081815481101515611df157fe5b906000526020600020016000915090505481565b600660009054906101000a900473ffffffffffffffffffffffffffffffffffffffff1673ffffffffffffffffffffffffffffffffffffffff163373ffffffffffffffffffffffffffffffffffffffff16141515611e6157600080fd5b80601360008473ffffffffffffffffffffffffffffffffffffffff1673ffffffffffffffffffffffffffffffffffffffff16815260200190815260200160002060006101000a81548160ff0219169083151502179055505050565b600660009054906101000a900473ffffffffffffffffffffffffffffffffffffffff1673ffffffffffffffffffffffffffffffffffffffff163373ffffffffffffffffffffffffffffffffffffffff16141515611f1857600080fd5b611f218161296c565b50565b60075481565b8060056000826000191660001916815260200190815260200160002060009054906101000a900473ffffffffffffffffffffffffffffffffffffffff1673ffffffffffffffffffffffffffffffffffffffff163373ffffffffffffffffffffffffffffffffffffffff16141515611fd6576040517f08c379a0000000000000000000000000000000000000000000000000000000008152600401611fcd906143e0565b60405180910390fd5b60056000826000191660001916815260200190815260200160002060006101000a81549073ffffffffffffffffffffffffffffffffffffffff021916905580600019167fa40ad10b942505047c532a7399bf5eac2768b11b7155b40ec80309aea567f99860405160405180910390a25050565b6000806000806000856015600082815260200190815260200160002060000160009054906101000a90046fffffffffffffffffffffffffffffffff166fffffffffffffffffffffffffffffffff1660156000838152602001908152602001600020600101805490501015156123ae578680600c541115156123ac57601560008981526020019081526020016000206001018054905096506120f4600288612a6890919063ffffffff16565b95506015600089815260200190815260200160002060010180549050601181905550600060028881151561212457fe5b06141561224457612199601560008a815260200190815260200160002060010180548060200260200160405190810160405280929190818152602001828054801561218e57602002820191906000526020600020905b81548152602001906001019080831161217a575b505050505087612a7e565b935061221c601560008a81526020019081526020016000206001018054806020026020016040519081016040528092919081815260200182805480156121fe57602002820191906000526020600020905b8154815260200190600101908083116121ea575b50505050506122176001896127e390919063ffffffff16565b612a7e565b925060026122338486612cac90919063ffffffff16565b81151561223c57fe5b0594506122c8565b6122c5601560008a81526020019081526020016000206001018054806020026020016040519081016040528092919081815260200182805480156122a757602002820191906000526020600020905b815481526020019060010190808311612293575b50505050506122c06001896127e390919063ffffffff16565b612a7e565b94505b84600a8190555087600c8190555042600b8190555042601760008a81526020019081526020016000208190555084601660008a815260200190815260200160002081905550606060405190810160405280600754815260200186815260200142815250600860006007548152602001908152602001600020600082015181600001556020820151816001015560408201518160020155905050600160076000828254019250508190555087857f0559884fd3a460db3073b7fc896cc77986f16e378210ded43186175bf646fc5f426040516123a3919061443b565b60405180910390a35b505b50505050505050565b806015600082815260200190815260200160002060000160109054906101000a90046fffffffffffffffffffffffffffffffff166fffffffffffffffffffffffffffffffff166015600083815260200190815260200160002060010180549050141561248a5760156000838152602001908152602001600020600080820160006101000a8154906fffffffffffffffffffffffffffffffff02191690556000820160106101000a8154906fffffffffffffffffffffffffffffffff02191690556001820160006124879190613609565b50505b5050565b600060608290506000815114156124ab57600060010291506124b3565b602083015191505b50919050565b6124c1613481565b6124c9613481565b6124e085858584612d26909392919063ffffffff16565b9150509392505050565b612501828460800151612de090919063ffffffff16565b612518818460800151612de090919063ffffffff16565b505050565b612534828460800151612de090919063ffffffff16565b61254b818460800151612e0590919063ffffffff16565b505050565b600030600454604051602001808373ffffffffffffffffffffffffffffffffffffffff1673ffffffffffffffffffffffffffffffffffffffff166c01000000000000000000000000028152601401828152602001925050506040516020818303038152906040526040518082805190602001908083835b6020831015156125ec57805182526020820191506020810190506020830392506125c7565b6001836020036101000a038019825116818451168082178552505050505050905001915050604051809103902090506004548360600181815250508360056000836000191660001916815260200190815260200160002060006101000a81548173ffffffffffffffffffffffffffffffffffffffff021916908373ffffffffffffffffffffffffffffffffffffffff16021790555080600019167fa6745906207afb96a5801b8e5711fd7b74c5780ce893a973806e179d675bbe2460405160405180910390a2600260009054906101000a900473ffffffffffffffffffffffffffffffffffffffff1673ffffffffffffffffffffffffffffffffffffffff16634000aea085846126fb87612eab565b6040518463ffffffff167c0100000000000000000000000000000000000000000000000000000000028152600401612735939291906141c3565b602060405180830381600087803b15801561274f57600080fd5b505af1158015612763573d6000803e3d6000fd5b505050506040513d601f19601f820116820180604052506127879190810190613a71565b15156127c8576040517f08c379a00000000000000000000000000000000000000000000000000000000081526004016127bf90614300565b60405180910390fd5b60016004600082825401925050819055508090509392505050565b600081830190508281101515156127f657fe5b80905092915050565b600060056000866000191660001916815260200190815260200160002060009054906101000a900473ffffffffffffffffffffffffffffffffffffffff16905060056000866000191660001916815260200190815260200160002060006101000a81549073ffffffffffffffffffffffffffffffffffffffff021916905584600019167f715822738dad692e521ebc0193d189bf23153eb1d4420173d6b30cd8add9f9a660405160405180910390a28073ffffffffffffffffffffffffffffffffffffffff16636ee4d553868686866040518563ffffffff167c0100000000000000000000000000000000000000000000000000000000028152600401612909949392919061423e565b600060405180830381600087803b15801561292357600080fd5b505af1158015612937573d6000803e3d6000fd5b505050505050505050565b6000600260009054906101000a900473ffffffffffffffffffffffffffffffffffffffff16905090565b600073ffffffffffffffffffffffffffffffffffffffff168173ffffffffffffffffffffffffffffffffffffffff16141515156129a857600080fd5b8073ffffffffffffffffffffffffffffffffffffffff16600660009054906101000a900473ffffffffffffffffffffffffffffffffffffffff1673ffffffffffffffffffffffffffffffffffffffff167f8be0079c531659141344cd1fd0a4f28419497f9722a3daafe3b4186f6b6457e060405160405180910390a380600660006101000a81548173ffffffffffffffffffffffffffffffffffffffff021916908373ffffffffffffffffffffffffffffffffffffffff16021790555050565b60008183811515612a7557fe5b04905092915050565b600060606000806060806000806000808b98508a97508851965086604051908082528060200260200182016040528015612ac75781602001602082028038833980820191505090505b50955086604051908082528060200260200182016040528015612af95781602001602082028038833980820191505090505b5094505b600115612c9c5788612b19600289612a6890919063ffffffff16565b815181101515612b2557fe5b9060200190602002015191506000935060009250600090505b86811015612c1057818982815181101515612b5557fe5b906020019060200201511215612ba6578881815181101515612b7357fe5b906020019060200201518685815181101515612b8b57fe5b90602001906020020181815250508380600101945050612c03565b818982815181101515612bb557fe5b906020019060200201511315612c02578881815181101515612bd357fe5b906020019060200201518584815181101515612beb57fe5b906020019060200201818152505082806001019350505b5b8080600101915050612b3e565b8388111515612c3357839650612c268987612fa9565b809750819a505050612c97565b612c468388612fb990919063ffffffff16565b881115612c8e57612c72612c638489612fb990919063ffffffff16565b89612fb990919063ffffffff16565b9750829650612c818986612fa9565b809650819a505050612c96565b819950612c9d565b5b612afd565b5b50505050505050505092915050565b600080828401905060008312158015612cc55750838112155b80612cdb5750600083128015612cda57508381125b5b1515612d1c576040517f08c379a0000000000000000000000000000000000000000000000000000000008152600401612d1390614320565b60405180910390fd5b8091505092915050565b612d2e613481565b612d3e8560800151610100612fd2565b50838560000190600019169081600019168152505082856020019073ffffffffffffffffffffffffffffffffffffffff16908173ffffffffffffffffffffffffffffffffffffffff16815250508185604001907bffffffffffffffffffffffffffffffffffffffffffffffffffffffff191690817bffffffffffffffffffffffffffffffffffffffffffffffffffffffff191681525050849050949350505050565b612ded826003835161302c565b612e00818361318a90919063ffffffff16565b505050565b7fffffffffffffffffffffffffffffffffffffffffffffffff0000000000000000811215612e3c57612e3782826131ac565b612ea7565b67ffffffffffffffff811315612e5b57612e56828261321d565b612ea6565b600081121515612e7657612e718260008361302c565b612ea5565b612ea4826001837fffffffffffffffffffffffffffffffffffffffffffffffffffffffffffffffff0361302c565b5b5b5b5050565b6060600360009054906101000a900473ffffffffffffffffffffffffffffffffffffffff1673ffffffffffffffffffffffffffffffffffffffff16634042994690507c01000000000000000000000000000000000000000000000000000000000260008084600001518560200151866040015187606001516001896080015160000151604051602401612f4598979695949392919061413e565b604051602081830303815290604052907bffffffffffffffffffffffffffffffffffffffffffffffffffffffff19166020820180517bffffffffffffffffffffffffffffffffffffffffffffffffffffffff83818316178352505050509050919050565b6060808284915091509250929050565b6000828211151515612fc757fe5b818303905092915050565b612fda61362a565b6000602083811515612fe857fe5b0614151561300557602082811515612ffc57fe5b06602003820191505b81836020018181525050604051808452600081528281016020016040525082905092915050565b60178111151561305e576130588160058460ff169060020a0260ff16178461326c90919063ffffffff16565b50613185565b60ff811115156130a557613088601860058460ff169060020a02178461326c90919063ffffffff16565b5061309f8160018561328c9092919063ffffffff16565b50613184565b61ffff811115156130ed576130d0601960058460ff169060020a02178461326c90919063ffffffff16565b506130e78160028561328c9092919063ffffffff16565b50613183565b63ffffffff811115156131375761311a601a60058460ff169060020a02178461326c90919063ffffffff16565b506131318160048561328c9092919063ffffffff16565b50613182565b67ffffffffffffffff8111151561318157613168601b60058460ff169060020a02178461326c90919063ffffffff16565b5061317f8160088561328c9092919063ffffffff16565b505b5b5b5b5b505050565b61319261362a565b6131a4838460000151518485516132ae565b905092915050565b6131cd60036005600660ff169060020a02178361326c90919063ffffffff16565b5061321982827fffffffffffffffffffffffffffffffffffffffffffffffffffffffffffffffff03604051602001613205919061443b565b60405160208183030381529060405261336b565b5050565b61323e60026005600660ff169060020a02178361326c90919063ffffffff16565b506132688282604051602001613254919061443b565b60405160208183030381529060405261336b565b5050565b61327461362a565b6132848384600001515184613390565b905092915050565b61329461362a565b6132a58485600001515185856133e0565b90509392505050565b6132b661362a565b6000806000855185111515156132cb57600080fd5b876020015185880111156132f6576132f58860026132ef8b602001518b8a01613441565b0261345d565b5b8751805188602083010194508089880111156133125788870182525b60208801935050505b602085101515613340578151835260208301925060208201915060208503945061331b565b6001856020036101000a03905080198251168184511681811785525050879350505050949350505050565b613378826002835161302c565b61338b818361318a90919063ffffffff16565b505050565b61339861362a565b8360200151831015156133b7576133b684600286602001510261345d565b5b83518051602085830101848153818614156133d3576001820183525b5050508390509392505050565b6133e861362a565b600085602001518584011115613408576134078660028786010261345d565b5b6001836101000a03905085518386820101858319825116178152815185880111156134335784870182525b505085915050949350505050565b60008183111561345357829050613457565b8190505b92915050565b6060826000015190506134708383612fd2565b5061347b838261318a565b50505050565b60c06040519081016040528060008019168152602001600073ffffffffffffffffffffffffffffffffffffffff16815260200160007bffffffffffffffffffffffffffffffffffffffffffffffffffffffff19168152602001600081526020016134e9613644565b81525090565b82805482825590600052602060002090810192821561353e579160200282015b8281111561353d57825182908051906020019061352d92919061365e565b509160200191906001019061350f565b5b50905061354b91906136de565b5090565b8280548282559060005260206000209081019282156135c8579160200282015b828111156135c75782518260006101000a81548173ffffffffffffffffffffffffffffffffffffffff021916908373ffffffffffffffffffffffffffffffffffffffff1602179055509160200191906001019061356f565b5b5090506135d5919061370a565b5090565b6040805190810160405280600073ffffffffffffffffffffffffffffffffffffffff168152602001600081525090565b5080546000825590600052602060002090810190613627919061374d565b50565b604080519081016040528060608152602001600081525090565b604080519081016040528060608152602001600081525090565b828054600181600116156101000203166002900490600052602060002090601f016020900481019282601f1061369f57805160ff19168380011785556136cd565b828001600101855582156136cd579182015b828111156136cc5782518255916020019190600101906136b1565b5b5090506136da9190613772565b5090565b61370791905b8082111561370357600081816136fa9190613797565b506001016136e4565b5090565b90565b61374a91905b8082111561374657600081816101000a81549073ffffffffffffffffffffffffffffffffffffffff021916905550600101613710565b5090565b90565b61376f91905b8082111561376b576000816000905550600101613753565b5090565b90565b61379491905b80821115613790576000816000905550600101613778565b5090565b90565b50805460018160011615610100020316600290046000825580601f106137bd57506137dc565b601f0160209004906000526020600020908101906137db9190613772565b5b50565b60006137eb8235614637565b905092915050565b600082601f830112151561380657600080fd5b8135613819613814826144e3565b6144b6565b9150818183526020840193506020810190508385602084028201111561383e57600080fd5b60005b8381101561386e578161385488826137df565b845260208401935060208301925050600181019050613841565b5050505092915050565b600082601f830112151561388b57600080fd5b813561389e6138998261450b565b6144b6565b9150818183526020840193506020810190508360005b838110156138e457813586016138ca888261393e565b8452602084019350602083019250506001810190506138b4565b5050505092915050565b60006138fa8235614657565b905092915050565b600061390e8251614657565b905092915050565b60006139228235614663565b905092915050565b6000613936823561466d565b905092915050565b600082601f830112151561395157600080fd5b813561396461395f82614533565b6144b6565b9150808252602083016020830185838301111561398057600080fd5b61398b83828461469d565b50505092915050565b60006139a08235614677565b905092915050565b60006139b48235614693565b905092915050565b60006139c88251614693565b905092915050565b6000602082840312156139e257600080fd5b60006139f0848285016137df565b91505092915050565b60008060408385031215613a0c57600080fd5b6000613a1a858286016137df565b9250506020613a2b858286016138ee565b9150509250929050565b60008060408385031215613a4857600080fd5b6000613a56858286016137df565b9250506020613a67858286016139a8565b9150509250929050565b600060208284031215613a8357600080fd5b6000613a9184828501613902565b91505092915050565b60008060408385031215613aad57600080fd5b6000613abb85828601613916565b9250506020613acc8582860161392a565b9150509250929050565b600080600060608486031215613aeb57600080fd5b6000613af986828701613916565b9350506020613b0a868287016139a8565b9250506040613b1b868287016139a8565b9150509250925092565b600080600060608486031215613b3a57600080fd5b6000613b4886828701613994565b935050602084013567ffffffffffffffff811115613b6557600080fd5b613b71868287016137f3565b925050604084013567ffffffffffffffff811115613b8e57600080fd5b613b9a86828701613878565b9150509250925092565b600060208284031215613bb657600080fd5b6000613bc4848285016139a8565b91505092915050565b600060208284031215613bdf57600080fd5b6000613bed848285016139bc565b91505092915050565b613bff816145a5565b82525050565b6000613c108261456c565b808452602084019350613c228361455f565b60005b82811015613c5457613c38868351613cf9565b613c4182614598565b9150602086019550600181019050613c25565b50849250505092915050565b613c69816145c5565b82525050565b613c78816145d1565b82525050565b613c87816145db565b82525050565b6000613c9882614582565b808452613cac8160208601602086016146ac565b613cb5816146df565b602085010191505092915050565b6000613cce82614577565b808452613ce28160208601602086016146ac565b613ceb816146df565b602085010191505092915050565b613d0281614607565b82525050565b6000613d138261458d565b808452613d278160208601602086016146ac565b613d30816146df565b602085010191505092915050565b6000602f82527f4e6f7420616e20617574686f72697a6564206164647265737320666f7220637260208301527f656174696e6720726571756573747300000000000000000000000000000000006040830152606082019050919050565b6000601982527f4e4f545f4d4f52455f5448414e5f3130305f414c4c4f574544000000000000006020830152604082019050919050565b6000602382527f756e61626c6520746f207472616e73666572416e6443616c6c20746f206f726160208301527f636c6500000000000000000000000000000000000000000000000000000000006040830152606082019050919050565b6000602182527f5369676e6564536166654d6174683a206164646974696f6e206f766572666c6f60208301527f77000000000000000000000000000000000000000000000000000000000000006040830152606082019050919050565b6000602382527f43616e6e6f74206d6f6469667920616e20696e2d70726f677265737320616e7360208301527f77657200000000000000000000000000000000000000000000000000000000006040830152606082019050919050565b6000602082527f63616e6e6f742068617665206d6f7265207468616e203435206f7261636c65736020830152604082019050919050565b6000602f82527f6d7573742068617665206174206c65617374206173206d616e79206f7261636c60208301527f657320617320726573706f6e73657300000000000000000000000000000000006040830152606082019050919050565b6000601382527f504c49207472616e73666572206661696c6564000000000000000000000000006020830152604082019050919050565b6000601582527f4e4f5f53554646494349454e545f4352454449545300000000000000000000006020830152604082019050919050565b6000602882527f536f75726365206d75737420626520746865206f7261636c65206f662074686560208301527f20726571756573740000000000000000000000000000000000000000000000006040830152606082019050919050565b6000602c82527f6d75737420686176652065786163746c79206173206d616e79206f7261636c6560208301527f73206173206a6f622049447300000000000000000000000000000000000000006040830152606082019050919050565b6140ae81614611565b82525050565b6140bd8161462d565b82525050565b60006020820190506140d86000830184613bf6565b92915050565b60006060820190506140f36000830186613bf6565b6141006020830185613bf6565b61410d60408301846140b4565b949350505050565b600060408201905061412a6000830185613bf6565b61413760208301846140b4565b9392505050565b600061010082019050614154600083018b613bf6565b614161602083018a6140b4565b61416e6040830189613c6f565b61417b6060830188613bf6565b6141886080830187613c7e565b61419560a08301866140b4565b6141a260c08301856140b4565b81810360e08301526141b48184613cc3565b90509998505050505050505050565b60006060820190506141d86000830186613bf6565b6141e560208301856140b4565b81810360408301526141f78184613c8d565b9050949350505050565b6000602082019050818103600083015261421b8184613c05565b905092915050565b60006020820190506142386000830184613c60565b92915050565b60006080820190506142536000830187613c6f565b61426060208301866140b4565b61426d6040830185613c7e565b61427a60608301846140b4565b95945050505050565b60006020820190506142986000830184613cf9565b92915050565b600060208201905081810360008301526142b88184613d08565b905092915050565b600060208201905081810360008301526142d981613d3e565b9050919050565b600060208201905081810360008301526142f981613d9b565b9050919050565b6000602082019050818103600083015261431981613dd2565b9050919050565b6000602082019050818103600083015261433981613e2f565b9050919050565b6000602082019050818103600083015261435981613e8c565b9050919050565b6000602082019050818103600083015261437981613ee9565b9050919050565b6000602082019050818103600083015261439981613f20565b9050919050565b600060208201905081810360008301526143b981613f7d565b9050919050565b600060208201905081810360008301526143d981613fb4565b9050919050565b600060208201905081810360008301526143f981613feb565b9050919050565b6000602082019050818103600083015261441981614048565b9050919050565b600060208201905061443560008301846140a5565b92915050565b600060208201905061445060008301846140b4565b92915050565b600060408201905061446b60008301856140b4565b61447860208301846140b4565b9392505050565b600060608201905061449460008301866140b4565b6144a160208301856140b4565b6144ae60408301846140b4565b949350505050565b6000604051905081810181811067ffffffffffffffff821117156144d957600080fd5b8060405250919050565b600067ffffffffffffffff8211156144fa57600080fd5b602082029050602081019050919050565b600067ffffffffffffffff82111561452257600080fd5b602082029050602081019050919050565b600067ffffffffffffffff82111561454a57600080fd5b601f19601f8301169050602081019050919050565b6000602082019050919050565b600081519050919050565b600081519050919050565b600081519050919050565b600081519050919050565b6000602082019050919050565b600073ffffffffffffffffffffffffffffffffffffffff82169050919050565b60008115159050919050565b6000819050919050565b60007fffffffff0000000000000000000000000000000000000000000000000000000082169050919050565b6000819050919050565b60006fffffffffffffffffffffffffffffffff82169050919050565b6000819050919050565b600073ffffffffffffffffffffffffffffffffffffffff82169050919050565b60008115159050919050565b6000819050919050565b6000819050919050565b60006fffffffffffffffffffffffffffffffff82169050919050565b6000819050919050565b82818337600083830152505050565b60005b838110156146ca5780820151818401526020810190506146af565b838111156146d9576000848401525b50505050565b6000601f19601f83011690509190505600a265627a7a723058209271354b44b1f55a5b0085962f8c6dfce40468cc3e542a1b7e58c3ce31d202986c6578706572696d656e74616cf50037",
			"opcodes": "PUSH1 0x80 PUSH1 0x40 MSTORE PUSH1 0x1 PUSH1 0x4 SSTORE PUSH1 0x1 PUSH1 0x12 SSTORE CALLVALUE DUP1 ISZERO PUSH3 0x1B JUMPI PUSH1 0x0 DUP1 REVERT JUMPDEST POP PUSH1 0x40 MLOAD PUSH3 0x511D CODESIZE SUB DUP1 PUSH3 0x511D DUP4 CODECOPY DUP2 ADD DUP1 PUSH1 0x40 MSTORE PUSH3 0x41 SWAP2 SWAP1 DUP2 ADD SWAP1 PUSH3 0x6CF JUMP JUMPDEST CALLER PUSH1 0x6 PUSH1 0x0 PUSH2 0x100 EXP DUP2 SLOAD DUP2 PUSH20 0xFFFFFFFFFFFFFFFFFFFFFFFFFFFFFFFFFFFFFFFF MUL NOT AND SWAP1 DUP4 PUSH20 0xFFFFFFFFFFFFFFFFFFFFFFFFFFFFFFFFFFFFFFFF AND MUL OR SWAP1 SSTORE POP PUSH3 0x9C DUP5 PUSH3 0xCA PUSH5 0x100000000 MUL PUSH5 0x100000000 SWAP1 DIV JUMP JUMPDEST PUSH3 0xB8 DUP4 DUP4 DUP4 PUSH3 0x10E PUSH5 0x100000000 MUL PUSH5 0x100000000 SWAP1 DIV JUMP JUMPDEST PUSH1 0x1 PUSH1 0x7 DUP2 SWAP1 SSTORE POP POP POP POP POP PUSH3 0x9E3 JUMP JUMPDEST DUP1 PUSH1 0x2 PUSH1 0x0 PUSH2 0x100 EXP DUP2 SLOAD DUP2 PUSH20 0xFFFFFFFFFFFFFFFFFFFFFFFFFFFFFFFFFFFFFFFF MUL NOT AND SWAP1 DUP4 PUSH20 0xFFFFFFFFFFFFFFFFFFFFFFFFFFFFFFFFFFFFFFFF AND MUL OR SWAP1 SSTORE POP POP JUMP JUMPDEST PUSH1 0x6 PUSH1 0x0 SWAP1 SLOAD SWAP1 PUSH2 0x100 EXP SWAP1 DIV PUSH20 0xFFFFFFFFFFFFFFFFFFFFFFFFFFFFFFFFFFFFFFFF AND PUSH20 0xFFFFFFFFFFFFFFFFFFFFFFFFFFFFFFFFFFFFFFFF AND CALLER PUSH20 0xFFFFFFFFFFFFFFFFFFFFFFFFFFFFFFFFFFFFFFFF AND EQ ISZERO ISZERO PUSH3 0x16B JUMPI PUSH1 0x0 DUP1 REVERT JUMPDEST DUP3 PUSH16 0xFFFFFFFFFFFFFFFFFFFFFFFFFFFFFFFF AND DUP3 DUP3 PUSH1 0x1C DUP3 MLOAD GT ISZERO ISZERO ISZERO PUSH3 0x1CA JUMPI PUSH1 0x40 MLOAD PUSH32 0x8C379A000000000000000000000000000000000000000000000000000000000 DUP2 MSTORE PUSH1 0x4 ADD PUSH3 0x1C1 SWAP1 PUSH3 0x85E JUMP JUMPDEST PUSH1 0x40 MLOAD DUP1 SWAP2 SUB SWAP1 REVERT JUMPDEST DUP3 DUP3 MLOAD LT ISZERO ISZERO ISZERO PUSH3 0x213 JUMPI PUSH1 0x40 MLOAD PUSH32 0x8C379A000000000000000000000000000000000000000000000000000000000 DUP2 MSTORE PUSH1 0x4 ADD PUSH3 0x20A SWAP1 PUSH3 0x880 JUMP JUMPDEST PUSH1 0x40 MLOAD DUP1 SWAP2 SUB SWAP1 REVERT JUMPDEST DUP1 MLOAD DUP3 MLOAD EQ ISZERO ISZERO PUSH3 0x25C JUMPI PUSH1 0x40 MLOAD PUSH32 0x8C379A000000000000000000000000000000000000000000000000000000000 DUP2 MSTORE PUSH1 0x4 ADD PUSH3 0x253 SWAP1 PUSH3 0x8A2 JUMP JUMPDEST PUSH1 0x40 MLOAD DUP1 SWAP2 SUB SWAP1 REVERT JUMPDEST DUP6 PUSH1 0xD PUSH1 0x10 PUSH2 0x100 EXP DUP2 SLOAD DUP2 PUSH16 0xFFFFFFFFFFFFFFFFFFFFFFFFFFFFFFFF MUL NOT AND SWAP1 DUP4 PUSH16 0xFFFFFFFFFFFFFFFFFFFFFFFFFFFFFFFF AND MUL OR SWAP1 SSTORE POP DUP4 PUSH1 0xE SWAP1 DUP1 MLOAD SWAP1 PUSH1 0x20 ADD SWAP1 PUSH3 0x2AD SWAP3 SWAP2 SWAP1 PUSH3 0x2CF JUMP JUMPDEST POP DUP5 PUSH1 0xF SWAP1 DUP1 MLOAD SWAP1 PUSH1 0x20 ADD SWAP1 PUSH3 0x2C6 SWAP3 SWAP2 SWAP1 PUSH3 0x336 JUMP JUMPDEST POP POP POP POP POP POP POP JUMP JUMPDEST DUP3 DUP1 SLOAD DUP3 DUP3 SSTORE SWAP1 PUSH1 0x0 MSTORE PUSH1 0x20 PUSH1 0x0 KECCAK256 SWAP1 DUP2 ADD SWAP3 DUP3 ISZERO PUSH3 0x323 JUMPI SWAP2 PUSH1 0x20 MUL DUP3 ADD JUMPDEST DUP3 DUP2 GT ISZERO PUSH3 0x322 JUMPI DUP3 MLOAD DUP3 SWAP1 DUP1 MLOAD SWAP1 PUSH1 0x20 ADD SWAP1 PUSH3 0x311 SWAP3 SWAP2 SWAP1 PUSH3 0x3C5 JUMP JUMPDEST POP SWAP2 PUSH1 0x20 ADD SWAP2 SWAP1 PUSH1 0x1 ADD SWAP1 PUSH3 0x2F0 JUMP JUMPDEST JUMPDEST POP SWAP1 POP PUSH3 0x332 SWAP2 SWAP1 PUSH3 0x44C JUMP JUMPDEST POP SWAP1 JUMP JUMPDEST DUP3 DUP1 SLOAD DUP3 DUP3 SSTORE SWAP1 PUSH1 0x0 MSTORE PUSH1 0x20 PUSH1 0x0 KECCAK256 SWAP1 DUP2 ADD SWAP3 DUP3 ISZERO PUSH3 0x3B2 JUMPI SWAP2 PUSH1 0x20 MUL DUP3 ADD JUMPDEST DUP3 DUP2 GT ISZERO PUSH3 0x3B1 JUMPI DUP3 MLOAD DUP3 PUSH1 0x0 PUSH2 0x100 EXP DUP2 SLOAD DUP2 PUSH20 0xFFFFFFFFFFFFFFFFFFFFFFFFFFFFFFFFFFFFFFFF MUL NOT AND SWAP1 DUP4 PUSH20 0xFFFFFFFFFFFFFFFFFFFFFFFFFFFFFFFFFFFFFFFF AND MUL OR SWAP1 SSTORE POP SWAP2 PUSH1 0x20 ADD SWAP2 SWAP1 PUSH1 0x1 ADD SWAP1 PUSH3 0x357 JUMP JUMPDEST JUMPDEST POP SWAP1 POP PUSH3 0x3C1 SWAP2 SWAP1 PUSH3 0x47D JUMP JUMPDEST POP SWAP1 JUMP JUMPDEST DUP3 DUP1 SLOAD PUSH1 0x1 DUP2 PUSH1 0x1 AND ISZERO PUSH2 0x100 MUL SUB AND PUSH1 0x2 SWAP1 DIV SWAP1 PUSH1 0x0 MSTORE PUSH1 0x20 PUSH1 0x0 KECCAK256 SWAP1 PUSH1 0x1F ADD PUSH1 0x20 SWAP1 DIV DUP2 ADD SWAP3 DUP3 PUSH1 0x1F LT PUSH3 0x408 JUMPI DUP1 MLOAD PUSH1 0xFF NOT AND DUP4 DUP1 ADD OR DUP6 SSTORE PUSH3 0x439 JUMP JUMPDEST DUP3 DUP1 ADD PUSH1 0x1 ADD DUP6 SSTORE DUP3 ISZERO PUSH3 0x439 JUMPI SWAP2 DUP3 ADD JUMPDEST DUP3 DUP2 GT ISZERO PUSH3 0x438 JUMPI DUP3 MLOAD DUP3 SSTORE SWAP2 PUSH1 0x20 ADD SWAP2 SWAP1 PUSH1 0x1 ADD SWAP1 PUSH3 0x41B JUMP JUMPDEST JUMPDEST POP SWAP1 POP PUSH3 0x448 SWAP2 SWAP1 PUSH3 0x4C3 JUMP JUMPDEST POP SWAP1 JUMP JUMPDEST PUSH3 0x47A SWAP2 SWAP1 JUMPDEST DUP1 DUP3 GT ISZERO PUSH3 0x476 JUMPI PUSH1 0x0 DUP2 DUP2 PUSH3 0x46C SWAP2 SWAP1 PUSH3 0x4EB JUMP JUMPDEST POP PUSH1 0x1 ADD PUSH3 0x453 JUMP JUMPDEST POP SWAP1 JUMP JUMPDEST SWAP1 JUMP JUMPDEST PUSH3 0x4C0 SWAP2 SWAP1 JUMPDEST DUP1 DUP3 GT ISZERO PUSH3 0x4BC JUMPI PUSH1 0x0 DUP2 DUP2 PUSH2 0x100 EXP DUP2 SLOAD SWAP1 PUSH20 0xFFFFFFFFFFFFFFFFFFFFFFFFFFFFFFFFFFFFFFFF MUL NOT AND SWAP1 SSTORE POP PUSH1 0x1 ADD PUSH3 0x484 JUMP JUMPDEST POP SWAP1 JUMP JUMPDEST SWAP1 JUMP JUMPDEST PUSH3 0x4E8 SWAP2 SWAP1 JUMPDEST DUP1 DUP3 GT ISZERO PUSH3 0x4E4 JUMPI PUSH1 0x0 DUP2 PUSH1 0x0 SWAP1 SSTORE POP PUSH1 0x1 ADD PUSH3 0x4CA JUMP JUMPDEST POP SWAP1 JUMP JUMPDEST SWAP1 JUMP JUMPDEST POP DUP1 SLOAD PUSH1 0x1 DUP2 PUSH1 0x1 AND ISZERO PUSH2 0x100 MUL SUB AND PUSH1 0x2 SWAP1 DIV PUSH1 0x0 DUP3 SSTORE DUP1 PUSH1 0x1F LT PUSH3 0x513 JUMPI POP PUSH3 0x534 JUMP JUMPDEST PUSH1 0x1F ADD PUSH1 0x20 SWAP1 DIV SWAP1 PUSH1 0x0 MSTORE PUSH1 0x20 PUSH1 0x0 KECCAK256 SWAP1 DUP2 ADD SWAP1 PUSH3 0x533 SWAP2 SWAP1 PUSH3 0x4C3 JUMP JUMPDEST JUMPDEST POP JUMP JUMPDEST PUSH1 0x0 PUSH3 0x545 DUP3 MLOAD PUSH3 0x971 JUMP JUMPDEST SWAP1 POP SWAP3 SWAP2 POP POP JUMP JUMPDEST PUSH1 0x0 DUP3 PUSH1 0x1F DUP4 ADD SLT ISZERO ISZERO PUSH3 0x561 JUMPI PUSH1 0x0 DUP1 REVERT JUMPDEST DUP2 MLOAD PUSH3 0x578 PUSH3 0x572 DUP3 PUSH3 0x8F2 JUMP JUMPDEST PUSH3 0x8C4 JUMP JUMPDEST SWAP2 POP DUP2 DUP2 DUP4 MSTORE PUSH1 0x20 DUP5 ADD SWAP4 POP PUSH1 0x20 DUP2 ADD SWAP1 POP DUP4 DUP6 PUSH1 0x20 DUP5 MUL DUP3 ADD GT ISZERO PUSH3 0x59E JUMPI PUSH1 0x0 DUP1 REVERT JUMPDEST PUSH1 0x0 JUMPDEST DUP4 DUP2 LT ISZERO PUSH3 0x5D2 JUMPI DUP2 PUSH3 0x5B7 DUP9 DUP3 PUSH3 0x537 JUMP JUMPDEST DUP5 MSTORE PUSH1 0x20 DUP5 ADD SWAP4 POP PUSH1 0x20 DUP4 ADD SWAP3 POP POP PUSH1 0x1 DUP2 ADD SWAP1 POP PUSH3 0x5A1 JUMP JUMPDEST POP POP POP POP SWAP3 SWAP2 POP POP JUMP JUMPDEST PUSH1 0x0 DUP3 PUSH1 0x1F DUP4 ADD SLT ISZERO ISZERO PUSH3 0x5F0 JUMPI PUSH1 0x0 DUP1 REVERT JUMPDEST DUP2 MLOAD PUSH3 0x607 PUSH3 0x601 DUP3 PUSH3 0x91B JUMP JUMPDEST PUSH3 0x8C4 JUMP JUMPDEST SWAP2 POP DUP2 DUP2 DUP4 MSTORE PUSH1 0x20 DUP5 ADD SWAP4 POP PUSH1 0x20 DUP2 ADD SWAP1 POP DUP4 PUSH1 0x0 JUMPDEST DUP4 DUP2 LT ISZERO PUSH3 0x651 JUMPI DUP2 MLOAD DUP7 ADD PUSH3 0x636 DUP9 DUP3 PUSH3 0x65B JUMP JUMPDEST DUP5 MSTORE PUSH1 0x20 DUP5 ADD SWAP4 POP PUSH1 0x20 DUP4 ADD SWAP3 POP POP PUSH1 0x1 DUP2 ADD SWAP1 POP PUSH3 0x61D JUMP JUMPDEST POP POP POP POP SWAP3 SWAP2 POP POP JUMP JUMPDEST PUSH1 0x0 DUP3 PUSH1 0x1F DUP4 ADD SLT ISZERO ISZERO PUSH3 0x66F JUMPI PUSH1 0x0 DUP1 REVERT JUMPDEST DUP2 MLOAD PUSH3 0x686 PUSH3 0x680 DUP3 PUSH3 0x944 JUMP JUMPDEST PUSH3 0x8C4 JUMP JUMPDEST SWAP2 POP DUP1 DUP3 MSTORE PUSH1 0x20 DUP4 ADD PUSH1 0x20 DUP4 ADD DUP6 DUP4 DUP4 ADD GT ISZERO PUSH3 0x6A3 JUMPI PUSH1 0x0 DUP1 REVERT JUMPDEST PUSH3 0x6B0 DUP4 DUP3 DUP5 PUSH3 0x9AD JUMP JUMPDEST POP POP POP SWAP3 SWAP2 POP POP JUMP JUMPDEST PUSH1 0x0 PUSH3 0x6C7 DUP3 MLOAD PUSH3 0x991 JUMP JUMPDEST SWAP1 POP SWAP3 SWAP2 POP POP JUMP JUMPDEST PUSH1 0x0 DUP1 PUSH1 0x0 DUP1 PUSH1 0x80 DUP6 DUP8 SUB SLT ISZERO PUSH3 0x6E6 JUMPI PUSH1 0x0 DUP1 REVERT JUMPDEST PUSH1 0x0 PUSH3 0x6F6 DUP8 DUP3 DUP9 ADD PUSH3 0x537 JUMP JUMPDEST SWAP5 POP POP PUSH1 0x20 PUSH3 0x709 DUP8 DUP3 DUP9 ADD PUSH3 0x6B9 JUMP JUMPDEST SWAP4 POP POP PUSH1 0x40 DUP6 ADD MLOAD PUSH8 0xFFFFFFFFFFFFFFFF DUP2 GT ISZERO PUSH3 0x727 JUMPI PUSH1 0x0 DUP1 REVERT JUMPDEST PUSH3 0x735 DUP8 DUP3 DUP9 ADD PUSH3 0x54D JUMP JUMPDEST SWAP3 POP POP PUSH1 0x60 DUP6 ADD MLOAD PUSH8 0xFFFFFFFFFFFFFFFF DUP2 GT ISZERO PUSH3 0x753 JUMPI PUSH1 0x0 DUP1 REVERT JUMPDEST PUSH3 0x761 DUP8 DUP3 DUP9 ADD PUSH3 0x5DC JUMP JUMPDEST SWAP2 POP POP SWAP3 SWAP6 SWAP2 SWAP5 POP SWAP3 POP JUMP JUMPDEST PUSH1 0x0 PUSH1 0x20 DUP3 MSTORE PUSH32 0x63616E6E6F742068617665206D6F7265207468616E203435206F7261636C6573 PUSH1 0x20 DUP4 ADD MSTORE PUSH1 0x40 DUP3 ADD SWAP1 POP SWAP2 SWAP1 POP JUMP JUMPDEST PUSH1 0x0 PUSH1 0x2F DUP3 MSTORE PUSH32 0x6D7573742068617665206174206C65617374206173206D616E79206F7261636C PUSH1 0x20 DUP4 ADD MSTORE PUSH32 0x657320617320726573706F6E7365730000000000000000000000000000000000 PUSH1 0x40 DUP4 ADD MSTORE PUSH1 0x60 DUP3 ADD SWAP1 POP SWAP2 SWAP1 POP JUMP JUMPDEST PUSH1 0x0 PUSH1 0x2C DUP3 MSTORE PUSH32 0x6D75737420686176652065786163746C79206173206D616E79206F7261636C65 PUSH1 0x20 DUP4 ADD MSTORE PUSH32 0x73206173206A6F62204944730000000000000000000000000000000000000000 PUSH1 0x40 DUP4 ADD MSTORE PUSH1 0x60 DUP3 ADD SWAP1 POP SWAP2 SWAP1 POP JUMP JUMPDEST PUSH1 0x0 PUSH1 0x20 DUP3 ADD SWAP1 POP DUP2 DUP2 SUB PUSH1 0x0 DUP4 ADD MSTORE PUSH3 0x879 DUP2 PUSH3 0x76D JUMP JUMPDEST SWAP1 POP SWAP2 SWAP1 POP JUMP JUMPDEST PUSH1 0x0 PUSH1 0x20 DUP3 ADD SWAP1 POP DUP2 DUP2 SUB PUSH1 0x0 DUP4 ADD MSTORE PUSH3 0x89B DUP2 PUSH3 0x7A4 JUMP JUMPDEST SWAP1 POP SWAP2 SWAP1 POP JUMP JUMPDEST PUSH1 0x0 PUSH1 0x20 DUP3 ADD SWAP1 POP DUP2 DUP2 SUB PUSH1 0x0 DUP4 ADD MSTORE PUSH3 0x8BD DUP2 PUSH3 0x801 JUMP JUMPDEST SWAP1 POP SWAP2 SWAP1 POP JUMP JUMPDEST PUSH1 0x0 PUSH1 0x40 MLOAD SWAP1 POP DUP2 DUP2 ADD DUP2 DUP2 LT PUSH8 0xFFFFFFFFFFFFFFFF DUP3 GT OR ISZERO PUSH3 0x8E8 JUMPI PUSH1 0x0 DUP1 REVERT JUMPDEST DUP1 PUSH1 0x40 MSTORE POP SWAP2 SWAP1 POP JUMP JUMPDEST PUSH1 0x0 PUSH8 0xFFFFFFFFFFFFFFFF DUP3 GT ISZERO PUSH3 0x90A JUMPI PUSH1 0x0 DUP1 REVERT JUMPDEST PUSH1 0x20 DUP3 MUL SWAP1 POP PUSH1 0x20 DUP2 ADD SWAP1 POP SWAP2 SWAP1 POP JUMP JUMPDEST PUSH1 0x0 PUSH8 0xFFFFFFFFFFFFFFFF DUP3 GT ISZERO PUSH3 0x933 JUMPI PUSH1 0x0 DUP1 REVERT JUMPDEST PUSH1 0x20 DUP3 MUL SWAP1 POP PUSH1 0x20 DUP2 ADD SWAP1 POP SWAP2 SWAP1 POP JUMP JUMPDEST PUSH1 0x0 PUSH8 0xFFFFFFFFFFFFFFFF DUP3 GT ISZERO PUSH3 0x95C JUMPI PUSH1 0x0 DUP1 REVERT JUMPDEST PUSH1 0x1F NOT PUSH1 0x1F DUP4 ADD AND SWAP1 POP PUSH1 0x20 DUP2 ADD SWAP1 POP SWAP2 SWAP1 POP JUMP JUMPDEST PUSH1 0x0 PUSH20 0xFFFFFFFFFFFFFFFFFFFFFFFFFFFFFFFFFFFFFFFF DUP3 AND SWAP1 POP SWAP2 SWAP1 POP JUMP JUMPDEST PUSH1 0x0 PUSH16 0xFFFFFFFFFFFFFFFFFFFFFFFFFFFFFFFF DUP3 AND SWAP1 POP SWAP2 SWAP1 POP JUMP JUMPDEST PUSH1 0x0 JUMPDEST DUP4 DUP2 LT ISZERO PUSH3 0x9CD JUMPI DUP1 DUP3 ADD MLOAD DUP2 DUP5 ADD MSTORE PUSH1 0x20 DUP2 ADD SWAP1 POP PUSH3 0x9B0 JUMP JUMPDEST DUP4 DUP2 GT ISZERO PUSH3 0x9DD JUMPI PUSH1 0x0 DUP5 DUP5 ADD MSTORE JUMPDEST POP POP POP POP JUMP JUMPDEST PUSH2 0x472A DUP1 PUSH3 0x9F3 PUSH1 0x0 CODECOPY PUSH1 0x0 RETURN STOP PUSH1 0x80 PUSH1 0x40 MSTORE PUSH1 0x4 CALLDATASIZE LT PUSH2 0x175 JUMPI PUSH1 0x0 CALLDATALOAD PUSH29 0x100000000000000000000000000000000000000000000000000000000 SWAP1 DIV PUSH4 0xFFFFFFFF AND DUP1 PUSH4 0x172E145 EQ PUSH2 0x17A JUMPI DUP1 PUSH4 0x5C165BF EQ PUSH2 0x1A3 JUMPI DUP1 PUSH4 0x2D8C762C EQ PUSH2 0x1CE JUMPI DUP1 PUSH4 0x33BFCDD8 EQ PUSH2 0x1E5 JUMPI DUP1 PUSH4 0x3EA478AA EQ PUSH2 0x20E JUMPI DUP1 PUSH4 0x4162CC88 EQ PUSH2 0x24B JUMPI DUP1 PUSH4 0x50D25BCD EQ PUSH2 0x288 JUMPI DUP1 PUSH4 0x54BCD7FF EQ PUSH2 0x2B3 JUMPI DUP1 PUSH4 0x5B69A7D8 EQ PUSH2 0x2DE JUMPI DUP1 PUSH4 0x64BB057F EQ PUSH2 0x31B JUMPI DUP1 PUSH4 0x668A0F02 EQ PUSH2 0x359 JUMPI DUP1 PUSH4 0x715018A6 EQ PUSH2 0x384 JUMPI DUP1 PUSH4 0x8205BF6A EQ PUSH2 0x39B JUMPI DUP1 PUSH4 0x83197EF0 EQ PUSH2 0x3C6 JUMPI DUP1 PUSH4 0x8DA5CB5B EQ PUSH2 0x3DD JUMPI DUP1 PUSH4 0x8E62EF0C EQ PUSH2 0x408 JUMPI DUP1 PUSH4 0x9DD4CC5D EQ PUSH2 0x431 JUMPI DUP1 PUSH4 0xA2E36C5F EQ PUSH2 0x46E JUMPI DUP1 PUSH4 0xB5AB58DC EQ PUSH2 0x4AC JUMPI DUP1 PUSH4 0xB633620C EQ PUSH2 0x4E9 JUMPI DUP1 PUSH4 0xBC31C1C1 EQ PUSH2 0x526 JUMPI DUP1 PUSH4 0xC35905C6 EQ PUSH2 0x565 JUMPI DUP1 PUSH4 0xD163F715 EQ PUSH2 0x590 JUMPI DUP1 PUSH4 0xD378D5EB EQ PUSH2 0x5B9 JUMPI DUP1 PUSH4 0xDD5FD792 EQ PUSH2 0x5F6 JUMPI DUP1 PUSH4 0xE46D2250 EQ PUSH2 0x621 JUMPI DUP1 PUSH4 0xEECEA000 EQ PUSH2 0x65E JUMPI DUP1 PUSH4 0xF2FDE38B EQ PUSH2 0x687 JUMPI DUP1 PUSH4 0xF3D6D2A1 EQ PUSH2 0x6B0 JUMPI JUMPDEST PUSH1 0x0 DUP1 REVERT JUMPDEST CALLVALUE DUP1 ISZERO PUSH2 0x186 JUMPI PUSH1 0x0 DUP1 REVERT JUMPDEST POP PUSH2 0x1A1 PUSH1 0x4 DUP1 CALLDATASIZE SUB PUSH2 0x19C SWAP2 SWAP1 DUP2 ADD SWAP1 PUSH2 0x3A9A JUMP JUMPDEST PUSH2 0x6DB JUMP JUMPDEST STOP JUMPDEST CALLVALUE DUP1 ISZERO PUSH2 0x1AF JUMPI PUSH1 0x0 DUP1 REVERT JUMPDEST POP PUSH2 0x1B8 PUSH2 0x7EB JUMP JUMPDEST PUSH1 0x40 MLOAD PUSH2 0x1C5 SWAP2 SWAP1 PUSH2 0x443B JUMP JUMPDEST PUSH1 0x40 MLOAD DUP1 SWAP2 SUB SWAP1 RETURN JUMPDEST CALLVALUE DUP1 ISZERO PUSH2 0x1DA JUMPI PUSH1 0x0 DUP1 REVERT JUMPDEST POP PUSH2 0x1E3 PUSH2 0x7F1 JUMP JUMPDEST STOP JUMPDEST CALLVALUE DUP1 ISZERO PUSH2 0x1F1 JUMPI PUSH1 0x0 DUP1 REVERT JUMPDEST POP PUSH2 0x20C PUSH1 0x4 DUP1 CALLDATASIZE SUB PUSH2 0x207 SWAP2 SWAP1 DUP2 ADD SWAP1 PUSH2 0x3AD6 JUMP JUMPDEST PUSH2 0xBF5 JUMP JUMPDEST STOP JUMPDEST CALLVALUE DUP1 ISZERO PUSH2 0x21A JUMPI PUSH1 0x0 DUP1 REVERT JUMPDEST POP PUSH2 0x235 PUSH1 0x4 DUP1 CALLDATASIZE SUB PUSH2 0x230 SWAP2 SWAP1 DUP2 ADD SWAP1 PUSH2 0x39D0 JUMP JUMPDEST PUSH2 0xDDF JUMP JUMPDEST PUSH1 0x40 MLOAD PUSH2 0x242 SWAP2 SWAP1 PUSH2 0x4223 JUMP JUMPDEST PUSH1 0x40 MLOAD DUP1 SWAP2 SUB SWAP1 RETURN JUMPDEST CALLVALUE DUP1 ISZERO PUSH2 0x257 JUMPI PUSH1 0x0 DUP1 REVERT JUMPDEST POP PUSH2 0x272 PUSH1 0x4 DUP1 CALLDATASIZE SUB PUSH2 0x26D SWAP2 SWAP1 DUP2 ADD SWAP1 PUSH2 0x3BA4 JUMP JUMPDEST PUSH2 0xDFF JUMP JUMPDEST PUSH1 0x40 MLOAD PUSH2 0x27F SWAP2 SWAP1 PUSH2 0x429E JUMP JUMPDEST PUSH1 0x40 MLOAD DUP1 SWAP2 SUB SWAP1 RETURN JUMPDEST CALLVALUE DUP1 ISZERO PUSH2 0x294 JUMPI PUSH1 0x0 DUP1 REVERT JUMPDEST POP PUSH2 0x29D PUSH2 0xEBA JUMP JUMPDEST PUSH1 0x40 MLOAD PUSH2 0x2AA SWAP2 SWAP1 PUSH2 0x4283 JUMP JUMPDEST PUSH1 0x40 MLOAD DUP1 SWAP2 SUB SWAP1 RETURN JUMPDEST CALLVALUE DUP1 ISZERO PUSH2 0x2BF JUMPI PUSH1 0x0 DUP1 REVERT JUMPDEST POP PUSH2 0x2C8 PUSH2 0xED7 JUMP JUMPDEST PUSH1 0x40 MLOAD PUSH2 0x2D5 SWAP2 SWAP1 PUSH2 0x4420 JUMP JUMPDEST PUSH1 0x40 MLOAD DUP1 SWAP2 SUB SWAP1 RETURN JUMPDEST CALLVALUE DUP1 ISZERO PUSH2 0x2EA JUMPI PUSH1 0x0 DUP1 REVERT JUMPDEST POP PUSH2 0x305 PUSH1 0x4 DUP1 CALLDATASIZE SUB PUSH2 0x300 SWAP2 SWAP1 DUP2 ADD SWAP1 PUSH2 0x3BA4 JUMP JUMPDEST PUSH2 0xEF9 JUMP JUMPDEST PUSH1 0x40 MLOAD PUSH2 0x312 SWAP2 SWAP1 PUSH2 0x40C3 JUMP JUMPDEST PUSH1 0x40 MLOAD DUP1 SWAP2 SUB SWAP1 RETURN JUMPDEST CALLVALUE DUP1 ISZERO PUSH2 0x327 JUMPI PUSH1 0x0 DUP1 REVERT JUMPDEST POP PUSH2 0x342 PUSH1 0x4 DUP1 CALLDATASIZE SUB PUSH2 0x33D SWAP2 SWAP1 DUP2 ADD SWAP1 PUSH2 0x3BA4 JUMP JUMPDEST PUSH2 0xF37 JUMP JUMPDEST PUSH1 0x40 MLOAD PUSH2 0x350 SWAP3 SWAP2 SWAP1 PUSH2 0x4456 JUMP JUMPDEST PUSH1 0x40 MLOAD DUP1 SWAP2 SUB SWAP1 RETURN JUMPDEST CALLVALUE DUP1 ISZERO PUSH2 0x365 JUMPI PUSH1 0x0 DUP1 REVERT JUMPDEST POP PUSH2 0x36E PUSH2 0xF71 JUMP JUMPDEST PUSH1 0x40 MLOAD PUSH2 0x37B SWAP2 SWAP1 PUSH2 0x443B JUMP JUMPDEST PUSH1 0x40 MLOAD DUP1 SWAP2 SUB SWAP1 RETURN JUMPDEST CALLVALUE DUP1 ISZERO PUSH2 0x390 JUMPI PUSH1 0x0 DUP1 REVERT JUMPDEST POP PUSH2 0x399 PUSH2 0xF7B JUMP JUMPDEST STOP JUMPDEST CALLVALUE DUP1 ISZERO PUSH2 0x3A7 JUMPI PUSH1 0x0 DUP1 REVERT JUMPDEST POP PUSH2 0x3B0 PUSH2 0x1080 JUMP JUMPDEST PUSH1 0x40 MLOAD PUSH2 0x3BD SWAP2 SWAP1 PUSH2 0x443B JUMP JUMPDEST PUSH1 0x40 MLOAD DUP1 SWAP2 SUB SWAP1 RETURN JUMPDEST CALLVALUE DUP1 ISZERO PUSH2 0x3D2 JUMPI PUSH1 0x0 DUP1 REVERT JUMPDEST POP PUSH2 0x3DB PUSH2 0x109D JUMP JUMPDEST STOP JUMPDEST CALLVALUE DUP1 ISZERO PUSH2 0x3E9 JUMPI PUSH1 0x0 DUP1 REVERT JUMPDEST POP PUSH2 0x3F2 PUSH2 0x1212 JUMP JUMPDEST PUSH1 0x40 MLOAD PUSH2 0x3FF SWAP2 SWAP1 PUSH2 0x40C3 JUMP JUMPDEST PUSH1 0x40 MLOAD DUP1 SWAP2 SUB SWAP1 RETURN JUMPDEST CALLVALUE DUP1 ISZERO PUSH2 0x414 JUMPI PUSH1 0x0 DUP1 REVERT JUMPDEST POP PUSH2 0x42F PUSH1 0x4 DUP1 CALLDATASIZE SUB PUSH2 0x42A SWAP2 SWAP1 DUP2 ADD SWAP1 PUSH2 0x3A35 JUMP JUMPDEST PUSH2 0x1238 JUMP JUMPDEST STOP JUMPDEST CALLVALUE DUP1 ISZERO PUSH2 0x43D JUMPI PUSH1 0x0 DUP1 REVERT JUMPDEST POP PUSH2 0x458 PUSH1 0x4 DUP1 CALLDATASIZE SUB PUSH2 0x453 SWAP2 SWAP1 DUP2 ADD SWAP1 PUSH2 0x39D0 JUMP JUMPDEST PUSH2 0x138F JUMP JUMPDEST PUSH1 0x40 MLOAD PUSH2 0x465 SWAP2 SWAP1 PUSH2 0x443B JUMP JUMPDEST PUSH1 0x40 MLOAD DUP1 SWAP2 SUB SWAP1 RETURN JUMPDEST CALLVALUE DUP1 ISZERO PUSH2 0x47A JUMPI PUSH1 0x0 DUP1 REVERT JUMPDEST POP PUSH2 0x495 PUSH1 0x4 DUP1 CALLDATASIZE SUB PUSH2 0x490 SWAP2 SWAP1 DUP2 ADD SWAP1 PUSH2 0x39D0 JUMP JUMPDEST PUSH2 0x187D JUMP JUMPDEST PUSH1 0x40 MLOAD PUSH2 0x4A3 SWAP3 SWAP2 SWAP1 PUSH2 0x4115 JUMP JUMPDEST PUSH1 0x40 MLOAD DUP1 SWAP2 SUB SWAP1 RETURN JUMPDEST CALLVALUE DUP1 ISZERO PUSH2 0x4B8 JUMPI PUSH1 0x0 DUP1 REVERT JUMPDEST POP PUSH2 0x4D3 PUSH1 0x4 DUP1 CALLDATASIZE SUB PUSH2 0x4CE SWAP2 SWAP1 DUP2 ADD SWAP1 PUSH2 0x3BA4 JUMP JUMPDEST PUSH2 0x18C1 JUMP JUMPDEST PUSH1 0x40 MLOAD PUSH2 0x4E0 SWAP2 SWAP1 PUSH2 0x4283 JUMP JUMPDEST PUSH1 0x40 MLOAD DUP1 SWAP2 SUB SWAP1 RETURN JUMPDEST CALLVALUE DUP1 ISZERO PUSH2 0x4F5 JUMPI PUSH1 0x0 DUP1 REVERT JUMPDEST POP PUSH2 0x510 PUSH1 0x4 DUP1 CALLDATASIZE SUB PUSH2 0x50B SWAP2 SWAP1 DUP2 ADD SWAP1 PUSH2 0x3BA4 JUMP JUMPDEST PUSH2 0x18DE JUMP JUMPDEST PUSH1 0x40 MLOAD PUSH2 0x51D SWAP2 SWAP1 PUSH2 0x443B JUMP JUMPDEST PUSH1 0x40 MLOAD DUP1 SWAP2 SUB SWAP1 RETURN JUMPDEST CALLVALUE DUP1 ISZERO PUSH2 0x532 JUMPI PUSH1 0x0 DUP1 REVERT JUMPDEST POP PUSH2 0x54D PUSH1 0x4 DUP1 CALLDATASIZE SUB PUSH2 0x548 SWAP2 SWAP1 DUP2 ADD SWAP1 PUSH2 0x3BA4 JUMP JUMPDEST PUSH2 0x18FB JUMP JUMPDEST PUSH1 0x40 MLOAD PUSH2 0x55C SWAP4 SWAP3 SWAP2 SWAP1 PUSH2 0x447F JUMP JUMPDEST PUSH1 0x40 MLOAD DUP1 SWAP2 SUB SWAP1 RETURN JUMPDEST CALLVALUE DUP1 ISZERO PUSH2 0x571 JUMPI PUSH1 0x0 DUP1 REVERT JUMPDEST POP PUSH2 0x57A PUSH2 0x1925 JUMP JUMPDEST PUSH1 0x40 MLOAD PUSH2 0x587 SWAP2 SWAP1 PUSH2 0x4420 JUMP JUMPDEST PUSH1 0x40 MLOAD DUP1 SWAP2 SUB SWAP1 RETURN JUMPDEST CALLVALUE DUP1 ISZERO PUSH2 0x59C JUMPI PUSH1 0x0 DUP1 REVERT JUMPDEST POP PUSH2 0x5B7 PUSH1 0x4 DUP1 CALLDATASIZE SUB PUSH2 0x5B2 SWAP2 SWAP1 DUP2 ADD SWAP1 PUSH2 0x3B25 JUMP JUMPDEST PUSH2 0x1947 JUMP JUMPDEST STOP JUMPDEST CALLVALUE DUP1 ISZERO PUSH2 0x5C5 JUMPI PUSH1 0x0 DUP1 REVERT JUMPDEST POP PUSH2 0x5E0 PUSH1 0x4 DUP1 CALLDATASIZE SUB PUSH2 0x5DB SWAP2 SWAP1 DUP2 ADD SWAP1 PUSH2 0x3BA4 JUMP JUMPDEST PUSH2 0x1AFA JUMP JUMPDEST PUSH1 0x40 MLOAD PUSH2 0x5ED SWAP2 SWAP1 PUSH2 0x4223 JUMP JUMPDEST PUSH1 0x40 MLOAD DUP1 SWAP2 SUB SWAP1 RETURN JUMPDEST CALLVALUE DUP1 ISZERO PUSH2 0x602 JUMPI PUSH1 0x0 DUP1 REVERT JUMPDEST POP PUSH2 0x60B PUSH2 0x1D8A JUMP JUMPDEST PUSH1 0x40 MLOAD PUSH2 0x618 SWAP2 SWAP1 PUSH2 0x4201 JUMP JUMPDEST PUSH1 0x40 MLOAD DUP1 SWAP2 SUB SWAP1 RETURN JUMPDEST CALLVALUE DUP1 ISZERO PUSH2 0x62D JUMPI PUSH1 0x0 DUP1 REVERT JUMPDEST POP PUSH2 0x648 PUSH1 0x4 DUP1 CALLDATASIZE SUB PUSH2 0x643 SWAP2 SWAP1 DUP2 ADD SWAP1 PUSH2 0x3BA4 JUMP JUMPDEST PUSH2 0x1DE2 JUMP JUMPDEST PUSH1 0x40 MLOAD PUSH2 0x655 SWAP2 SWAP1 PUSH2 0x4283 JUMP JUMPDEST PUSH1 0x40 MLOAD DUP1 SWAP2 SUB SWAP1 RETURN JUMPDEST CALLVALUE DUP1 ISZERO PUSH2 0x66A JUMPI PUSH1 0x0 DUP1 REVERT JUMPDEST POP PUSH2 0x685 PUSH1 0x4 DUP1 CALLDATASIZE SUB PUSH2 0x680 SWAP2 SWAP1 DUP2 ADD SWAP1 PUSH2 0x39F9 JUMP JUMPDEST PUSH2 0x1E05 JUMP JUMPDEST STOP JUMPDEST CALLVALUE DUP1 ISZERO PUSH2 0x693 JUMPI PUSH1 0x0 DUP1 REVERT JUMPDEST POP PUSH2 0x6AE PUSH1 0x4 DUP1 CALLDATASIZE SUB PUSH2 0x6A9 SWAP2 SWAP1 DUP2 ADD SWAP1 PUSH2 0x39D0 JUMP JUMPDEST PUSH2 0x1EBC JUMP JUMPDEST STOP JUMPDEST CALLVALUE DUP1 ISZERO PUSH2 0x6BC JUMPI PUSH1 0x0 DUP1 REVERT JUMPDEST POP PUSH2 0x6C5 PUSH2 0x1F24 JUMP JUMPDEST PUSH1 0x40 MLOAD PUSH2 0x6D2 SWAP2 SWAP1 PUSH2 0x443B JUMP JUMPDEST PUSH1 0x40 MLOAD DUP1 SWAP2 SUB SWAP1 RETURN JUMPDEST PUSH1 0x0 PUSH2 0x6E6 DUP4 PUSH2 0x1F2A JUMP JUMPDEST PUSH1 0x14 PUSH1 0x0 DUP5 PUSH1 0x0 NOT AND PUSH1 0x0 NOT AND DUP2 MSTORE PUSH1 0x20 ADD SWAP1 DUP2 MSTORE PUSH1 0x20 ADD PUSH1 0x0 KECCAK256 SLOAD SWAP1 POP PUSH1 0x14 PUSH1 0x0 DUP5 PUSH1 0x0 NOT AND PUSH1 0x0 NOT AND DUP2 MSTORE PUSH1 0x20 ADD SWAP1 DUP2 MSTORE PUSH1 0x20 ADD PUSH1 0x0 KECCAK256 PUSH1 0x0 SWAP1 SSTORE PUSH1 0x15 PUSH1 0x0 DUP3 DUP2 MSTORE PUSH1 0x20 ADD SWAP1 DUP2 MSTORE PUSH1 0x20 ADD PUSH1 0x0 KECCAK256 PUSH1 0x1 ADD DUP3 SWAP1 DUP1 PUSH1 0x1 DUP2 SLOAD ADD DUP1 DUP3 SSTORE DUP1 SWAP2 POP POP SWAP1 PUSH1 0x1 DUP3 SUB SWAP1 PUSH1 0x0 MSTORE PUSH1 0x20 PUSH1 0x0 KECCAK256 ADD PUSH1 0x0 SWAP1 SWAP2 SWAP3 SWAP1 SWAP2 SWAP1 SWAP2 POP SSTORE POP PUSH1 0x10 DUP3 SWAP1 DUP1 PUSH1 0x1 DUP2 SLOAD ADD DUP1 DUP3 SSTORE DUP1 SWAP2 POP POP SWAP1 PUSH1 0x1 DUP3 SUB SWAP1 PUSH1 0x0 MSTORE PUSH1 0x20 PUSH1 0x0 KECCAK256 ADD PUSH1 0x0 SWAP1 SWAP2 SWAP3 SWAP1 SWAP2 SWAP1 SWAP2 POP SSTORE POP CALLER PUSH20 0xFFFFFFFFFFFFFFFFFFFFFFFFFFFFFFFFFFFFFFFF AND DUP2 DUP4 PUSH32 0xB51168059C83C860CAF5B830C5D2E64C2172C6FB2FE9F25447D9838E18D93B60 PUSH1 0x40 MLOAD PUSH1 0x40 MLOAD DUP1 SWAP2 SUB SWAP1 LOG4 PUSH2 0x7DD DUP2 PUSH2 0x2049 JUMP JUMPDEST PUSH2 0x7E6 DUP2 PUSH2 0x23B7 JUMP JUMPDEST POP POP POP JUMP JUMPDEST PUSH1 0x11 SLOAD DUP2 JUMP JUMPDEST PUSH2 0x7F9 PUSH2 0x3481 JUMP JUMPDEST PUSH1 0x0 DUP1 PUSH1 0x0 PUSH6 0x5AF3107A4000 SWAP2 POP PUSH1 0x0 SWAP1 POP JUMPDEST PUSH1 0xF DUP1 SLOAD SWAP1 POP DUP2 LT ISZERO PUSH2 0xAC1 JUMPI PUSH2 0x900 PUSH2 0x8D6 PUSH1 0xE DUP4 DUP2 SLOAD DUP2 LT ISZERO ISZERO PUSH2 0x82E JUMPI INVALID JUMPDEST SWAP1 PUSH1 0x0 MSTORE PUSH1 0x20 PUSH1 0x0 KECCAK256 ADD DUP1 SLOAD PUSH1 0x1 DUP2 PUSH1 0x1 AND ISZERO PUSH2 0x100 MUL SUB AND PUSH1 0x2 SWAP1 DIV DUP1 PUSH1 0x1F ADD PUSH1 0x20 DUP1 SWAP2 DIV MUL PUSH1 0x20 ADD PUSH1 0x40 MLOAD SWAP1 DUP2 ADD PUSH1 0x40 MSTORE DUP1 SWAP3 SWAP2 SWAP1 DUP2 DUP2 MSTORE PUSH1 0x20 ADD DUP3 DUP1 SLOAD PUSH1 0x1 DUP2 PUSH1 0x1 AND ISZERO PUSH2 0x100 MUL SUB AND PUSH1 0x2 SWAP1 DIV DUP1 ISZERO PUSH2 0x8CC JUMPI DUP1 PUSH1 0x1F LT PUSH2 0x8A1 JUMPI PUSH2 0x100 DUP1 DUP4 SLOAD DIV MUL DUP4 MSTORE SWAP2 PUSH1 0x20 ADD SWAP2 PUSH2 0x8CC JUMP JUMPDEST DUP3 ADD SWAP2 SWAP1 PUSH1 0x0 MSTORE PUSH1 0x20 PUSH1 0x0 KECCAK256 SWAP1 JUMPDEST DUP2 SLOAD DUP2 MSTORE SWAP1 PUSH1 0x1 ADD SWAP1 PUSH1 0x20 ADD DUP1 DUP4 GT PUSH2 0x8AF JUMPI DUP3 SWAP1 SUB PUSH1 0x1F AND DUP3 ADD SWAP2 JUMPDEST POP POP POP POP POP PUSH2 0x248E JUMP JUMPDEST ADDRESS PUSH4 0x172E145 PUSH29 0x100000000000000000000000000000000000000000000000000000000 MUL PUSH2 0x24B9 JUMP JUMPDEST SWAP4 POP PUSH2 0x981 PUSH1 0x40 DUP1 MLOAD SWAP1 DUP2 ADD PUSH1 0x40 MSTORE DUP1 PUSH1 0x6 DUP2 MSTORE PUSH1 0x20 ADD PUSH32 0x5F6673796D730000000000000000000000000000000000000000000000000000 DUP2 MSTORE POP PUSH1 0x40 DUP1 MLOAD SWAP1 DUP2 ADD PUSH1 0x40 MSTORE DUP1 PUSH1 0x3 DUP2 MSTORE PUSH1 0x20 ADD PUSH32 0x5844430000000000000000000000000000000000000000000000000000000000 DUP2 MSTORE POP DUP7 PUSH2 0x24EA SWAP1 SWAP3 SWAP2 SWAP1 PUSH4 0xFFFFFFFF AND JUMP JUMPDEST PUSH2 0xA00 PUSH1 0x40 DUP1 MLOAD SWAP1 DUP2 ADD PUSH1 0x40 MSTORE DUP1 PUSH1 0x6 DUP2 MSTORE PUSH1 0x20 ADD PUSH32 0x5F7473796D730000000000000000000000000000000000000000000000000000 DUP2 MSTORE POP PUSH1 0x40 DUP1 MLOAD SWAP1 DUP2 ADD PUSH1 0x40 MSTORE DUP1 PUSH1 0x4 DUP2 MSTORE PUSH1 0x20 ADD PUSH32 0x5553445400000000000000000000000000000000000000000000000000000000 DUP2 MSTORE POP DUP7 PUSH2 0x24EA SWAP1 SWAP3 SWAP2 SWAP1 PUSH4 0xFFFFFFFF AND JUMP JUMPDEST PUSH2 0xA4C PUSH1 0x40 DUP1 MLOAD SWAP1 DUP2 ADD PUSH1 0x40 MSTORE DUP1 PUSH1 0x5 DUP2 MSTORE PUSH1 0x20 ADD PUSH32 0x74696D6573000000000000000000000000000000000000000000000000000000 DUP2 MSTORE POP PUSH2 0x2710 DUP7 PUSH2 0x251D SWAP1 SWAP3 SWAP2 SWAP1 PUSH4 0xFFFFFFFF AND JUMP JUMPDEST PUSH2 0xA90 PUSH1 0xF DUP3 DUP2 SLOAD DUP2 LT ISZERO ISZERO PUSH2 0xA5E JUMPI INVALID JUMPDEST SWAP1 PUSH1 0x0 MSTORE PUSH1 0x20 PUSH1 0x0 KECCAK256 ADD PUSH1 0x0 SWAP1 SLOAD SWAP1 PUSH2 0x100 EXP SWAP1 DIV PUSH20 0xFFFFFFFFFFFFFFFFFFFFFFFFFFFFFFFFFFFFFFFF AND DUP6 DUP5 PUSH2 0x2550 JUMP JUMPDEST SWAP3 POP PUSH1 0x12 SLOAD PUSH1 0x14 PUSH1 0x0 DUP6 PUSH1 0x0 NOT AND PUSH1 0x0 NOT AND DUP2 MSTORE PUSH1 0x20 ADD SWAP1 DUP2 MSTORE PUSH1 0x20 ADD PUSH1 0x0 KECCAK256 DUP2 SWAP1 SSTORE POP DUP1 DUP1 PUSH1 0x1 ADD SWAP2 POP POP PUSH2 0x80C JUMP JUMPDEST PUSH1 0xD PUSH1 0x10 SWAP1 SLOAD SWAP1 PUSH2 0x100 EXP SWAP1 DIV PUSH16 0xFFFFFFFFFFFFFFFFFFFFFFFFFFFFFFFF AND PUSH1 0x15 PUSH1 0x0 PUSH1 0x12 SLOAD DUP2 MSTORE PUSH1 0x20 ADD SWAP1 DUP2 MSTORE PUSH1 0x20 ADD PUSH1 0x0 KECCAK256 PUSH1 0x0 ADD PUSH1 0x0 PUSH2 0x100 EXP DUP2 SLOAD DUP2 PUSH16 0xFFFFFFFFFFFFFFFFFFFFFFFFFFFFFFFF MUL NOT AND SWAP1 DUP4 PUSH16 0xFFFFFFFFFFFFFFFFFFFFFFFFFFFFFFFF AND MUL OR SWAP1 SSTORE POP PUSH1 0xF DUP1 SLOAD SWAP1 POP PUSH1 0x15 PUSH1 0x0 PUSH1 0x12 SLOAD DUP2 MSTORE PUSH1 0x20 ADD SWAP1 DUP2 MSTORE PUSH1 0x20 ADD PUSH1 0x0 KECCAK256 PUSH1 0x0 ADD PUSH1 0x10 PUSH2 0x100 EXP DUP2 SLOAD DUP2 PUSH16 0xFFFFFFFFFFFFFFFFFFFFFFFFFFFFFFFF MUL NOT AND SWAP1 DUP4 PUSH16 0xFFFFFFFFFFFFFFFFFFFFFFFFFFFFFFFF AND MUL OR SWAP1 SSTORE POP CALLER PUSH20 0xFFFFFFFFFFFFFFFFFFFFFFFFFFFFFFFFFFFFFFFF AND PUSH1 0x12 SLOAD PUSH32 0x109FC6F55CF40689F02FBAAD7AF7FE7BBAC8A3D2186600AFC7D3E10CAC60271 TIMESTAMP PUSH1 0x40 MLOAD PUSH2 0xBCB SWAP2 SWAP1 PUSH2 0x443B JUMP JUMPDEST PUSH1 0x40 MLOAD DUP1 SWAP2 SUB SWAP1 LOG3 PUSH2 0xBE9 PUSH1 0x1 PUSH1 0x12 SLOAD PUSH2 0x27E3 SWAP1 SWAP2 SWAP1 PUSH4 0xFFFFFFFF AND JUMP JUMPDEST PUSH1 0x12 DUP2 SWAP1 SSTORE POP POP POP POP POP JUMP JUMPDEST PUSH1 0x0 PUSH1 0x13 PUSH1 0x0 CALLER PUSH20 0xFFFFFFFFFFFFFFFFFFFFFFFFFFFFFFFFFFFFFFFF AND PUSH20 0xFFFFFFFFFFFFFFFFFFFFFFFFFFFFFFFFFFFFFFFF AND DUP2 MSTORE PUSH1 0x20 ADD SWAP1 DUP2 MSTORE PUSH1 0x20 ADD PUSH1 0x0 KECCAK256 PUSH1 0x0 SWAP1 SLOAD SWAP1 PUSH2 0x100 EXP SWAP1 DIV PUSH1 0xFF AND DUP1 PUSH2 0xC9C JUMPI POP PUSH1 0x6 PUSH1 0x0 SWAP1 SLOAD SWAP1 PUSH2 0x100 EXP SWAP1 DIV PUSH20 0xFFFFFFFFFFFFFFFFFFFFFFFFFFFFFFFFFFFFFFFF AND PUSH20 0xFFFFFFFFFFFFFFFFFFFFFFFFFFFFFFFFFFFFFFFF AND CALLER PUSH20 0xFFFFFFFFFFFFFFFFFFFFFFFFFFFFFFFFFFFFFFFF AND EQ JUMPDEST ISZERO ISZERO PUSH2 0xCDD JUMPI PUSH1 0x40 MLOAD PUSH32 0x8C379A000000000000000000000000000000000000000000000000000000000 DUP2 MSTORE PUSH1 0x4 ADD PUSH2 0xCD4 SWAP1 PUSH2 0x42C0 JUMP JUMPDEST PUSH1 0x40 MLOAD DUP1 SWAP2 SUB SWAP1 REVERT JUMPDEST PUSH1 0x14 PUSH1 0x0 DUP6 PUSH1 0x0 NOT AND PUSH1 0x0 NOT AND DUP2 MSTORE PUSH1 0x20 ADD SWAP1 DUP2 MSTORE PUSH1 0x20 ADD PUSH1 0x0 KECCAK256 SLOAD SWAP1 POP PUSH1 0xC SLOAD DUP2 LT ISZERO ISZERO PUSH2 0xD41 JUMPI PUSH1 0x40 MLOAD PUSH32 0x8C379A000000000000000000000000000000000000000000000000000000000 DUP2 MSTORE PUSH1 0x4 ADD PUSH2 0xD38 SWAP1 PUSH2 0x4340 JUMP JUMPDEST PUSH1 0x40 MLOAD DUP1 SWAP2 SUB SWAP1 REVERT JUMPDEST PUSH1 0x14 PUSH1 0x0 DUP6 PUSH1 0x0 NOT AND PUSH1 0x0 NOT AND DUP2 MSTORE PUSH1 0x20 ADD SWAP1 DUP2 MSTORE PUSH1 0x20 ADD PUSH1 0x0 KECCAK256 PUSH1 0x0 SWAP1 SSTORE PUSH1 0x15 PUSH1 0x0 DUP3 DUP2 MSTORE PUSH1 0x20 ADD SWAP1 DUP2 MSTORE PUSH1 0x20 ADD PUSH1 0x0 KECCAK256 PUSH1 0x1 ADD PUSH1 0x0 SWAP1 DUP1 PUSH1 0x1 DUP2 SLOAD ADD DUP1 DUP3 SSTORE DUP1 SWAP2 POP POP SWAP1 PUSH1 0x1 DUP3 SUB SWAP1 PUSH1 0x0 MSTORE PUSH1 0x20 PUSH1 0x0 KECCAK256 ADD PUSH1 0x0 SWAP1 SWAP2 SWAP3 SWAP1 SWAP2 SWAP1 SWAP2 POP SSTORE POP PUSH2 0xDAA DUP2 PUSH2 0x23B7 JUMP JUMPDEST PUSH2 0xDD9 DUP5 DUP5 PUSH4 0x172E145 PUSH29 0x100000000000000000000000000000000000000000000000000000000 MUL DUP6 PUSH2 0x27FF JUMP JUMPDEST POP POP POP POP JUMP JUMPDEST PUSH1 0x13 PUSH1 0x20 MSTORE DUP1 PUSH1 0x0 MSTORE PUSH1 0x40 PUSH1 0x0 KECCAK256 PUSH1 0x0 SWAP2 POP SLOAD SWAP1 PUSH2 0x100 EXP SWAP1 DIV PUSH1 0xFF AND DUP2 JUMP JUMPDEST PUSH1 0xE DUP2 DUP2 SLOAD DUP2 LT ISZERO ISZERO PUSH2 0xE0E JUMPI INVALID JUMPDEST SWAP1 PUSH1 0x0 MSTORE PUSH1 0x20 PUSH1 0x0 KECCAK256 ADD PUSH1 0x0 SWAP2 POP SWAP1 POP DUP1 SLOAD PUSH1 0x1 DUP2 PUSH1 0x1 AND ISZERO PUSH2 0x100 MUL SUB AND PUSH1 0x2 SWAP1 DIV DUP1 PUSH1 0x1F ADD PUSH1 0x20 DUP1 SWAP2 DIV MUL PUSH1 0x20 ADD PUSH1 0x40 MLOAD SWAP1 DUP2 ADD PUSH1 0x40 MSTORE DUP1 SWAP3 SWAP2 SWAP1 DUP2 DUP2 MSTORE PUSH1 0x20 ADD DUP3 DUP1 SLOAD PUSH1 0x1 DUP2 PUSH1 0x1 AND ISZERO PUSH2 0x100 MUL SUB AND PUSH1 0x2 SWAP1 DIV DUP1 ISZERO PUSH2 0xEB2 JUMPI DUP1 PUSH1 0x1F LT PUSH2 0xE87 JUMPI PUSH2 0x100 DUP1 DUP4 SLOAD DIV MUL DUP4 MSTORE SWAP2 PUSH1 0x20 ADD SWAP2 PUSH2 0xEB2 JUMP JUMPDEST DUP3 ADD SWAP2 SWAP1 PUSH1 0x0 MSTORE PUSH1 0x20 PUSH1 0x0 KECCAK256 SWAP1 JUMPDEST DUP2 SLOAD DUP2 MSTORE SWAP1 PUSH1 0x1 ADD SWAP1 PUSH1 0x20 ADD DUP1 DUP4 GT PUSH2 0xE95 JUMPI DUP3 SWAP1 SUB PUSH1 0x1F AND DUP3 ADD SWAP2 JUMPDEST POP POP POP POP POP DUP2 JUMP JUMPDEST PUSH1 0x0 PUSH1 0x16 PUSH1 0x0 PUSH1 0xC SLOAD DUP2 MSTORE PUSH1 0x20 ADD SWAP1 DUP2 MSTORE PUSH1 0x20 ADD PUSH1 0x0 KECCAK256 SLOAD SWAP1 POP SWAP1 JUMP JUMPDEST PUSH1 0xD PUSH1 0x10 SWAP1 SLOAD SWAP1 PUSH2 0x100 EXP SWAP1 DIV PUSH16 0xFFFFFFFFFFFFFFFFFFFFFFFFFFFFFFFF AND DUP2 JUMP JUMPDEST PUSH1 0xF DUP2 DUP2 SLOAD DUP2 LT ISZERO ISZERO PUSH2 0xF08 JUMPI INVALID JUMPDEST SWAP1 PUSH1 0x0 MSTORE PUSH1 0x20 PUSH1 0x0 KECCAK256 ADD PUSH1 0x0 SWAP2 POP SLOAD SWAP1 PUSH2 0x100 EXP SWAP1 DIV PUSH20 0xFFFFFFFFFFFFFFFFFFFFFFFFFFFFFFFFFFFFFFFF AND DUP2 JUMP JUMPDEST PUSH1 0x0 DUP1 PUSH1 0x8 PUSH1 0x0 DUP5 DUP2 MSTORE PUSH1 0x20 ADD SWAP1 DUP2 MSTORE PUSH1 0x20 ADD PUSH1 0x0 KECCAK256 PUSH1 0x1 ADD SLOAD PUSH1 0x8 PUSH1 0x0 DUP6 DUP2 MSTORE PUSH1 0x20 ADD SWAP1 DUP2 MSTORE PUSH1 0x20 ADD PUSH1 0x0 KECCAK256 PUSH1 0x2 ADD SLOAD SWAP2 POP SWAP2 POP SWAP2 POP SWAP2 JUMP JUMPDEST PUSH1 0x0 PUSH1 0xC SLOAD SWAP1 POP SWAP1 JUMP JUMPDEST PUSH1 0x6 PUSH1 0x0 SWAP1 SLOAD SWAP1 PUSH2 0x100 EXP SWAP1 DIV PUSH20 0xFFFFFFFFFFFFFFFFFFFFFFFFFFFFFFFFFFFFFFFF AND PUSH20 0xFFFFFFFFFFFFFFFFFFFFFFFFFFFFFFFFFFFFFFFF AND CALLER PUSH20 0xFFFFFFFFFFFFFFFFFFFFFFFFFFFFFFFFFFFFFFFF AND EQ ISZERO ISZERO PUSH2 0xFD7 JUMPI PUSH1 0x0 DUP1 REVERT JUMPDEST PUSH1 0x6 PUSH1 0x0 SWAP1 SLOAD SWAP1 PUSH2 0x100 EXP SWAP1 DIV PUSH20 0xFFFFFFFFFFFFFFFFFFFFFFFFFFFFFFFFFFFFFFFF AND PUSH20 0xFFFFFFFFFFFFFFFFFFFFFFFFFFFFFFFFFFFFFFFF AND PUSH32 0xF8DF31144D9C2F0F6B59D69B8B98ABD5459D07F2742C4DF920B25AAE33C64820 PUSH1 0x40 MLOAD PUSH1 0x40 MLOAD DUP1 SWAP2 SUB SWAP1 LOG2 PUSH1 0x0 PUSH1 0x6 PUSH1 0x0 PUSH2 0x100 EXP DUP2 SLOAD DUP2 PUSH20 0xFFFFFFFFFFFFFFFFFFFFFFFFFFFFFFFFFFFFFFFF MUL NOT AND SWAP1 DUP4 PUSH20 0xFFFFFFFFFFFFFFFFFFFFFFFFFFFFFFFFFFFFFFFF AND MUL OR SWAP1 SSTORE POP JUMP JUMPDEST PUSH1 0x0 PUSH1 0x17 PUSH1 0x0 PUSH1 0xC SLOAD DUP2 MSTORE PUSH1 0x20 ADD SWAP1 DUP2 MSTORE PUSH1 0x20 ADD PUSH1 0x0 KECCAK256 SLOAD SWAP1 POP SWAP1 JUMP JUMPDEST PUSH1 0x0 PUSH1 0x6 PUSH1 0x0 SWAP1 SLOAD SWAP1 PUSH2 0x100 EXP SWAP1 DIV PUSH20 0xFFFFFFFFFFFFFFFFFFFFFFFFFFFFFFFFFFFFFFFF AND PUSH20 0xFFFFFFFFFFFFFFFFFFFFFFFFFFFFFFFFFFFFFFFF AND CALLER PUSH20 0xFFFFFFFFFFFFFFFFFFFFFFFFFFFFFFFFFFFFFFFF AND EQ ISZERO ISZERO PUSH2 0x10FB JUMPI PUSH1 0x0 DUP1 REVERT JUMPDEST PUSH2 0x1103 PUSH2 0x2942 JUMP JUMPDEST SWAP1 POP PUSH2 0x11D7 PUSH1 0x6 PUSH1 0x0 SWAP1 SLOAD SWAP1 PUSH2 0x100 EXP SWAP1 DIV PUSH20 0xFFFFFFFFFFFFFFFFFFFFFFFFFFFFFFFFFFFFFFFF AND DUP3 PUSH20 0xFFFFFFFFFFFFFFFFFFFFFFFFFFFFFFFFFFFFFFFF AND PUSH4 0x70A08231 ADDRESS PUSH1 0x40 MLOAD DUP3 PUSH4 0xFFFFFFFF AND PUSH29 0x100000000000000000000000000000000000000000000000000000000 MUL DUP2 MSTORE PUSH1 0x4 ADD PUSH2 0x1180 SWAP2 SWAP1 PUSH2 0x40C3 JUMP JUMPDEST PUSH1 0x20 PUSH1 0x40 MLOAD DUP1 DUP4 SUB DUP2 PUSH1 0x0 DUP8 DUP1 EXTCODESIZE ISZERO DUP1 ISZERO PUSH2 0x119A JUMPI PUSH1 0x0 DUP1 REVERT JUMPDEST POP GAS CALL ISZERO DUP1 ISZERO PUSH2 0x11AE JUMPI RETURNDATASIZE PUSH1 0x0 DUP1 RETURNDATACOPY RETURNDATASIZE PUSH1 0x0 REVERT JUMPDEST POP POP POP POP PUSH1 0x40 MLOAD RETURNDATASIZE PUSH1 0x1F NOT PUSH1 0x1F DUP3 ADD AND DUP3 ADD DUP1 PUSH1 0x40 MSTORE POP PUSH2 0x11D2 SWAP2 SWAP1 DUP2 ADD SWAP1 PUSH2 0x3BCD JUMP JUMPDEST PUSH2 0x1238 JUMP JUMPDEST PUSH1 0x6 PUSH1 0x0 SWAP1 SLOAD SWAP1 PUSH2 0x100 EXP SWAP1 DIV PUSH20 0xFFFFFFFFFFFFFFFFFFFFFFFFFFFFFFFFFFFFFFFF AND PUSH20 0xFFFFFFFFFFFFFFFFFFFFFFFFFFFFFFFFFFFFFFFF AND SELFDESTRUCT JUMPDEST PUSH1 0x6 PUSH1 0x0 SWAP1 SLOAD SWAP1 PUSH2 0x100 EXP SWAP1 DIV PUSH20 0xFFFFFFFFFFFFFFFFFFFFFFFFFFFFFFFFFFFFFFFF AND DUP2 JUMP JUMPDEST PUSH1 0x0 PUSH1 0x6 PUSH1 0x0 SWAP1 SLOAD SWAP1 PUSH2 0x100 EXP SWAP1 DIV PUSH20 0xFFFFFFFFFFFFFFFFFFFFFFFFFFFFFFFFFFFFFFFF AND PUSH20 0xFFFFFFFFFFFFFFFFFFFFFFFFFFFFFFFFFFFFFFFF AND CALLER PUSH20 0xFFFFFFFFFFFFFFFFFFFFFFFFFFFFFFFFFFFFFFFF AND EQ ISZERO ISZERO PUSH2 0x1296 JUMPI PUSH1 0x0 DUP1 REVERT JUMPDEST PUSH2 0x129E PUSH2 0x2942 JUMP JUMPDEST SWAP1 POP DUP1 PUSH20 0xFFFFFFFFFFFFFFFFFFFFFFFFFFFFFFFFFFFFFFFF AND PUSH4 0xA9059CBB DUP5 DUP5 PUSH1 0x40 MLOAD DUP4 PUSH4 0xFFFFFFFF AND PUSH29 0x100000000000000000000000000000000000000000000000000000000 MUL DUP2 MSTORE PUSH1 0x4 ADD PUSH2 0x12F7 SWAP3 SWAP2 SWAP1 PUSH2 0x4115 JUMP JUMPDEST PUSH1 0x20 PUSH1 0x40 MLOAD DUP1 DUP4 SUB DUP2 PUSH1 0x0 DUP8 DUP1 EXTCODESIZE ISZERO DUP1 ISZERO PUSH2 0x1311 JUMPI PUSH1 0x0 DUP1 REVERT JUMPDEST POP GAS CALL ISZERO DUP1 ISZERO PUSH2 0x1325 JUMPI RETURNDATASIZE PUSH1 0x0 DUP1 RETURNDATACOPY RETURNDATASIZE PUSH1 0x0 REVERT JUMPDEST POP POP POP POP PUSH1 0x40 MLOAD RETURNDATASIZE PUSH1 0x1F NOT PUSH1 0x1F DUP3 ADD AND DUP3 ADD DUP1 PUSH1 0x40 MSTORE POP PUSH2 0x1349 SWAP2 SWAP1 DUP2 ADD SWAP1 PUSH2 0x3A71 JUMP JUMPDEST ISZERO ISZERO PUSH2 0x138A JUMPI PUSH1 0x40 MLOAD PUSH32 0x8C379A000000000000000000000000000000000000000000000000000000000 DUP2 MSTORE PUSH1 0x4 ADD PUSH2 0x1381 SWAP1 PUSH2 0x43A0 JUMP JUMPDEST PUSH1 0x40 MLOAD DUP1 SWAP2 SUB SWAP1 REVERT JUMPDEST POP POP POP JUMP JUMPDEST PUSH1 0x0 DUP1 PUSH2 0x139A PUSH2 0x3481 JUMP JUMPDEST PUSH1 0x0 DUP1 PUSH1 0x0 PUSH1 0x7 SLOAD SWAP6 POP PUSH1 0x9 PUSH1 0x0 DUP9 PUSH20 0xFFFFFFFFFFFFFFFFFFFFFFFFFFFFFFFFFFFFFFFF AND PUSH20 0xFFFFFFFFFFFFFFFFFFFFFFFFFFFFFFFFFFFFFFFF AND DUP2 MSTORE PUSH1 0x20 ADD SWAP1 DUP2 MSTORE PUSH1 0x20 ADD PUSH1 0x0 KECCAK256 PUSH1 0x1 ADD SLOAD SWAP5 POP PUSH6 0x5AF3107A4000 DUP6 GT ISZERO ISZERO PUSH2 0x1433 JUMPI PUSH1 0x40 MLOAD PUSH32 0x8C379A000000000000000000000000000000000000000000000000000000000 DUP2 MSTORE PUSH1 0x4 ADD PUSH2 0x142A SWAP1 PUSH2 0x43C0 JUMP JUMPDEST PUSH1 0x40 MLOAD DUP1 SWAP2 SUB SWAP1 REVERT JUMPDEST PUSH6 0x5AF3107A4000 DUP6 SUB PUSH1 0x9 PUSH1 0x0 DUP10 PUSH20 0xFFFFFFFFFFFFFFFFFFFFFFFFFFFFFFFFFFFFFFFF AND PUSH20 0xFFFFFFFFFFFFFFFFFFFFFFFFFFFFFFFFFFFFFFFF AND DUP2 MSTORE PUSH1 0x20 ADD SWAP1 DUP2 MSTORE PUSH1 0x20 ADD PUSH1 0x0 KECCAK256 PUSH1 0x1 ADD DUP2 SWAP1 SSTORE POP PUSH6 0x5AF3107A4000 SWAP2 POP PUSH1 0x0 SWAP1 POP JUMPDEST PUSH1 0xF DUP1 SLOAD SWAP1 POP DUP2 LT ISZERO PUSH2 0x1745 JUMPI PUSH2 0x1584 PUSH2 0x155A PUSH1 0xE DUP4 DUP2 SLOAD DUP2 LT ISZERO ISZERO PUSH2 0x14B2 JUMPI INVALID JUMPDEST SWAP1 PUSH1 0x0 MSTORE PUSH1 0x20 PUSH1 0x0 KECCAK256 ADD DUP1 SLOAD PUSH1 0x1 DUP2 PUSH1 0x1 AND ISZERO PUSH2 0x100 MUL SUB AND PUSH1 0x2 SWAP1 DIV DUP1 PUSH1 0x1F ADD PUSH1 0x20 DUP1 SWAP2 DIV MUL PUSH1 0x20 ADD PUSH1 0x40 MLOAD SWAP1 DUP2 ADD PUSH1 0x40 MSTORE DUP1 SWAP3 SWAP2 SWAP1 DUP2 DUP2 MSTORE PUSH1 0x20 ADD DUP3 DUP1 SLOAD PUSH1 0x1 DUP2 PUSH1 0x1 AND ISZERO PUSH2 0x100 MUL SUB AND PUSH1 0x2 SWAP1 DIV DUP1 ISZERO PUSH2 0x1550 JUMPI DUP1 PUSH1 0x1F LT PUSH2 0x1525 JUMPI PUSH2 0x100 DUP1 DUP4 SLOAD DIV MUL DUP4 MSTORE SWAP2 PUSH1 0x20 ADD SWAP2 PUSH2 0x1550 JUMP JUMPDEST DUP3 ADD SWAP2 SWAP1 PUSH1 0x0 MSTORE PUSH1 0x20 PUSH1 0x0 KECCAK256 SWAP1 JUMPDEST DUP2 SLOAD DUP2 MSTORE SWAP1 PUSH1 0x1 ADD SWAP1 PUSH1 0x20 ADD DUP1 DUP4 GT PUSH2 0x1533 JUMPI DUP3 SWAP1 SUB PUSH1 0x1F AND DUP3 ADD SWAP2 JUMPDEST POP POP POP POP POP PUSH2 0x248E JUMP JUMPDEST ADDRESS PUSH4 0x172E145 PUSH29 0x100000000000000000000000000000000000000000000000000000000 MUL PUSH2 0x24B9 JUMP JUMPDEST SWAP4 POP PUSH2 0x1605 PUSH1 0x40 DUP1 MLOAD SWAP1 DUP2 ADD PUSH1 0x40 MSTORE DUP1 PUSH1 0x6 DUP2 MSTORE PUSH1 0x20 ADD PUSH32 0x5F6673796D730000000000000000000000000000000000000000000000000000 DUP2 MSTORE POP PUSH1 0x40 DUP1 MLOAD SWAP1 DUP2 ADD PUSH1 0x40 MSTORE DUP1 PUSH1 0x3 DUP2 MSTORE PUSH1 0x20 ADD PUSH32 0x5844430000000000000000000000000000000000000000000000000000000000 DUP2 MSTORE POP DUP7 PUSH2 0x24EA SWAP1 SWAP3 SWAP2 SWAP1 PUSH4 0xFFFFFFFF AND JUMP JUMPDEST PUSH2 0x1684 PUSH1 0x40 DUP1 MLOAD SWAP1 DUP2 ADD PUSH1 0x40 MSTORE DUP1 PUSH1 0x6 DUP2 MSTORE PUSH1 0x20 ADD PUSH32 0x5F7473796D730000000000000000000000000000000000000000000000000000 DUP2 MSTORE POP PUSH1 0x40 DUP1 MLOAD SWAP1 DUP2 ADD PUSH1 0x40 MSTORE DUP1 PUSH1 0x4 DUP2 MSTORE PUSH1 0x20 ADD PUSH32 0x5553445400000000000000000000000000000000000000000000000000000000 DUP2 MSTORE POP DUP7 PUSH2 0x24EA SWAP1 SWAP3 SWAP2 SWAP1 PUSH4 0xFFFFFFFF AND JUMP JUMPDEST PUSH2 0x16D0 PUSH1 0x40 DUP1 MLOAD SWAP1 DUP2 ADD PUSH1 0x40 MSTORE DUP1 PUSH1 0x5 DUP2 MSTORE PUSH1 0x20 ADD PUSH32 0x74696D6573000000000000000000000000000000000000000000000000000000 DUP2 MSTORE POP PUSH2 0x2710 DUP7 PUSH2 0x251D SWAP1 SWAP3 SWAP2 SWAP1 PUSH4 0xFFFFFFFF AND JUMP JUMPDEST PUSH2 0x1714 PUSH1 0xF DUP3 DUP2 SLOAD DUP2 LT ISZERO ISZERO PUSH2 0x16E2 JUMPI INVALID JUMPDEST SWAP1 PUSH1 0x0 MSTORE PUSH1 0x20 PUSH1 0x0 KECCAK256 ADD PUSH1 0x0 SWAP1 SLOAD SWAP1 PUSH2 0x100 EXP SWAP1 DIV PUSH20 0xFFFFFFFFFFFFFFFFFFFFFFFFFFFFFFFFFFFFFFFF AND DUP6 DUP5 PUSH2 0x2550 JUMP JUMPDEST SWAP3 POP PUSH1 0x12 SLOAD PUSH1 0x14 PUSH1 0x0 DUP6 PUSH1 0x0 NOT AND PUSH1 0x0 NOT AND DUP2 MSTORE PUSH1 0x20 ADD SWAP1 DUP2 MSTORE PUSH1 0x20 ADD PUSH1 0x0 KECCAK256 DUP2 SWAP1 SSTORE POP DUP1 DUP1 PUSH1 0x1 ADD SWAP2 POP POP PUSH2 0x1490 JUMP JUMPDEST PUSH1 0xD PUSH1 0x10 SWAP1 SLOAD SWAP1 PUSH2 0x100 EXP SWAP1 DIV PUSH16 0xFFFFFFFFFFFFFFFFFFFFFFFFFFFFFFFF AND PUSH1 0x15 PUSH1 0x0 PUSH1 0x12 SLOAD DUP2 MSTORE PUSH1 0x20 ADD SWAP1 DUP2 MSTORE PUSH1 0x20 ADD PUSH1 0x0 KECCAK256 PUSH1 0x0 ADD PUSH1 0x0 PUSH2 0x100 EXP DUP2 SLOAD DUP2 PUSH16 0xFFFFFFFFFFFFFFFFFFFFFFFFFFFFFFFF MUL NOT AND SWAP1 DUP4 PUSH16 0xFFFFFFFFFFFFFFFFFFFFFFFFFFFFFFFF AND MUL OR SWAP1 SSTORE POP PUSH1 0xF DUP1 SLOAD SWAP1 POP PUSH1 0x15 PUSH1 0x0 PUSH1 0x12 SLOAD DUP2 MSTORE PUSH1 0x20 ADD SWAP1 DUP2 MSTORE PUSH1 0x20 ADD PUSH1 0x0 KECCAK256 PUSH1 0x0 ADD PUSH1 0x10 PUSH2 0x100 EXP DUP2 SLOAD DUP2 PUSH16 0xFFFFFFFFFFFFFFFFFFFFFFFFFFFFFFFF MUL NOT AND SWAP1 DUP4 PUSH16 0xFFFFFFFFFFFFFFFFFFFFFFFFFFFFFFFF AND MUL OR SWAP1 SSTORE POP CALLER PUSH20 0xFFFFFFFFFFFFFFFFFFFFFFFFFFFFFFFFFFFFFFFF AND PUSH1 0x12 SLOAD PUSH32 0x109FC6F55CF40689F02FBAAD7AF7FE7BBAC8A3D2186600AFC7D3E10CAC60271 TIMESTAMP PUSH1 0x40 MLOAD PUSH2 0x184F SWAP2 SWAP1 PUSH2 0x443B JUMP JUMPDEST PUSH1 0x40 MLOAD DUP1 SWAP2 SUB SWAP1 LOG3 PUSH2 0x186D PUSH1 0x1 PUSH1 0x12 SLOAD PUSH2 0x27E3 SWAP1 SWAP2 SWAP1 PUSH4 0xFFFFFFFF AND JUMP JUMPDEST PUSH1 0x12 DUP2 SWAP1 SSTORE POP POP POP POP POP POP SWAP2 SWAP1 POP JUMP JUMPDEST PUSH1 0x9 PUSH1 0x20 MSTORE DUP1 PUSH1 0x0 MSTORE PUSH1 0x40 PUSH1 0x0 KECCAK256 PUSH1 0x0 SWAP2 POP SWAP1 POP DUP1 PUSH1 0x0 ADD PUSH1 0x0 SWAP1 SLOAD SWAP1 PUSH2 0x100 EXP SWAP1 DIV PUSH20 0xFFFFFFFFFFFFFFFFFFFFFFFFFFFFFFFFFFFFFFFF AND SWAP1 DUP1 PUSH1 0x1 ADD SLOAD SWAP1 POP DUP3 JUMP JUMPDEST PUSH1 0x0 PUSH1 0x16 PUSH1 0x0 DUP4 DUP2 MSTORE PUSH1 0x20 ADD SWAP1 DUP2 MSTORE PUSH1 0x20 ADD PUSH1 0x0 KECCAK256 SLOAD SWAP1 POP SWAP2 SWAP1 POP JUMP JUMPDEST PUSH1 0x0 PUSH1 0x17 PUSH1 0x0 DUP4 DUP2 MSTORE PUSH1 0x20 ADD SWAP1 DUP2 MSTORE PUSH1 0x20 ADD PUSH1 0x0 KECCAK256 SLOAD SWAP1 POP SWAP2 SWAP1 POP JUMP JUMPDEST PUSH1 0x8 PUSH1 0x20 MSTORE DUP1 PUSH1 0x0 MSTORE PUSH1 0x40 PUSH1 0x0 KECCAK256 PUSH1 0x0 SWAP2 POP SWAP1 POP DUP1 PUSH1 0x0 ADD SLOAD SWAP1 DUP1 PUSH1 0x1 ADD SLOAD SWAP1 DUP1 PUSH1 0x2 ADD SLOAD SWAP1 POP DUP4 JUMP JUMPDEST PUSH1 0xD PUSH1 0x0 SWAP1 SLOAD SWAP1 PUSH2 0x100 EXP SWAP1 DIV PUSH16 0xFFFFFFFFFFFFFFFFFFFFFFFFFFFFFFFF AND DUP2 JUMP JUMPDEST PUSH1 0x6 PUSH1 0x0 SWAP1 SLOAD SWAP1 PUSH2 0x100 EXP SWAP1 DIV PUSH20 0xFFFFFFFFFFFFFFFFFFFFFFFFFFFFFFFFFFFFFFFF AND PUSH20 0xFFFFFFFFFFFFFFFFFFFFFFFFFFFFFFFFFFFFFFFF AND CALLER PUSH20 0xFFFFFFFFFFFFFFFFFFFFFFFFFFFFFFFFFFFFFFFF AND EQ ISZERO ISZERO PUSH2 0x19A3 JUMPI PUSH1 0x0 DUP1 REVERT JUMPDEST DUP3 PUSH16 0xFFFFFFFFFFFFFFFFFFFFFFFFFFFFFFFF AND DUP3 DUP3 PUSH1 0x1C DUP3 MLOAD GT ISZERO ISZERO ISZERO PUSH2 0x19FF JUMPI PUSH1 0x40 MLOAD PUSH32 0x8C379A000000000000000000000000000000000000000000000000000000000 DUP2 MSTORE PUSH1 0x4 ADD PUSH2 0x19F6 SWAP1 PUSH2 0x4360 JUMP JUMPDEST PUSH1 0x40 MLOAD DUP1 SWAP2 SUB SWAP1 REVERT JUMPDEST DUP3 DUP3 MLOAD LT ISZERO ISZERO ISZERO PUSH2 0x1A45 JUMPI PUSH1 0x40 MLOAD PUSH32 0x8C379A000000000000000000000000000000000000000000000000000000000 DUP2 MSTORE PUSH1 0x4 ADD PUSH2 0x1A3C SWAP1 PUSH2 0x4380 JUMP JUMPDEST PUSH1 0x40 MLOAD DUP1 SWAP2 SUB SWAP1 REVERT JUMPDEST DUP1 MLOAD DUP3 MLOAD EQ ISZERO ISZERO PUSH2 0x1A8B JUMPI PUSH1 0x40 MLOAD PUSH32 0x8C379A000000000000000000000000000000000000000000000000000000000 DUP2 MSTORE PUSH1 0x4 ADD PUSH2 0x1A82 SWAP1 PUSH2 0x4400 JUMP JUMPDEST PUSH1 0x40 MLOAD DUP1 SWAP2 SUB SWAP1 REVERT JUMPDEST DUP6 PUSH1 0xD PUSH1 0x10 PUSH2 0x100 EXP DUP2 SLOAD DUP2 PUSH16 0xFFFFFFFFFFFFFFFFFFFFFFFFFFFFFFFF MUL NOT AND SWAP1 DUP4 PUSH16 0xFFFFFFFFFFFFFFFFFFFFFFFFFFFFFFFF AND MUL OR SWAP1 SSTORE POP DUP4 PUSH1 0xE SWAP1 DUP1 MLOAD SWAP1 PUSH1 0x20 ADD SWAP1 PUSH2 0x1ADA SWAP3 SWAP2 SWAP1 PUSH2 0x34EF JUMP JUMPDEST POP DUP5 PUSH1 0xF SWAP1 DUP1 MLOAD SWAP1 PUSH1 0x20 ADD SWAP1 PUSH2 0x1AF1 SWAP3 SWAP2 SWAP1 PUSH2 0x354F JUMP JUMPDEST POP POP POP POP POP POP POP JUMP JUMPDEST PUSH1 0x0 DUP1 PUSH2 0x1B05 PUSH2 0x35D9 JUMP JUMPDEST PUSH1 0x0 PUSH9 0x56BC75E2D63100000 DUP6 GT ISZERO ISZERO ISZERO PUSH2 0x1B55 JUMPI PUSH1 0x40 MLOAD PUSH32 0x8C379A000000000000000000000000000000000000000000000000000000000 DUP2 MSTORE PUSH1 0x4 ADD PUSH2 0x1B4C SWAP1 PUSH2 0x42E0 JUMP JUMPDEST PUSH1 0x40 MLOAD DUP1 SWAP2 SUB SWAP1 REVERT JUMPDEST PUSH2 0x1B5D PUSH2 0x2942 JUMP JUMPDEST SWAP3 POP DUP3 PUSH20 0xFFFFFFFFFFFFFFFFFFFFFFFFFFFFFFFFFFFFFFFF AND PUSH4 0x23B872DD CALLER ADDRESS DUP9 PUSH1 0x40 MLOAD DUP5 PUSH4 0xFFFFFFFF AND PUSH29 0x100000000000000000000000000000000000000000000000000000000 MUL DUP2 MSTORE PUSH1 0x4 ADD PUSH2 0x1BB8 SWAP4 SWAP3 SWAP2 SWAP1 PUSH2 0x40DE JUMP JUMPDEST PUSH1 0x20 PUSH1 0x40 MLOAD DUP1 DUP4 SUB DUP2 PUSH1 0x0 DUP8 DUP1 EXTCODESIZE ISZERO DUP1 ISZERO PUSH2 0x1BD2 JUMPI PUSH1 0x0 DUP1 REVERT JUMPDEST POP GAS CALL ISZERO DUP1 ISZERO PUSH2 0x1BE6 JUMPI RETURNDATASIZE PUSH1 0x0 DUP1 RETURNDATACOPY RETURNDATASIZE PUSH1 0x0 REVERT JUMPDEST POP POP POP POP PUSH1 0x40 MLOAD RETURNDATASIZE PUSH1 0x1F NOT PUSH1 0x1F DUP3 ADD AND DUP3 ADD DUP1 PUSH1 0x40 MSTORE POP PUSH2 0x1C0A SWAP2 SWAP1 DUP2 ADD SWAP1 PUSH2 0x3A71 JUMP JUMPDEST POP PUSH1 0x9 PUSH1 0x0 CALLER PUSH20 0xFFFFFFFFFFFFFFFFFFFFFFFFFFFFFFFFFFFFFFFF AND PUSH20 0xFFFFFFFFFFFFFFFFFFFFFFFFFFFFFFFFFFFFFFFF AND DUP2 MSTORE PUSH1 0x20 ADD SWAP1 DUP2 MSTORE PUSH1 0x20 ADD PUSH1 0x0 KECCAK256 PUSH1 0x40 DUP1 MLOAD SWAP1 DUP2 ADD PUSH1 0x40 MSTORE SWAP1 DUP2 PUSH1 0x0 DUP3 ADD PUSH1 0x0 SWAP1 SLOAD SWAP1 PUSH2 0x100 EXP SWAP1 DIV PUSH20 0xFFFFFFFFFFFFFFFFFFFFFFFFFFFFFFFFFFFFFFFF AND PUSH20 0xFFFFFFFFFFFFFFFFFFFFFFFFFFFFFFFFFFFFFFFF AND PUSH20 0xFFFFFFFFFFFFFFFFFFFFFFFFFFFFFFFFFFFFFFFF AND DUP2 MSTORE PUSH1 0x20 ADD PUSH1 0x1 DUP3 ADD SLOAD DUP2 MSTORE POP POP SWAP2 POP DUP5 DUP3 PUSH1 0x20 ADD MLOAD ADD SWAP1 POP PUSH1 0x40 DUP1 MLOAD SWAP1 DUP2 ADD PUSH1 0x40 MSTORE DUP1 CALLER PUSH20 0xFFFFFFFFFFFFFFFFFFFFFFFFFFFFFFFFFFFFFFFF AND DUP2 MSTORE PUSH1 0x20 ADD DUP3 DUP2 MSTORE POP PUSH1 0x9 PUSH1 0x0 CALLER PUSH20 0xFFFFFFFFFFFFFFFFFFFFFFFFFFFFFFFFFFFFFFFF AND PUSH20 0xFFFFFFFFFFFFFFFFFFFFFFFFFFFFFFFFFFFFFFFF AND DUP2 MSTORE PUSH1 0x20 ADD SWAP1 DUP2 MSTORE PUSH1 0x20 ADD PUSH1 0x0 KECCAK256 PUSH1 0x0 DUP3 ADD MLOAD DUP2 PUSH1 0x0 ADD PUSH1 0x0 PUSH2 0x100 EXP DUP2 SLOAD DUP2 PUSH20 0xFFFFFFFFFFFFFFFFFFFFFFFFFFFFFFFFFFFFFFFF MUL NOT AND SWAP1 DUP4 PUSH20 0xFFFFFFFFFFFFFFFFFFFFFFFFFFFFFFFFFFFFFFFF AND MUL OR SWAP1 SSTORE POP PUSH1 0x20 DUP3 ADD MLOAD DUP2 PUSH1 0x1 ADD SSTORE SWAP1 POP POP PUSH1 0x1 SWAP4 POP POP POP POP SWAP2 SWAP1 POP JUMP JUMPDEST PUSH1 0x60 PUSH1 0x10 DUP1 SLOAD DUP1 PUSH1 0x20 MUL PUSH1 0x20 ADD PUSH1 0x40 MLOAD SWAP1 DUP2 ADD PUSH1 0x40 MSTORE DUP1 SWAP3 SWAP2 SWAP1 DUP2 DUP2 MSTORE PUSH1 0x20 ADD DUP3 DUP1 SLOAD DUP1 ISZERO PUSH2 0x1DD8 JUMPI PUSH1 0x20 MUL DUP3 ADD SWAP2 SWAP1 PUSH1 0x0 MSTORE PUSH1 0x20 PUSH1 0x0 KECCAK256 SWAP1 JUMPDEST DUP2 SLOAD DUP2 MSTORE PUSH1 0x20 ADD SWAP1 PUSH1 0x1 ADD SWAP1 DUP1 DUP4 GT PUSH2 0x1DC4 JUMPI JUMPDEST POP POP POP POP POP SWAP1 POP SWAP1 JUMP JUMPDEST PUSH1 0x10 DUP2 DUP2 SLOAD DUP2 LT ISZERO ISZERO PUSH2 0x1DF1 JUMPI INVALID JUMPDEST SWAP1 PUSH1 0x0 MSTORE PUSH1 0x20 PUSH1 0x0 KECCAK256 ADD PUSH1 0x0 SWAP2 POP SWAP1 POP SLOAD DUP2 JUMP JUMPDEST PUSH1 0x6 PUSH1 0x0 SWAP1 SLOAD SWAP1 PUSH2 0x100 EXP SWAP1 DIV PUSH20 0xFFFFFFFFFFFFFFFFFFFFFFFFFFFFFFFFFFFFFFFF AND PUSH20 0xFFFFFFFFFFFFFFFFFFFFFFFFFFFFFFFFFFFFFFFF AND CALLER PUSH20 0xFFFFFFFFFFFFFFFFFFFFFFFFFFFFFFFFFFFFFFFF AND EQ ISZERO ISZERO PUSH2 0x1E61 JUMPI PUSH1 0x0 DUP1 REVERT JUMPDEST DUP1 PUSH1 0x13 PUSH1 0x0 DUP5 PUSH20 0xFFFFFFFFFFFFFFFFFFFFFFFFFFFFFFFFFFFFFFFF AND PUSH20 0xFFFFFFFFFFFFFFFFFFFFFFFFFFFFFFFFFFFFFFFF AND DUP2 MSTORE PUSH1 0x20 ADD SWAP1 DUP2 MSTORE PUSH1 0x20 ADD PUSH1 0x0 KECCAK256 PUSH1 0x0 PUSH2 0x100 EXP DUP2 SLOAD DUP2 PUSH1 0xFF MUL NOT AND SWAP1 DUP4 ISZERO ISZERO MUL OR SWAP1 SSTORE POP POP POP JUMP JUMPDEST PUSH1 0x6 PUSH1 0x0 SWAP1 SLOAD SWAP1 PUSH2 0x100 EXP SWAP1 DIV PUSH20 0xFFFFFFFFFFFFFFFFFFFFFFFFFFFFFFFFFFFFFFFF AND PUSH20 0xFFFFFFFFFFFFFFFFFFFFFFFFFFFFFFFFFFFFFFFF AND CALLER PUSH20 0xFFFFFFFFFFFFFFFFFFFFFFFFFFFFFFFFFFFFFFFF AND EQ ISZERO ISZERO PUSH2 0x1F18 JUMPI PUSH1 0x0 DUP1 REVERT JUMPDEST PUSH2 0x1F21 DUP2 PUSH2 0x296C JUMP JUMPDEST POP JUMP JUMPDEST PUSH1 0x7 SLOAD DUP2 JUMP JUMPDEST DUP1 PUSH1 0x5 PUSH1 0x0 DUP3 PUSH1 0x0 NOT AND PUSH1 0x0 NOT AND DUP2 MSTORE PUSH1 0x20 ADD SWAP1 DUP2 MSTORE PUSH1 0x20 ADD PUSH1 0x0 KECCAK256 PUSH1 0x0 SWAP1 SLOAD SWAP1 PUSH2 0x100 EXP SWAP1 DIV PUSH20 0xFFFFFFFFFFFFFFFFFFFFFFFFFFFFFFFFFFFFFFFF AND PUSH20 0xFFFFFFFFFFFFFFFFFFFFFFFFFFFFFFFFFFFFFFFF AND CALLER PUSH20 0xFFFFFFFFFFFFFFFFFFFFFFFFFFFFFFFFFFFFFFFF AND EQ ISZERO ISZERO PUSH2 0x1FD6 JUMPI PUSH1 0x40 MLOAD PUSH32 0x8C379A000000000000000000000000000000000000000000000000000000000 DUP2 MSTORE PUSH1 0x4 ADD PUSH2 0x1FCD SWAP1 PUSH2 0x43E0 JUMP JUMPDEST PUSH1 0x40 MLOAD DUP1 SWAP2 SUB SWAP1 REVERT JUMPDEST PUSH1 0x5 PUSH1 0x0 DUP3 PUSH1 0x0 NOT AND PUSH1 0x0 NOT AND DUP2 MSTORE PUSH1 0x20 ADD SWAP1 DUP2 MSTORE PUSH1 0x20 ADD PUSH1 0x0 KECCAK256 PUSH1 0x0 PUSH2 0x100 EXP DUP2 SLOAD SWAP1 PUSH20 0xFFFFFFFFFFFFFFFFFFFFFFFFFFFFFFFFFFFFFFFF MUL NOT AND SWAP1 SSTORE DUP1 PUSH1 0x0 NOT AND PUSH32 0xA40AD10B942505047C532A7399BF5EAC2768B11B7155B40EC80309AEA567F998 PUSH1 0x40 MLOAD PUSH1 0x40 MLOAD DUP1 SWAP2 SUB SWAP1 LOG2 POP POP JUMP JUMPDEST PUSH1 0x0 DUP1 PUSH1 0x0 DUP1 PUSH1 0x0 DUP6 PUSH1 0x15 PUSH1 0x0 DUP3 DUP2 MSTORE PUSH1 0x20 ADD SWAP1 DUP2 MSTORE PUSH1 0x20 ADD PUSH1 0x0 KECCAK256 PUSH1 0x0 ADD PUSH1 0x0 SWAP1 SLOAD SWAP1 PUSH2 0x100 EXP SWAP1 DIV PUSH16 0xFFFFFFFFFFFFFFFFFFFFFFFFFFFFFFFF AND PUSH16 0xFFFFFFFFFFFFFFFFFFFFFFFFFFFFFFFF AND PUSH1 0x15 PUSH1 0x0 DUP4 DUP2 MSTORE PUSH1 0x20 ADD SWAP1 DUP2 MSTORE PUSH1 0x20 ADD PUSH1 0x0 KECCAK256 PUSH1 0x1 ADD DUP1 SLOAD SWAP1 POP LT ISZERO ISZERO PUSH2 0x23AE JUMPI DUP7 DUP1 PUSH1 0xC SLOAD GT ISZERO ISZERO PUSH2 0x23AC JUMPI PUSH1 0x15 PUSH1 0x0 DUP10 DUP2 MSTORE PUSH1 0x20 ADD SWAP1 DUP2 MSTORE PUSH1 0x20 ADD PUSH1 0x0 KECCAK256 PUSH1 0x1 ADD DUP1 SLOAD SWAP1 POP SWAP7 POP PUSH2 0x20F4 PUSH1 0x2 DUP9 PUSH2 0x2A68 SWAP1 SWAP2 SWAP1 PUSH4 0xFFFFFFFF AND JUMP JUMPDEST SWAP6 POP PUSH1 0x15 PUSH1 0x0 DUP10 DUP2 MSTORE PUSH1 0x20 ADD SWAP1 DUP2 MSTORE PUSH1 0x20 ADD PUSH1 0x0 KECCAK256 PUSH1 0x1 ADD DUP1 SLOAD SWAP1 POP PUSH1 0x11 DUP2 SWAP1 SSTORE POP PUSH1 0x0 PUSH1 0x2 DUP9 DUP2 ISZERO ISZERO PUSH2 0x2124 JUMPI INVALID JUMPDEST MOD EQ ISZERO PUSH2 0x2244 JUMPI PUSH2 0x2199 PUSH1 0x15 PUSH1 0x0 DUP11 DUP2 MSTORE PUSH1 0x20 ADD SWAP1 DUP2 MSTORE PUSH1 0x20 ADD PUSH1 0x0 KECCAK256 PUSH1 0x1 ADD DUP1 SLOAD DUP1 PUSH1 0x20 MUL PUSH1 0x20 ADD PUSH1 0x40 MLOAD SWAP1 DUP2 ADD PUSH1 0x40 MSTORE DUP1 SWAP3 SWAP2 SWAP1 DUP2 DUP2 MSTORE PUSH1 0x20 ADD DUP3 DUP1 SLOAD DUP1 ISZERO PUSH2 0x218E JUMPI PUSH1 0x20 MUL DUP3 ADD SWAP2 SWAP1 PUSH1 0x0 MSTORE PUSH1 0x20 PUSH1 0x0 KECCAK256 SWAP1 JUMPDEST DUP2 SLOAD DUP2 MSTORE PUSH1 0x20 ADD SWAP1 PUSH1 0x1 ADD SWAP1 DUP1 DUP4 GT PUSH2 0x217A JUMPI JUMPDEST POP POP POP POP POP DUP8 PUSH2 0x2A7E JUMP JUMPDEST SWAP4 POP PUSH2 0x221C PUSH1 0x15 PUSH1 0x0 DUP11 DUP2 MSTORE PUSH1 0x20 ADD SWAP1 DUP2 MSTORE PUSH1 0x20 ADD PUSH1 0x0 KECCAK256 PUSH1 0x1 ADD DUP1 SLOAD DUP1 PUSH1 0x20 MUL PUSH1 0x20 ADD PUSH1 0x40 MLOAD SWAP1 DUP2 ADD PUSH1 0x40 MSTORE DUP1 SWAP3 SWAP2 SWAP1 DUP2 DUP2 MSTORE PUSH1 0x20 ADD DUP3 DUP1 SLOAD DUP1 ISZERO PUSH2 0x21FE JUMPI PUSH1 0x20 MUL DUP3 ADD SWAP2 SWAP1 PUSH1 0x0 MSTORE PUSH1 0x20 PUSH1 0x0 KECCAK256 SWAP1 JUMPDEST DUP2 SLOAD DUP2 MSTORE PUSH1 0x20 ADD SWAP1 PUSH1 0x1 ADD SWAP1 DUP1 DUP4 GT PUSH2 0x21EA JUMPI JUMPDEST POP POP POP POP POP PUSH2 0x2217 PUSH1 0x1 DUP10 PUSH2 0x27E3 SWAP1 SWAP2 SWAP1 PUSH4 0xFFFFFFFF AND JUMP JUMPDEST PUSH2 0x2A7E JUMP JUMPDEST SWAP3 POP PUSH1 0x2 PUSH2 0x2233 DUP5 DUP7 PUSH2 0x2CAC SWAP1 SWAP2 SWAP1 PUSH4 0xFFFFFFFF AND JUMP JUMPDEST DUP2 ISZERO ISZERO PUSH2 0x223C JUMPI INVALID JUMPDEST SDIV SWAP5 POP PUSH2 0x22C8 JUMP JUMPDEST PUSH2 0x22C5 PUSH1 0x15 PUSH1 0x0 DUP11 DUP2 MSTORE PUSH1 0x20 ADD SWAP1 DUP2 MSTORE PUSH1 0x20 ADD PUSH1 0x0 KECCAK256 PUSH1 0x1 ADD DUP1 SLOAD DUP1 PUSH1 0x20 MUL PUSH1 0x20 ADD PUSH1 0x40 MLOAD SWAP1 DUP2 ADD PUSH1 0x40 MSTORE DUP1 SWAP3 SWAP2 SWAP1 DUP2 DUP2 MSTORE PUSH1 0x20 ADD DUP3 DUP1 SLOAD DUP1 ISZERO PUSH2 0x22A7 JUMPI PUSH1 0x20 MUL DUP3 ADD SWAP2 SWAP1 PUSH1 0x0 MSTORE PUSH1 0x20 PUSH1 0x0 KECCAK256 SWAP1 JUMPDEST DUP2 SLOAD DUP2 MSTORE PUSH1 0x20 ADD SWAP1 PUSH1 0x1 ADD SWAP1 DUP1 DUP4 GT PUSH2 0x2293 JUMPI JUMPDEST POP POP POP POP POP PUSH2 0x22C0 PUSH1 0x1 DUP10 PUSH2 0x27E3 SWAP1 SWAP2 SWAP1 PUSH4 0xFFFFFFFF AND JUMP JUMPDEST PUSH2 0x2A7E JUMP JUMPDEST SWAP5 POP JUMPDEST DUP5 PUSH1 0xA DUP2 SWAP1 SSTORE POP DUP8 PUSH1 0xC DUP2 SWAP1 SSTORE POP TIMESTAMP PUSH1 0xB DUP2 SWAP1 SSTORE POP TIMESTAMP PUSH1 0x17 PUSH1 0x0 DUP11 DUP2 MSTORE PUSH1 0x20 ADD SWAP1 DUP2 MSTORE PUSH1 0x20 ADD PUSH1 0x0 KECCAK256 DUP2 SWAP1 SSTORE POP DUP5 PUSH1 0x16 PUSH1 0x0 DUP11 DUP2 MSTORE PUSH1 0x20 ADD SWAP1 DUP2 MSTORE PUSH1 0x20 ADD PUSH1 0x0 KECCAK256 DUP2 SWAP1 SSTORE POP PUSH1 0x60 PUSH1 0x40 MLOAD SWAP1 DUP2 ADD PUSH1 0x40 MSTORE DUP1 PUSH1 0x7 SLOAD DUP2 MSTORE PUSH1 0x20 ADD DUP7 DUP2 MSTORE PUSH1 0x20 ADD TIMESTAMP DUP2 MSTORE POP PUSH1 0x8 PUSH1 0x0 PUSH1 0x7 SLOAD DUP2 MSTORE PUSH1 0x20 ADD SWAP1 DUP2 MSTORE PUSH1 0x20 ADD PUSH1 0x0 KECCAK256 PUSH1 0x0 DUP3 ADD MLOAD DUP2 PUSH1 0x0 ADD SSTORE PUSH1 0x20 DUP3 ADD MLOAD DUP2 PUSH1 0x1 ADD SSTORE PUSH1 0x40 DUP3 ADD MLOAD DUP2 PUSH1 0x2 ADD SSTORE SWAP1 POP POP PUSH1 0x1 PUSH1 0x7 PUSH1 0x0 DUP3 DUP3 SLOAD ADD SWAP3 POP POP DUP2 SWAP1 SSTORE POP DUP8 DUP6 PUSH32 0x559884FD3A460DB3073B7FC896CC77986F16E378210DED43186175BF646FC5F TIMESTAMP PUSH1 0x40 MLOAD PUSH2 0x23A3 SWAP2 SWAP1 PUSH2 0x443B JUMP JUMPDEST PUSH1 0x40 MLOAD DUP1 SWAP2 SUB SWAP1 LOG3 JUMPDEST POP JUMPDEST POP POP POP POP POP POP POP JUMP JUMPDEST DUP1 PUSH1 0x15 PUSH1 0x0 DUP3 DUP2 MSTORE PUSH1 0x20 ADD SWAP1 DUP2 MSTORE PUSH1 0x20 ADD PUSH1 0x0 KECCAK256 PUSH1 0x0 ADD PUSH1 0x10 SWAP1 SLOAD SWAP1 PUSH2 0x100 EXP SWAP1 DIV PUSH16 0xFFFFFFFFFFFFFFFFFFFFFFFFFFFFFFFF AND PUSH16 0xFFFFFFFFFFFFFFFFFFFFFFFFFFFFFFFF AND PUSH1 0x15 PUSH1 0x0 DUP4 DUP2 MSTORE PUSH1 0x20 ADD SWAP1 DUP2 MSTORE PUSH1 0x20 ADD PUSH1 0x0 KECCAK256 PUSH1 0x1 ADD DUP1 SLOAD SWAP1 POP EQ ISZERO PUSH2 0x248A JUMPI PUSH1 0x15 PUSH1 0x0 DUP4 DUP2 MSTORE PUSH1 0x20 ADD SWAP1 DUP2 MSTORE PUSH1 0x20 ADD PUSH1 0x0 KECCAK256 PUSH1 0x0 DUP1 DUP3 ADD PUSH1 0x0 PUSH2 0x100 EXP DUP2 SLOAD SWAP1 PUSH16 0xFFFFFFFFFFFFFFFFFFFFFFFFFFFFFFFF MUL NOT AND SWAP1 SSTORE PUSH1 0x0 DUP3 ADD PUSH1 0x10 PUSH2 0x100 EXP DUP2 SLOAD SWAP1 PUSH16 0xFFFFFFFFFFFFFFFFFFFFFFFFFFFFFFFF MUL NOT AND SWAP1 SSTORE PUSH1 0x1 DUP3 ADD PUSH1 0x0 PUSH2 0x2487 SWAP2 SWAP1 PUSH2 0x3609 JUMP JUMPDEST POP POP JUMPDEST POP POP JUMP JUMPDEST PUSH1 0x0 PUSH1 0x60 DUP3 SWAP1 POP PUSH1 0x0 DUP2 MLOAD EQ ISZERO PUSH2 0x24AB JUMPI PUSH1 0x0 PUSH1 0x1 MUL SWAP2 POP PUSH2 0x24B3 JUMP JUMPDEST PUSH1 0x20 DUP4 ADD MLOAD SWAP2 POP JUMPDEST POP SWAP2 SWAP1 POP JUMP JUMPDEST PUSH2 0x24C1 PUSH2 0x3481 JUMP JUMPDEST PUSH2 0x24C9 PUSH2 0x3481 JUMP JUMPDEST PUSH2 0x24E0 DUP6 DUP6 DUP6 DUP5 PUSH2 0x2D26 SWAP1 SWAP4 SWAP3 SWAP2 SWAP1 PUSH4 0xFFFFFFFF AND JUMP JUMPDEST SWAP2 POP POP SWAP4 SWAP3 POP POP POP JUMP JUMPDEST PUSH2 0x2501 DUP3 DUP5 PUSH1 0x80 ADD MLOAD PUSH2 0x2DE0 SWAP1 SWAP2 SWAP1 PUSH4 0xFFFFFFFF AND JUMP JUMPDEST PUSH2 0x2518 DUP2 DUP5 PUSH1 0x80 ADD MLOAD PUSH2 0x2DE0 SWAP1 SWAP2 SWAP1 PUSH4 0xFFFFFFFF AND JUMP JUMPDEST POP POP POP JUMP JUMPDEST PUSH2 0x2534 DUP3 DUP5 PUSH1 0x80 ADD MLOAD PUSH2 0x2DE0 SWAP1 SWAP2 SWAP1 PUSH4 0xFFFFFFFF AND JUMP JUMPDEST PUSH2 0x254B DUP2 DUP5 PUSH1 0x80 ADD MLOAD PUSH2 0x2E05 SWAP1 SWAP2 SWAP1 PUSH4 0xFFFFFFFF AND JUMP JUMPDEST POP POP POP JUMP JUMPDEST PUSH1 0x0 ADDRESS PUSH1 0x4 SLOAD PUSH1 0x40 MLOAD PUSH1 0x20 ADD DUP1 DUP4 PUSH20 0xFFFFFFFFFFFFFFFFFFFFFFFFFFFFFFFFFFFFFFFF AND PUSH20 0xFFFFFFFFFFFFFFFFFFFFFFFFFFFFFFFFFFFFFFFF AND PUSH13 0x1000000000000000000000000 MUL DUP2 MSTORE PUSH1 0x14 ADD DUP3 DUP2 MSTORE PUSH1 0x20 ADD SWAP3 POP POP POP PUSH1 0x40 MLOAD PUSH1 0x20 DUP2 DUP4 SUB SUB DUP2 MSTORE SWAP1 PUSH1 0x40 MSTORE PUSH1 0x40 MLOAD DUP1 DUP3 DUP1 MLOAD SWAP1 PUSH1 0x20 ADD SWAP1 DUP1 DUP4 DUP4 JUMPDEST PUSH1 0x20 DUP4 LT ISZERO ISZERO PUSH2 0x25EC JUMPI DUP1 MLOAD DUP3 MSTORE PUSH1 0x20 DUP3 ADD SWAP2 POP PUSH1 0x20 DUP2 ADD SWAP1 POP PUSH1 0x20 DUP4 SUB SWAP3 POP PUSH2 0x25C7 JUMP JUMPDEST PUSH1 0x1 DUP4 PUSH1 0x20 SUB PUSH2 0x100 EXP SUB DUP1 NOT DUP3 MLOAD AND DUP2 DUP5 MLOAD AND DUP1 DUP3 OR DUP6 MSTORE POP POP POP POP POP POP SWAP1 POP ADD SWAP2 POP POP PUSH1 0x40 MLOAD DUP1 SWAP2 SUB SWAP1 KECCAK256 SWAP1 POP PUSH1 0x4 SLOAD DUP4 PUSH1 0x60 ADD DUP2 DUP2 MSTORE POP POP DUP4 PUSH1 0x5 PUSH1 0x0 DUP4 PUSH1 0x0 NOT AND PUSH1 0x0 NOT AND DUP2 MSTORE PUSH1 0x20 ADD SWAP1 DUP2 MSTORE PUSH1 0x20 ADD PUSH1 0x0 KECCAK256 PUSH1 0x0 PUSH2 0x100 EXP DUP2 SLOAD DUP2 PUSH20 0xFFFFFFFFFFFFFFFFFFFFFFFFFFFFFFFFFFFFFFFF MUL NOT AND SWAP1 DUP4 PUSH20 0xFFFFFFFFFFFFFFFFFFFFFFFFFFFFFFFFFFFFFFFF AND MUL OR SWAP1 SSTORE POP DUP1 PUSH1 0x0 NOT AND PUSH32 0xA6745906207AFB96A5801B8E5711FD7B74C5780CE893A973806E179D675BBE24 PUSH1 0x40 MLOAD PUSH1 0x40 MLOAD DUP1 SWAP2 SUB SWAP1 LOG2 PUSH1 0x2 PUSH1 0x0 SWAP1 SLOAD SWAP1 PUSH2 0x100 EXP SWAP1 DIV PUSH20 0xFFFFFFFFFFFFFFFFFFFFFFFFFFFFFFFFFFFFFFFF AND PUSH20 0xFFFFFFFFFFFFFFFFFFFFFFFFFFFFFFFFFFFFFFFF AND PUSH4 0x4000AEA0 DUP6 DUP5 PUSH2 0x26FB DUP8 PUSH2 0x2EAB JUMP JUMPDEST PUSH1 0x40 MLOAD DUP5 PUSH4 0xFFFFFFFF AND PUSH29 0x100000000000000000000000000000000000000000000000000000000 MUL DUP2 MSTORE PUSH1 0x4 ADD PUSH2 0x2735 SWAP4 SWAP3 SWAP2 SWAP1 PUSH2 0x41C3 JUMP JUMPDEST PUSH1 0x20 PUSH1 0x40 MLOAD DUP1 DUP4 SUB DUP2 PUSH1 0x0 DUP8 DUP1 EXTCODESIZE ISZERO DUP1 ISZERO PUSH2 0x274F JUMPI PUSH1 0x0 DUP1 REVERT JUMPDEST POP GAS CALL ISZERO DUP1 ISZERO PUSH2 0x2763 JUMPI RETURNDATASIZE PUSH1 0x0 DUP1 RETURNDATACOPY RETURNDATASIZE PUSH1 0x0 REVERT JUMPDEST POP POP POP POP PUSH1 0x40 MLOAD RETURNDATASIZE PUSH1 0x1F NOT PUSH1 0x1F DUP3 ADD AND DUP3 ADD DUP1 PUSH1 0x40 MSTORE POP PUSH2 0x2787 SWAP2 SWAP1 DUP2 ADD SWAP1 PUSH2 0x3A71 JUMP JUMPDEST ISZERO ISZERO PUSH2 0x27C8 JUMPI PUSH1 0x40 MLOAD PUSH32 0x8C379A000000000000000000000000000000000000000000000000000000000 DUP2 MSTORE PUSH1 0x4 ADD PUSH2 0x27BF SWAP1 PUSH2 0x4300 JUMP JUMPDEST PUSH1 0x40 MLOAD DUP1 SWAP2 SUB SWAP1 REVERT JUMPDEST PUSH1 0x1 PUSH1 0x4 PUSH1 0x0 DUP3 DUP3 SLOAD ADD SWAP3 POP POP DUP2 SWAP1 SSTORE POP DUP1 SWAP1 POP SWAP4 SWAP3 POP POP POP JUMP JUMPDEST PUSH1 0x0 DUP2 DUP4 ADD SWAP1 POP DUP3 DUP2 LT ISZERO ISZERO ISZERO PUSH2 0x27F6 JUMPI INVALID JUMPDEST DUP1 SWAP1 POP SWAP3 SWAP2 POP POP JUMP JUMPDEST PUSH1 0x0 PUSH1 0x5 PUSH1 0x0 DUP7 PUSH1 0x0 NOT AND PUSH1 0x0 NOT AND DUP2 MSTORE PUSH1 0x20 ADD SWAP1 DUP2 MSTORE PUSH1 0x20 ADD PUSH1 0x0 KECCAK256 PUSH1 0x0 SWAP1 SLOAD SWAP1 PUSH2 0x100 EXP SWAP1 DIV PUSH20 0xFFFFFFFFFFFFFFFFFFFFFFFFFFFFFFFFFFFFFFFF AND SWAP1 POP PUSH1 0x5 PUSH1 0x0 DUP7 PUSH1 0x0 NOT AND PUSH1 0x0 NOT AND DUP2 MSTORE PUSH1 0x20 ADD SWAP1 DUP2 MSTORE PUSH1 0x20 ADD PUSH1 0x0 KECCAK256 PUSH1 0x0 PUSH2 0x100 EXP DUP2 SLOAD SWAP1 PUSH20 0xFFFFFFFFFFFFFFFFFFFFFFFFFFFFFFFFFFFFFFFF MUL NOT AND SWAP1 SSTORE DUP5 PUSH1 0x0 NOT AND PUSH32 0x715822738DAD692E521EBC0193D189BF23153EB1D4420173D6B30CD8ADD9F9A6 PUSH1 0x40 MLOAD PUSH1 0x40 MLOAD DUP1 SWAP2 SUB SWAP1 LOG2 DUP1 PUSH20 0xFFFFFFFFFFFFFFFFFFFFFFFFFFFFFFFFFFFFFFFF AND PUSH4 0x6EE4D553 DUP7 DUP7 DUP7 DUP7 PUSH1 0x40 MLOAD DUP6 PUSH4 0xFFFFFFFF AND PUSH29 0x100000000000000000000000000000000000000000000000000000000 MUL DUP2 MSTORE PUSH1 0x4 ADD PUSH2 0x2909 SWAP5 SWAP4 SWAP3 SWAP2 SWAP1 PUSH2 0x423E JUMP JUMPDEST PUSH1 0x0 PUSH1 0x40 MLOAD DUP1 DUP4 SUB DUP2 PUSH1 0x0 DUP8 DUP1 EXTCODESIZE ISZERO DUP1 ISZERO PUSH2 0x2923 JUMPI PUSH1 0x0 DUP1 REVERT JUMPDEST POP GAS CALL ISZERO DUP1 ISZERO PUSH2 0x2937 JUMPI RETURNDATASIZE PUSH1 0x0 DUP1 RETURNDATACOPY RETURNDATASIZE PUSH1 0x0 REVERT JUMPDEST POP POP POP POP POP POP POP POP POP JUMP JUMPDEST PUSH1 0x0 PUSH1 0x2 PUSH1 0x0 SWAP1 SLOAD SWAP1 PUSH2 0x100 EXP SWAP1 DIV PUSH20 0xFFFFFFFFFFFFFFFFFFFFFFFFFFFFFFFFFFFFFFFF AND SWAP1 POP SWAP1 JUMP JUMPDEST PUSH1 0x0 PUSH20 0xFFFFFFFFFFFFFFFFFFFFFFFFFFFFFFFFFFFFFFFF AND DUP2 PUSH20 0xFFFFFFFFFFFFFFFFFFFFFFFFFFFFFFFFFFFFFFFF AND EQ ISZERO ISZERO ISZERO PUSH2 0x29A8 JUMPI PUSH1 0x0 DUP1 REVERT JUMPDEST DUP1 PUSH20 0xFFFFFFFFFFFFFFFFFFFFFFFFFFFFFFFFFFFFFFFF AND PUSH1 0x6 PUSH1 0x0 SWAP1 SLOAD SWAP1 PUSH2 0x100 EXP SWAP1 DIV PUSH20 0xFFFFFFFFFFFFFFFFFFFFFFFFFFFFFFFFFFFFFFFF AND PUSH20 0xFFFFFFFFFFFFFFFFFFFFFFFFFFFFFFFFFFFFFFFF AND PUSH32 0x8BE0079C531659141344CD1FD0A4F28419497F9722A3DAAFE3B4186F6B6457E0 PUSH1 0x40 MLOAD PUSH1 0x40 MLOAD DUP1 SWAP2 SUB SWAP1 LOG3 DUP1 PUSH1 0x6 PUSH1 0x0 PUSH2 0x100 EXP DUP2 SLOAD DUP2 PUSH20 0xFFFFFFFFFFFFFFFFFFFFFFFFFFFFFFFFFFFFFFFF MUL NOT AND SWAP1 DUP4 PUSH20 0xFFFFFFFFFFFFFFFFFFFFFFFFFFFFFFFFFFFFFFFF AND MUL OR SWAP1 SSTORE POP POP JUMP JUMPDEST PUSH1 0x0 DUP2 DUP4 DUP2 ISZERO ISZERO PUSH2 0x2A75 JUMPI INVALID JUMPDEST DIV SWAP1 POP SWAP3 SWAP2 POP POP JUMP JUMPDEST PUSH1 0x0 PUSH1 0x60 PUSH1 0x0 DUP1 PUSH1 0x60 DUP1 PUSH1 0x0 DUP1 PUSH1 0x0 DUP1 DUP12 SWAP9 POP DUP11 SWAP8 POP DUP9 MLOAD SWAP7 POP DUP7 PUSH1 0x40 MLOAD SWAP1 DUP1 DUP3 MSTORE DUP1 PUSH1 0x20 MUL PUSH1 0x20 ADD DUP3 ADD PUSH1 0x40 MSTORE DUP1 ISZERO PUSH2 0x2AC7 JUMPI DUP2 PUSH1 0x20 ADD PUSH1 0x20 DUP3 MUL DUP1 CODESIZE DUP4 CODECOPY DUP1 DUP3 ADD SWAP2 POP POP SWAP1 POP JUMPDEST POP SWAP6 POP DUP7 PUSH1 0x40 MLOAD SWAP1 DUP1 DUP3 MSTORE DUP1 PUSH1 0x20 MUL PUSH1 0x20 ADD DUP3 ADD PUSH1 0x40 MSTORE DUP1 ISZERO PUSH2 0x2AF9 JUMPI DUP2 PUSH1 0x20 ADD PUSH1 0x20 DUP3 MUL DUP1 CODESIZE DUP4 CODECOPY DUP1 DUP3 ADD SWAP2 POP POP SWAP1 POP JUMPDEST POP SWAP5 POP JUMPDEST PUSH1 0x1 ISZERO PUSH2 0x2C9C JUMPI DUP9 PUSH2 0x2B19 PUSH1 0x2 DUP10 PUSH2 0x2A68 SWAP1 SWAP2 SWAP1 PUSH4 0xFFFFFFFF AND JUMP JUMPDEST DUP2 MLOAD DUP2 LT ISZERO ISZERO PUSH2 0x2B25 JUMPI INVALID JUMPDEST SWAP1 PUSH1 0x20 ADD SWAP1 PUSH1 0x20 MUL ADD MLOAD SWAP2 POP PUSH1 0x0 SWAP4 POP PUSH1 0x0 SWAP3 POP PUSH1 0x0 SWAP1 POP JUMPDEST DUP7 DUP2 LT ISZERO PUSH2 0x2C10 JUMPI DUP2 DUP10 DUP3 DUP2 MLOAD DUP2 LT ISZERO ISZERO PUSH2 0x2B55 JUMPI INVALID JUMPDEST SWAP1 PUSH1 0x20 ADD SWAP1 PUSH1 0x20 MUL ADD MLOAD SLT ISZERO PUSH2 0x2BA6 JUMPI DUP9 DUP2 DUP2 MLOAD DUP2 LT ISZERO ISZERO PUSH2 0x2B73 JUMPI INVALID JUMPDEST SWAP1 PUSH1 0x20 ADD SWAP1 PUSH1 0x20 MUL ADD MLOAD DUP7 DUP6 DUP2 MLOAD DUP2 LT ISZERO ISZERO PUSH2 0x2B8B JUMPI INVALID JUMPDEST SWAP1 PUSH1 0x20 ADD SWAP1 PUSH1 0x20 MUL ADD DUP2 DUP2 MSTORE POP POP DUP4 DUP1 PUSH1 0x1 ADD SWAP5 POP POP PUSH2 0x2C03 JUMP JUMPDEST DUP2 DUP10 DUP3 DUP2 MLOAD DUP2 LT ISZERO ISZERO PUSH2 0x2BB5 JUMPI INVALID JUMPDEST SWAP1 PUSH1 0x20 ADD SWAP1 PUSH1 0x20 MUL ADD MLOAD SGT ISZERO PUSH2 0x2C02 JUMPI DUP9 DUP2 DUP2 MLOAD DUP2 LT ISZERO ISZERO PUSH2 0x2BD3 JUMPI INVALID JUMPDEST SWAP1 PUSH1 0x20 ADD SWAP1 PUSH1 0x20 MUL ADD MLOAD DUP6 DUP5 DUP2 MLOAD DUP2 LT ISZERO ISZERO PUSH2 0x2BEB JUMPI INVALID JUMPDEST SWAP1 PUSH1 0x20 ADD SWAP1 PUSH1 0x20 MUL ADD DUP2 DUP2 MSTORE POP POP DUP3 DUP1 PUSH1 0x1 ADD SWAP4 POP POP JUMPDEST JUMPDEST DUP1 DUP1 PUSH1 0x1 ADD SWAP2 POP POP PUSH2 0x2B3E JUMP JUMPDEST DUP4 DUP9 GT ISZERO ISZERO PUSH2 0x2C33 JUMPI DUP4 SWAP7 POP PUSH2 0x2C26 DUP10 DUP8 PUSH2 0x2FA9 JUMP JUMPDEST DUP1 SWAP8 POP DUP2 SWAP11 POP POP POP PUSH2 0x2C97 JUMP JUMPDEST PUSH2 0x2C46 DUP4 DUP9 PUSH2 0x2FB9 SWAP1 SWAP2 SWAP1 PUSH4 0xFFFFFFFF AND JUMP JUMPDEST DUP9 GT ISZERO PUSH2 0x2C8E JUMPI PUSH2 0x2C72 PUSH2 0x2C63 DUP5 DUP10 PUSH2 0x2FB9 SWAP1 SWAP2 SWAP1 PUSH4 0xFFFFFFFF AND JUMP JUMPDEST DUP10 PUSH2 0x2FB9 SWAP1 SWAP2 SWAP1 PUSH4 0xFFFFFFFF AND JUMP JUMPDEST SWAP8 POP DUP3 SWAP7 POP PUSH2 0x2C81 DUP10 DUP7 PUSH2 0x2FA9 JUMP JUMPDEST DUP1 SWAP7 POP DUP2 SWAP11 POP POP POP PUSH2 0x2C96 JUMP JUMPDEST DUP2 SWAP10 POP PUSH2 0x2C9D JUMP JUMPDEST JUMPDEST PUSH2 0x2AFD JUMP JUMPDEST JUMPDEST POP POP POP POP POP POP POP POP POP SWAP3 SWAP2 POP POP JUMP JUMPDEST PUSH1 0x0 DUP1 DUP3 DUP5 ADD SWAP1 POP PUSH1 0x0 DUP4 SLT ISZERO DUP1 ISZERO PUSH2 0x2CC5 JUMPI POP DUP4 DUP2 SLT ISZERO JUMPDEST DUP1 PUSH2 0x2CDB JUMPI POP PUSH1 0x0 DUP4 SLT DUP1 ISZERO PUSH2 0x2CDA JUMPI POP DUP4 DUP2 SLT JUMPDEST JUMPDEST ISZERO ISZERO PUSH2 0x2D1C JUMPI PUSH1 0x40 MLOAD PUSH32 0x8C379A000000000000000000000000000000000000000000000000000000000 DUP2 MSTORE PUSH1 0x4 ADD PUSH2 0x2D13 SWAP1 PUSH2 0x4320 JUMP JUMPDEST PUSH1 0x40 MLOAD DUP1 SWAP2 SUB SWAP1 REVERT JUMPDEST DUP1 SWAP2 POP POP SWAP3 SWAP2 POP POP JUMP JUMPDEST PUSH2 0x2D2E PUSH2 0x3481 JUMP JUMPDEST PUSH2 0x2D3E DUP6 PUSH1 0x80 ADD MLOAD PUSH2 0x100 PUSH2 0x2FD2 JUMP JUMPDEST POP DUP4 DUP6 PUSH1 0x0 ADD SWAP1 PUSH1 0x0 NOT AND SWAP1 DUP2 PUSH1 0x0 NOT AND DUP2 MSTORE POP POP DUP3 DUP6 PUSH1 0x20 ADD SWAP1 PUSH20 0xFFFFFFFFFFFFFFFFFFFFFFFFFFFFFFFFFFFFFFFF AND SWAP1 DUP2 PUSH20 0xFFFFFFFFFFFFFFFFFFFFFFFFFFFFFFFFFFFFFFFF AND DUP2 MSTORE POP POP DUP2 DUP6 PUSH1 0x40 ADD SWAP1 PUSH28 0xFFFFFFFFFFFFFFFFFFFFFFFFFFFFFFFFFFFFFFFFFFFFFFFFFFFFFFFF NOT AND SWAP1 DUP2 PUSH28 0xFFFFFFFFFFFFFFFFFFFFFFFFFFFFFFFFFFFFFFFFFFFFFFFFFFFFFFFF NOT AND DUP2 MSTORE POP POP DUP5 SWAP1 POP SWAP5 SWAP4 POP POP POP POP JUMP JUMPDEST PUSH2 0x2DED DUP3 PUSH1 0x3 DUP4 MLOAD PUSH2 0x302C JUMP JUMPDEST PUSH2 0x2E00 DUP2 DUP4 PUSH2 0x318A SWAP1 SWAP2 SWAP1 PUSH4 0xFFFFFFFF AND JUMP JUMPDEST POP POP POP JUMP JUMPDEST PUSH32 0xFFFFFFFFFFFFFFFFFFFFFFFFFFFFFFFFFFFFFFFFFFFFFFFF0000000000000000 DUP2 SLT ISZERO PUSH2 0x2E3C JUMPI PUSH2 0x2E37 DUP3 DUP3 PUSH2 0x31AC JUMP JUMPDEST PUSH2 0x2EA7 JUMP JUMPDEST PUSH8 0xFFFFFFFFFFFFFFFF DUP2 SGT ISZERO PUSH2 0x2E5B JUMPI PUSH2 0x2E56 DUP3 DUP3 PUSH2 0x321D JUMP JUMPDEST PUSH2 0x2EA6 JUMP JUMPDEST PUSH1 0x0 DUP2 SLT ISZERO ISZERO PUSH2 0x2E76 JUMPI PUSH2 0x2E71 DUP3 PUSH1 0x0 DUP4 PUSH2 0x302C JUMP JUMPDEST PUSH2 0x2EA5 JUMP JUMPDEST PUSH2 0x2EA4 DUP3 PUSH1 0x1 DUP4 PUSH32 0xFFFFFFFFFFFFFFFFFFFFFFFFFFFFFFFFFFFFFFFFFFFFFFFFFFFFFFFFFFFFFFFF SUB PUSH2 0x302C JUMP JUMPDEST JUMPDEST JUMPDEST JUMPDEST POP POP JUMP JUMPDEST PUSH1 0x60 PUSH1 0x3 PUSH1 0x0 SWAP1 SLOAD SWAP1 PUSH2 0x100 EXP SWAP1 DIV PUSH20 0xFFFFFFFFFFFFFFFFFFFFFFFFFFFFFFFFFFFFFFFF AND PUSH20 0xFFFFFFFFFFFFFFFFFFFFFFFFFFFFFFFFFFFFFFFF AND PUSH4 0x40429946 SWAP1 POP PUSH29 0x100000000000000000000000000000000000000000000000000000000 MUL PUSH1 0x0 DUP1 DUP5 PUSH1 0x0 ADD MLOAD DUP6 PUSH1 0x20 ADD MLOAD DUP7 PUSH1 0x40 ADD MLOAD DUP8 PUSH1 0x60 ADD MLOAD PUSH1 0x1 DUP10 PUSH1 0x80 ADD MLOAD PUSH1 0x0 ADD MLOAD PUSH1 0x40 MLOAD PUSH1 0x24 ADD PUSH2 0x2F45 SWAP9 SWAP8 SWAP7 SWAP6 SWAP5 SWAP4 SWAP3 SWAP2 SWAP1 PUSH2 0x413E JUMP JUMPDEST PUSH1 0x40 MLOAD PUSH1 0x20 DUP2 DUP4 SUB SUB DUP2 MSTORE SWAP1 PUSH1 0x40 MSTORE SWAP1 PUSH28 0xFFFFFFFFFFFFFFFFFFFFFFFFFFFFFFFFFFFFFFFFFFFFFFFFFFFFFFFF NOT AND PUSH1 0x20 DUP3 ADD DUP1 MLOAD PUSH28 0xFFFFFFFFFFFFFFFFFFFFFFFFFFFFFFFFFFFFFFFFFFFFFFFFFFFFFFFF DUP4 DUP2 DUP4 AND OR DUP4 MSTORE POP POP POP POP SWAP1 POP SWAP2 SWAP1 POP JUMP JUMPDEST PUSH1 0x60 DUP1 DUP3 DUP5 SWAP2 POP SWAP2 POP SWAP3 POP SWAP3 SWAP1 POP JUMP JUMPDEST PUSH1 0x0 DUP3 DUP3 GT ISZERO ISZERO ISZERO PUSH2 0x2FC7 JUMPI INVALID JUMPDEST DUP2 DUP4 SUB SWAP1 POP SWAP3 SWAP2 POP POP JUMP JUMPDEST PUSH2 0x2FDA PUSH2 0x362A JUMP JUMPDEST PUSH1 0x0 PUSH1 0x20 DUP4 DUP2 ISZERO ISZERO PUSH2 0x2FE8 JUMPI INVALID JUMPDEST MOD EQ ISZERO ISZERO PUSH2 0x3005 JUMPI PUSH1 0x20 DUP3 DUP2 ISZERO ISZERO PUSH2 0x2FFC JUMPI INVALID JUMPDEST MOD PUSH1 0x20 SUB DUP3 ADD SWAP2 POP JUMPDEST DUP2 DUP4 PUSH1 0x20 ADD DUP2 DUP2 MSTORE POP POP PUSH1 0x40 MLOAD DUP1 DUP5 MSTORE PUSH1 0x0 DUP2 MSTORE DUP3 DUP2 ADD PUSH1 0x20 ADD PUSH1 0x40 MSTORE POP DUP3 SWAP1 POP SWAP3 SWAP2 POP POP JUMP JUMPDEST PUSH1 0x17 DUP2 GT ISZERO ISZERO PUSH2 0x305E JUMPI PUSH2 0x3058 DUP2 PUSH1 0x5 DUP5 PUSH1 0xFF AND SWAP1 PUSH1 0x2 EXP MUL PUSH1 0xFF AND OR DUP5 PUSH2 0x326C SWAP1 SWAP2 SWAP1 PUSH4 0xFFFFFFFF AND JUMP JUMPDEST POP PUSH2 0x3185 JUMP JUMPDEST PUSH1 0xFF DUP2 GT ISZERO ISZERO PUSH2 0x30A5 JUMPI PUSH2 0x3088 PUSH1 0x18 PUSH1 0x5 DUP5 PUSH1 0xFF AND SWAP1 PUSH1 0x2 EXP MUL OR DUP5 PUSH2 0x326C SWAP1 SWAP2 SWAP1 PUSH4 0xFFFFFFFF AND JUMP JUMPDEST POP PUSH2 0x309F DUP2 PUSH1 0x1 DUP6 PUSH2 0x328C SWAP1 SWAP3 SWAP2 SWAP1 PUSH4 0xFFFFFFFF AND JUMP JUMPDEST POP PUSH2 0x3184 JUMP JUMPDEST PUSH2 0xFFFF DUP2 GT ISZERO ISZERO PUSH2 0x30ED JUMPI PUSH2 0x30D0 PUSH1 0x19 PUSH1 0x5 DUP5 PUSH1 0xFF AND SWAP1 PUSH1 0x2 EXP MUL OR DUP5 PUSH2 0x326C SWAP1 SWAP2 SWAP1 PUSH4 0xFFFFFFFF AND JUMP JUMPDEST POP PUSH2 0x30E7 DUP2 PUSH1 0x2 DUP6 PUSH2 0x328C SWAP1 SWAP3 SWAP2 SWAP1 PUSH4 0xFFFFFFFF AND JUMP JUMPDEST POP PUSH2 0x3183 JUMP JUMPDEST PUSH4 0xFFFFFFFF DUP2 GT ISZERO ISZERO PUSH2 0x3137 JUMPI PUSH2 0x311A PUSH1 0x1A PUSH1 0x5 DUP5 PUSH1 0xFF AND SWAP1 PUSH1 0x2 EXP MUL OR DUP5 PUSH2 0x326C SWAP1 SWAP2 SWAP1 PUSH4 0xFFFFFFFF AND JUMP JUMPDEST POP PUSH2 0x3131 DUP2 PUSH1 0x4 DUP6 PUSH2 0x328C SWAP1 SWAP3 SWAP2 SWAP1 PUSH4 0xFFFFFFFF AND JUMP JUMPDEST POP PUSH2 0x3182 JUMP JUMPDEST PUSH8 0xFFFFFFFFFFFFFFFF DUP2 GT ISZERO ISZERO PUSH2 0x3181 JUMPI PUSH2 0x3168 PUSH1 0x1B PUSH1 0x5 DUP5 PUSH1 0xFF AND SWAP1 PUSH1 0x2 EXP MUL OR DUP5 PUSH2 0x326C SWAP1 SWAP2 SWAP1 PUSH4 0xFFFFFFFF AND JUMP JUMPDEST POP PUSH2 0x317F DUP2 PUSH1 0x8 DUP6 PUSH2 0x328C SWAP1 SWAP3 SWAP2 SWAP1 PUSH4 0xFFFFFFFF AND JUMP JUMPDEST POP JUMPDEST JUMPDEST JUMPDEST JUMPDEST JUMPDEST POP POP POP JUMP JUMPDEST PUSH2 0x3192 PUSH2 0x362A JUMP JUMPDEST PUSH2 0x31A4 DUP4 DUP5 PUSH1 0x0 ADD MLOAD MLOAD DUP5 DUP6 MLOAD PUSH2 0x32AE JUMP JUMPDEST SWAP1 POP SWAP3 SWAP2 POP POP JUMP JUMPDEST PUSH2 0x31CD PUSH1 0x3 PUSH1 0x5 PUSH1 0x6 PUSH1 0xFF AND SWAP1 PUSH1 0x2 EXP MUL OR DUP4 PUSH2 0x326C SWAP1 SWAP2 SWAP1 PUSH4 0xFFFFFFFF AND JUMP JUMPDEST POP PUSH2 0x3219 DUP3 DUP3 PUSH32 0xFFFFFFFFFFFFFFFFFFFFFFFFFFFFFFFFFFFFFFFFFFFFFFFFFFFFFFFFFFFFFFFF SUB PUSH1 0x40 MLOAD PUSH1 0x20 ADD PUSH2 0x3205 SWAP2 SWAP1 PUSH2 0x443B JUMP JUMPDEST PUSH1 0x40 MLOAD PUSH1 0x20 DUP2 DUP4 SUB SUB DUP2 MSTORE SWAP1 PUSH1 0x40 MSTORE PUSH2 0x336B JUMP JUMPDEST POP POP JUMP JUMPDEST PUSH2 0x323E PUSH1 0x2 PUSH1 0x5 PUSH1 0x6 PUSH1 0xFF AND SWAP1 PUSH1 0x2 EXP MUL OR DUP4 PUSH2 0x326C SWAP1 SWAP2 SWAP1 PUSH4 0xFFFFFFFF AND JUMP JUMPDEST POP PUSH2 0x3268 DUP3 DUP3 PUSH1 0x40 MLOAD PUSH1 0x20 ADD PUSH2 0x3254 SWAP2 SWAP1 PUSH2 0x443B JUMP JUMPDEST PUSH1 0x40 MLOAD PUSH1 0x20 DUP2 DUP4 SUB SUB DUP2 MSTORE SWAP1 PUSH1 0x40 MSTORE PUSH2 0x336B JUMP JUMPDEST POP POP JUMP JUMPDEST PUSH2 0x3274 PUSH2 0x362A JUMP JUMPDEST PUSH2 0x3284 DUP4 DUP5 PUSH1 0x0 ADD MLOAD MLOAD DUP5 PUSH2 0x3390 JUMP JUMPDEST SWAP1 POP SWAP3 SWAP2 POP POP JUMP JUMPDEST PUSH2 0x3294 PUSH2 0x362A JUMP JUMPDEST PUSH2 0x32A5 DUP5 DUP6 PUSH1 0x0 ADD MLOAD MLOAD DUP6 DUP6 PUSH2 0x33E0 JUMP JUMPDEST SWAP1 POP SWAP4 SWAP3 POP POP POP JUMP JUMPDEST PUSH2 0x32B6 PUSH2 0x362A JUMP JUMPDEST PUSH1 0x0 DUP1 PUSH1 0x0 DUP6 MLOAD DUP6 GT ISZERO ISZERO ISZERO PUSH2 0x32CB JUMPI PUSH1 0x0 DUP1 REVERT JUMPDEST DUP8 PUSH1 0x20 ADD MLOAD DUP6 DUP9 ADD GT ISZERO PUSH2 0x32F6 JUMPI PUSH2 0x32F5 DUP9 PUSH1 0x2 PUSH2 0x32EF DUP12 PUSH1 0x20 ADD MLOAD DUP12 DUP11 ADD PUSH2 0x3441 JUMP JUMPDEST MUL PUSH2 0x345D JUMP JUMPDEST JUMPDEST DUP8 MLOAD DUP1 MLOAD DUP9 PUSH1 0x20 DUP4 ADD ADD SWAP5 POP DUP1 DUP10 DUP9 ADD GT ISZERO PUSH2 0x3312 JUMPI DUP9 DUP8 ADD DUP3 MSTORE JUMPDEST PUSH1 0x20 DUP9 ADD SWAP4 POP POP POP JUMPDEST PUSH1 0x20 DUP6 LT ISZERO ISZERO PUSH2 0x3340 JUMPI DUP2 MLOAD DUP4 MSTORE PUSH1 0x20 DUP4 ADD SWAP3 POP PUSH1 0x20 DUP3 ADD SWAP2 POP PUSH1 0x20 DUP6 SUB SWAP5 POP PUSH2 0x331B JUMP JUMPDEST PUSH1 0x1 DUP6 PUSH1 0x20 SUB PUSH2 0x100 EXP SUB SWAP1 POP DUP1 NOT DUP3 MLOAD AND DUP2 DUP5 MLOAD AND DUP2 DUP2 OR DUP6 MSTORE POP POP DUP8 SWAP4 POP POP POP POP SWAP5 SWAP4 POP POP POP POP JUMP JUMPDEST PUSH2 0x3378 DUP3 PUSH1 0x2 DUP4 MLOAD PUSH2 0x302C JUMP JUMPDEST PUSH2 0x338B DUP2 DUP4 PUSH2 0x318A SWAP1 SWAP2 SWAP1 PUSH4 0xFFFFFFFF AND JUMP JUMPDEST POP POP POP JUMP JUMPDEST PUSH2 0x3398 PUSH2 0x362A JUMP JUMPDEST DUP4 PUSH1 0x20 ADD MLOAD DUP4 LT ISZERO ISZERO PUSH2 0x33B7 JUMPI PUSH2 0x33B6 DUP5 PUSH1 0x2 DUP7 PUSH1 0x20 ADD MLOAD MUL PUSH2 0x345D JUMP JUMPDEST JUMPDEST DUP4 MLOAD DUP1 MLOAD PUSH1 0x20 DUP6 DUP4 ADD ADD DUP5 DUP2 MSTORE8 DUP2 DUP7 EQ ISZERO PUSH2 0x33D3 JUMPI PUSH1 0x1 DUP3 ADD DUP4 MSTORE JUMPDEST POP POP POP DUP4 SWAP1 POP SWAP4 SWAP3 POP POP POP JUMP JUMPDEST PUSH2 0x33E8 PUSH2 0x362A JUMP JUMPDEST PUSH1 0x0 DUP6 PUSH1 0x20 ADD MLOAD DUP6 DUP5 ADD GT ISZERO PUSH2 0x3408 JUMPI PUSH2 0x3407 DUP7 PUSH1 0x2 DUP8 DUP7 ADD MUL PUSH2 0x345D JUMP JUMPDEST JUMPDEST PUSH1 0x1 DUP4 PUSH2 0x100 EXP SUB SWAP1 POP DUP6 MLOAD DUP4 DUP7 DUP3 ADD ADD DUP6 DUP4 NOT DUP3 MLOAD AND OR DUP2 MSTORE DUP2 MLOAD DUP6 DUP9 ADD GT ISZERO PUSH2 0x3433 JUMPI DUP5 DUP8 ADD DUP3 MSTORE JUMPDEST POP POP DUP6 SWAP2 POP POP SWAP5 SWAP4 POP POP POP POP JUMP JUMPDEST PUSH1 0x0 DUP2 DUP4 GT ISZERO PUSH2 0x3453 JUMPI DUP3 SWAP1 POP PUSH2 0x3457 JUMP JUMPDEST DUP2 SWAP1 POP JUMPDEST SWAP3 SWAP2 POP POP JUMP JUMPDEST PUSH1 0x60 DUP3 PUSH1 0x0 ADD MLOAD SWAP1 POP PUSH2 0x3470 DUP4 DUP4 PUSH2 0x2FD2 JUMP JUMPDEST POP PUSH2 0x347B DUP4 DUP3 PUSH2 0x318A JUMP JUMPDEST POP POP POP POP JUMP JUMPDEST PUSH1 0xC0 PUSH1 0x40 MLOAD SWAP1 DUP2 ADD PUSH1 0x40 MSTORE DUP1 PUSH1 0x0 DUP1 NOT AND DUP2 MSTORE PUSH1 0x20 ADD PUSH1 0x0 PUSH20 0xFFFFFFFFFFFFFFFFFFFFFFFFFFFFFFFFFFFFFFFF AND DUP2 MSTORE PUSH1 0x20 ADD PUSH1 0x0 PUSH28 0xFFFFFFFFFFFFFFFFFFFFFFFFFFFFFFFFFFFFFFFFFFFFFFFFFFFFFFFF NOT AND DUP2 MSTORE PUSH1 0x20 ADD PUSH1 0x0 DUP2 MSTORE PUSH1 0x20 ADD PUSH2 0x34E9 PUSH2 0x3644 JUMP JUMPDEST DUP2 MSTORE POP SWAP1 JUMP JUMPDEST DUP3 DUP1 SLOAD DUP3 DUP3 SSTORE SWAP1 PUSH1 0x0 MSTORE PUSH1 0x20 PUSH1 0x0 KECCAK256 SWAP1 DUP2 ADD SWAP3 DUP3 ISZERO PUSH2 0x353E JUMPI SWAP2 PUSH1 0x20 MUL DUP3 ADD JUMPDEST DUP3 DUP2 GT ISZERO PUSH2 0x353D JUMPI DUP3 MLOAD DUP3 SWAP1 DUP1 MLOAD SWAP1 PUSH1 0x20 ADD SWAP1 PUSH2 0x352D SWAP3 SWAP2 SWAP1 PUSH2 0x365E JUMP JUMPDEST POP SWAP2 PUSH1 0x20 ADD SWAP2 SWAP1 PUSH1 0x1 ADD SWAP1 PUSH2 0x350F JUMP JUMPDEST JUMPDEST POP SWAP1 POP PUSH2 0x354B SWAP2 SWAP1 PUSH2 0x36DE JUMP JUMPDEST POP SWAP1 JUMP JUMPDEST DUP3 DUP1 SLOAD DUP3 DUP3 SSTORE SWAP1 PUSH1 0x0 MSTORE PUSH1 0x20 PUSH1 0x0 KECCAK256 SWAP1 DUP2 ADD SWAP3 DUP3 ISZERO PUSH2 0x35C8 JUMPI SWAP2 PUSH1 0x20 MUL DUP3 ADD JUMPDEST DUP3 DUP2 GT ISZERO PUSH2 0x35C7 JUMPI DUP3 MLOAD DUP3 PUSH1 0x0 PUSH2 0x100 EXP DUP2 SLOAD DUP2 PUSH20 0xFFFFFFFFFFFFFFFFFFFFFFFFFFFFFFFFFFFFFFFF MUL NOT AND SWAP1 DUP4 PUSH20 0xFFFFFFFFFFFFFFFFFFFFFFFFFFFFFFFFFFFFFFFF AND MUL OR SWAP1 SSTORE POP SWAP2 PUSH1 0x20 ADD SWAP2 SWAP1 PUSH1 0x1 ADD SWAP1 PUSH2 0x356F JUMP JUMPDEST JUMPDEST POP SWAP1 POP PUSH2 0x35D5 SWAP2 SWAP1 PUSH2 0x370A JUMP JUMPDEST POP SWAP1 JUMP JUMPDEST PUSH1 0x40 DUP1 MLOAD SWAP1 DUP2 ADD PUSH1 0x40 MSTORE DUP1 PUSH1 0x0 PUSH20 0xFFFFFFFFFFFFFFFFFFFFFFFFFFFFFFFFFFFFFFFF AND DUP2 MSTORE PUSH1 0x20 ADD PUSH1 0x0 DUP2 MSTORE POP SWAP1 JUMP JUMPDEST POP DUP1 SLOAD PUSH1 0x0 DUP3 SSTORE SWAP1 PUSH1 0x0 MSTORE PUSH1 0x20 PUSH1 0x0 KECCAK256 SWAP1 DUP2 ADD SWAP1 PUSH2 0x3627 SWAP2 SWAP1 PUSH2 0x374D JUMP JUMPDEST POP JUMP JUMPDEST PUSH1 0x40 DUP1 MLOAD SWAP1 DUP2 ADD PUSH1 0x40 MSTORE DUP1 PUSH1 0x60 DUP2 MSTORE PUSH1 0x20 ADD PUSH1 0x0 DUP2 MSTORE POP SWAP1 JUMP JUMPDEST PUSH1 0x40 DUP1 MLOAD SWAP1 DUP2 ADD PUSH1 0x40 MSTORE DUP1 PUSH1 0x60 DUP2 MSTORE PUSH1 0x20 ADD PUSH1 0x0 DUP2 MSTORE POP SWAP1 JUMP JUMPDEST DUP3 DUP1 SLOAD PUSH1 0x1 DUP2 PUSH1 0x1 AND ISZERO PUSH2 0x100 MUL SUB AND PUSH1 0x2 SWAP1 DIV SWAP1 PUSH1 0x0 MSTORE PUSH1 0x20 PUSH1 0x0 KECCAK256 SWAP1 PUSH1 0x1F ADD PUSH1 0x20 SWAP1 DIV DUP2 ADD SWAP3 DUP3 PUSH1 0x1F LT PUSH2 0x369F JUMPI DUP1 MLOAD PUSH1 0xFF NOT AND DUP4 DUP1 ADD OR DUP6 SSTORE PUSH2 0x36CD JUMP JUMPDEST DUP3 DUP1 ADD PUSH1 0x1 ADD DUP6 SSTORE DUP3 ISZERO PUSH2 0x36CD JUMPI SWAP2 DUP3 ADD JUMPDEST DUP3 DUP2 GT ISZERO PUSH2 0x36CC JUMPI DUP3 MLOAD DUP3 SSTORE SWAP2 PUSH1 0x20 ADD SWAP2 SWAP1 PUSH1 0x1 ADD SWAP1 PUSH2 0x36B1 JUMP JUMPDEST JUMPDEST POP SWAP1 POP PUSH2 0x36DA SWAP2 SWAP1 PUSH2 0x3772 JUMP JUMPDEST POP SWAP1 JUMP JUMPDEST PUSH2 0x3707 SWAP2 SWAP1 JUMPDEST DUP1 DUP3 GT ISZERO PUSH2 0x3703 JUMPI PUSH1 0x0 DUP2 DUP2 PUSH2 0x36FA SWAP2 SWAP1 PUSH2 0x3797 JUMP JUMPDEST POP PUSH1 0x1 ADD PUSH2 0x36E4 JUMP JUMPDEST POP SWAP1 JUMP JUMPDEST SWAP1 JUMP JUMPDEST PUSH2 0x374A SWAP2 SWAP1 JUMPDEST DUP1 DUP3 GT ISZERO PUSH2 0x3746 JUMPI PUSH1 0x0 DUP2 DUP2 PUSH2 0x100 EXP DUP2 SLOAD SWAP1 PUSH20 0xFFFFFFFFFFFFFFFFFFFFFFFFFFFFFFFFFFFFFFFF MUL NOT AND SWAP1 SSTORE POP PUSH1 0x1 ADD PUSH2 0x3710 JUMP JUMPDEST POP SWAP1 JUMP JUMPDEST SWAP1 JUMP JUMPDEST PUSH2 0x376F SWAP2 SWAP1 JUMPDEST DUP1 DUP3 GT ISZERO PUSH2 0x376B JUMPI PUSH1 0x0 DUP2 PUSH1 0x0 SWAP1 SSTORE POP PUSH1 0x1 ADD PUSH2 0x3753 JUMP JUMPDEST POP SWAP1 JUMP JUMPDEST SWAP1 JUMP JUMPDEST PUSH2 0x3794 SWAP2 SWAP1 JUMPDEST DUP1 DUP3 GT ISZERO PUSH2 0x3790 JUMPI PUSH1 0x0 DUP2 PUSH1 0x0 SWAP1 SSTORE POP PUSH1 0x1 ADD PUSH2 0x3778 JUMP JUMPDEST POP SWAP1 JUMP JUMPDEST SWAP1 JUMP JUMPDEST POP DUP1 SLOAD PUSH1 0x1 DUP2 PUSH1 0x1 AND ISZERO PUSH2 0x100 MUL SUB AND PUSH1 0x2 SWAP1 DIV PUSH1 0x0 DUP3 SSTORE DUP1 PUSH1 0x1F LT PUSH2 0x37BD JUMPI POP PUSH2 0x37DC JUMP JUMPDEST PUSH1 0x1F ADD PUSH1 0x20 SWAP1 DIV SWAP1 PUSH1 0x0 MSTORE PUSH1 0x20 PUSH1 0x0 KECCAK256 SWAP1 DUP2 ADD SWAP1 PUSH2 0x37DB SWAP2 SWAP1 PUSH2 0x3772 JUMP JUMPDEST JUMPDEST POP JUMP JUMPDEST PUSH1 0x0 PUSH2 0x37EB DUP3 CALLDATALOAD PUSH2 0x4637 JUMP JUMPDEST SWAP1 POP SWAP3 SWAP2 POP POP JUMP JUMPDEST PUSH1 0x0 DUP3 PUSH1 0x1F DUP4 ADD SLT ISZERO ISZERO PUSH2 0x3806 JUMPI PUSH1 0x0 DUP1 REVERT JUMPDEST DUP2 CALLDATALOAD PUSH2 0x3819 PUSH2 0x3814 DUP3 PUSH2 0x44E3 JUMP JUMPDEST PUSH2 0x44B6 JUMP JUMPDEST SWAP2 POP DUP2 DUP2 DUP4 MSTORE PUSH1 0x20 DUP5 ADD SWAP4 POP PUSH1 0x20 DUP2 ADD SWAP1 POP DUP4 DUP6 PUSH1 0x20 DUP5 MUL DUP3 ADD GT ISZERO PUSH2 0x383E JUMPI PUSH1 0x0 DUP1 REVERT JUMPDEST PUSH1 0x0 JUMPDEST DUP4 DUP2 LT ISZERO PUSH2 0x386E JUMPI DUP2 PUSH2 0x3854 DUP9 DUP3 PUSH2 0x37DF JUMP JUMPDEST DUP5 MSTORE PUSH1 0x20 DUP5 ADD SWAP4 POP PUSH1 0x20 DUP4 ADD SWAP3 POP POP PUSH1 0x1 DUP2 ADD SWAP1 POP PUSH2 0x3841 JUMP JUMPDEST POP POP POP POP SWAP3 SWAP2 POP POP JUMP JUMPDEST PUSH1 0x0 DUP3 PUSH1 0x1F DUP4 ADD SLT ISZERO ISZERO PUSH2 0x388B JUMPI PUSH1 0x0 DUP1 REVERT JUMPDEST DUP2 CALLDATALOAD PUSH2 0x389E PUSH2 0x3899 DUP3 PUSH2 0x450B JUMP JUMPDEST PUSH2 0x44B6 JUMP JUMPDEST SWAP2 POP DUP2 DUP2 DUP4 MSTORE PUSH1 0x20 DUP5 ADD SWAP4 POP PUSH1 0x20 DUP2 ADD SWAP1 POP DUP4 PUSH1 0x0 JUMPDEST DUP4 DUP2 LT ISZERO PUSH2 0x38E4 JUMPI DUP2 CALLDATALOAD DUP7 ADD PUSH2 0x38CA DUP9 DUP3 PUSH2 0x393E JUMP JUMPDEST DUP5 MSTORE PUSH1 0x20 DUP5 ADD SWAP4 POP PUSH1 0x20 DUP4 ADD SWAP3 POP POP PUSH1 0x1 DUP2 ADD SWAP1 POP PUSH2 0x38B4 JUMP JUMPDEST POP POP POP POP SWAP3 SWAP2 POP POP JUMP JUMPDEST PUSH1 0x0 PUSH2 0x38FA DUP3 CALLDATALOAD PUSH2 0x4657 JUMP JUMPDEST SWAP1 POP SWAP3 SWAP2 POP POP JUMP JUMPDEST PUSH1 0x0 PUSH2 0x390E DUP3 MLOAD PUSH2 0x4657 JUMP JUMPDEST SWAP1 POP SWAP3 SWAP2 POP POP JUMP JUMPDEST PUSH1 0x0 PUSH2 0x3922 DUP3 CALLDATALOAD PUSH2 0x4663 JUMP JUMPDEST SWAP1 POP SWAP3 SWAP2 POP POP JUMP JUMPDEST PUSH1 0x0 PUSH2 0x3936 DUP3 CALLDATALOAD PUSH2 0x466D JUMP JUMPDEST SWAP1 POP SWAP3 SWAP2 POP POP JUMP JUMPDEST PUSH1 0x0 DUP3 PUSH1 0x1F DUP4 ADD SLT ISZERO ISZERO PUSH2 0x3951 JUMPI PUSH1 0x0 DUP1 REVERT JUMPDEST DUP2 CALLDATALOAD PUSH2 0x3964 PUSH2 0x395F DUP3 PUSH2 0x4533 JUMP JUMPDEST PUSH2 0x44B6 JUMP JUMPDEST SWAP2 POP DUP1 DUP3 MSTORE PUSH1 0x20 DUP4 ADD PUSH1 0x20 DUP4 ADD DUP6 DUP4 DUP4 ADD GT ISZERO PUSH2 0x3980 JUMPI PUSH1 0x0 DUP1 REVERT JUMPDEST PUSH2 0x398B DUP4 DUP3 DUP5 PUSH2 0x469D JUMP JUMPDEST POP POP POP SWAP3 SWAP2 POP POP JUMP JUMPDEST PUSH1 0x0 PUSH2 0x39A0 DUP3 CALLDATALOAD PUSH2 0x4677 JUMP JUMPDEST SWAP1 POP SWAP3 SWAP2 POP POP JUMP JUMPDEST PUSH1 0x0 PUSH2 0x39B4 DUP3 CALLDATALOAD PUSH2 0x4693 JUMP JUMPDEST SWAP1 POP SWAP3 SWAP2 POP POP JUMP JUMPDEST PUSH1 0x0 PUSH2 0x39C8 DUP3 MLOAD PUSH2 0x4693 JUMP JUMPDEST SWAP1 POP SWAP3 SWAP2 POP POP JUMP JUMPDEST PUSH1 0x0 PUSH1 0x20 DUP3 DUP5 SUB SLT ISZERO PUSH2 0x39E2 JUMPI PUSH1 0x0 DUP1 REVERT JUMPDEST PUSH1 0x0 PUSH2 0x39F0 DUP5 DUP3 DUP6 ADD PUSH2 0x37DF JUMP JUMPDEST SWAP2 POP POP SWAP3 SWAP2 POP POP JUMP JUMPDEST PUSH1 0x0 DUP1 PUSH1 0x40 DUP4 DUP6 SUB SLT ISZERO PUSH2 0x3A0C JUMPI PUSH1 0x0 DUP1 REVERT JUMPDEST PUSH1 0x0 PUSH2 0x3A1A DUP6 DUP3 DUP7 ADD PUSH2 0x37DF JUMP JUMPDEST SWAP3 POP POP PUSH1 0x20 PUSH2 0x3A2B DUP6 DUP3 DUP7 ADD PUSH2 0x38EE JUMP JUMPDEST SWAP2 POP POP SWAP3 POP SWAP3 SWAP1 POP JUMP JUMPDEST PUSH1 0x0 DUP1 PUSH1 0x40 DUP4 DUP6 SUB SLT ISZERO PUSH2 0x3A48 JUMPI PUSH1 0x0 DUP1 REVERT JUMPDEST PUSH1 0x0 PUSH2 0x3A56 DUP6 DUP3 DUP7 ADD PUSH2 0x37DF JUMP JUMPDEST SWAP3 POP POP PUSH1 0x20 PUSH2 0x3A67 DUP6 DUP3 DUP7 ADD PUSH2 0x39A8 JUMP JUMPDEST SWAP2 POP POP SWAP3 POP SWAP3 SWAP1 POP JUMP JUMPDEST PUSH1 0x0 PUSH1 0x20 DUP3 DUP5 SUB SLT ISZERO PUSH2 0x3A83 JUMPI PUSH1 0x0 DUP1 REVERT JUMPDEST PUSH1 0x0 PUSH2 0x3A91 DUP5 DUP3 DUP6 ADD PUSH2 0x3902 JUMP JUMPDEST SWAP2 POP POP SWAP3 SWAP2 POP POP JUMP JUMPDEST PUSH1 0x0 DUP1 PUSH1 0x40 DUP4 DUP6 SUB SLT ISZERO PUSH2 0x3AAD JUMPI PUSH1 0x0 DUP1 REVERT JUMPDEST PUSH1 0x0 PUSH2 0x3ABB DUP6 DUP3 DUP7 ADD PUSH2 0x3916 JUMP JUMPDEST SWAP3 POP POP PUSH1 0x20 PUSH2 0x3ACC DUP6 DUP3 DUP7 ADD PUSH2 0x392A JUMP JUMPDEST SWAP2 POP POP SWAP3 POP SWAP3 SWAP1 POP JUMP JUMPDEST PUSH1 0x0 DUP1 PUSH1 0x0 PUSH1 0x60 DUP5 DUP7 SUB SLT ISZERO PUSH2 0x3AEB JUMPI PUSH1 0x0 DUP1 REVERT JUMPDEST PUSH1 0x0 PUSH2 0x3AF9 DUP7 DUP3 DUP8 ADD PUSH2 0x3916 JUMP JUMPDEST SWAP4 POP POP PUSH1 0x20 PUSH2 0x3B0A DUP7 DUP3 DUP8 ADD PUSH2 0x39A8 JUMP JUMPDEST SWAP3 POP POP PUSH1 0x40 PUSH2 0x3B1B DUP7 DUP3 DUP8 ADD PUSH2 0x39A8 JUMP JUMPDEST SWAP2 POP POP SWAP3 POP SWAP3 POP SWAP3 JUMP JUMPDEST PUSH1 0x0 DUP1 PUSH1 0x0 PUSH1 0x60 DUP5 DUP7 SUB SLT ISZERO PUSH2 0x3B3A JUMPI PUSH1 0x0 DUP1 REVERT JUMPDEST PUSH1 0x0 PUSH2 0x3B48 DUP7 DUP3 DUP8 ADD PUSH2 0x3994 JUMP JUMPDEST SWAP4 POP POP PUSH1 0x20 DUP5 ADD CALLDATALOAD PUSH8 0xFFFFFFFFFFFFFFFF DUP2 GT ISZERO PUSH2 0x3B65 JUMPI PUSH1 0x0 DUP1 REVERT JUMPDEST PUSH2 0x3B71 DUP7 DUP3 DUP8 ADD PUSH2 0x37F3 JUMP JUMPDEST SWAP3 POP POP PUSH1 0x40 DUP5 ADD CALLDATALOAD PUSH8 0xFFFFFFFFFFFFFFFF DUP2 GT ISZERO PUSH2 0x3B8E JUMPI PUSH1 0x0 DUP1 REVERT JUMPDEST PUSH2 0x3B9A DUP7 DUP3 DUP8 ADD PUSH2 0x3878 JUMP JUMPDEST SWAP2 POP POP SWAP3 POP SWAP3 POP SWAP3 JUMP JUMPDEST PUSH1 0x0 PUSH1 0x20 DUP3 DUP5 SUB SLT ISZERO PUSH2 0x3BB6 JUMPI PUSH1 0x0 DUP1 REVERT JUMPDEST PUSH1 0x0 PUSH2 0x3BC4 DUP5 DUP3 DUP6 ADD PUSH2 0x39A8 JUMP JUMPDEST SWAP2 POP POP SWAP3 SWAP2 POP POP JUMP JUMPDEST PUSH1 0x0 PUSH1 0x20 DUP3 DUP5 SUB SLT ISZERO PUSH2 0x3BDF JUMPI PUSH1 0x0 DUP1 REVERT JUMPDEST PUSH1 0x0 PUSH2 0x3BED DUP5 DUP3 DUP6 ADD PUSH2 0x39BC JUMP JUMPDEST SWAP2 POP POP SWAP3 SWAP2 POP POP JUMP JUMPDEST PUSH2 0x3BFF DUP2 PUSH2 0x45A5 JUMP JUMPDEST DUP3 MSTORE POP POP JUMP JUMPDEST PUSH1 0x0 PUSH2 0x3C10 DUP3 PUSH2 0x456C JUMP JUMPDEST DUP1 DUP5 MSTORE PUSH1 0x20 DUP5 ADD SWAP4 POP PUSH2 0x3C22 DUP4 PUSH2 0x455F JUMP JUMPDEST PUSH1 0x0 JUMPDEST DUP3 DUP2 LT ISZERO PUSH2 0x3C54 JUMPI PUSH2 0x3C38 DUP7 DUP4 MLOAD PUSH2 0x3CF9 JUMP JUMPDEST PUSH2 0x3C41 DUP3 PUSH2 0x4598 JUMP JUMPDEST SWAP2 POP PUSH1 0x20 DUP7 ADD SWAP6 POP PUSH1 0x1 DUP2 ADD SWAP1 POP PUSH2 0x3C25 JUMP JUMPDEST POP DUP5 SWAP3 POP POP POP SWAP3 SWAP2 POP POP JUMP JUMPDEST PUSH2 0x3C69 DUP2 PUSH2 0x45C5 JUMP JUMPDEST DUP3 MSTORE POP POP JUMP JUMPDEST PUSH2 0x3C78 DUP2 PUSH2 0x45D1 JUMP JUMPDEST DUP3 MSTORE POP POP JUMP JUMPDEST PUSH2 0x3C87 DUP2 PUSH2 0x45DB JUMP JUMPDEST DUP3 MSTORE POP POP JUMP JUMPDEST PUSH1 0x0 PUSH2 0x3C98 DUP3 PUSH2 0x4582 JUMP JUMPDEST DUP1 DUP5 MSTORE PUSH2 0x3CAC DUP2 PUSH1 0x20 DUP7 ADD PUSH1 0x20 DUP7 ADD PUSH2 0x46AC JUMP JUMPDEST PUSH2 0x3CB5 DUP2 PUSH2 0x46DF JUMP JUMPDEST PUSH1 0x20 DUP6 ADD ADD SWAP2 POP POP SWAP3 SWAP2 POP POP JUMP JUMPDEST PUSH1 0x0 PUSH2 0x3CCE DUP3 PUSH2 0x4577 JUMP JUMPDEST DUP1 DUP5 MSTORE PUSH2 0x3CE2 DUP2 PUSH1 0x20 DUP7 ADD PUSH1 0x20 DUP7 ADD PUSH2 0x46AC JUMP JUMPDEST PUSH2 0x3CEB DUP2 PUSH2 0x46DF JUMP JUMPDEST PUSH1 0x20 DUP6 ADD ADD SWAP2 POP POP SWAP3 SWAP2 POP POP JUMP JUMPDEST PUSH2 0x3D02 DUP2 PUSH2 0x4607 JUMP JUMPDEST DUP3 MSTORE POP POP JUMP JUMPDEST PUSH1 0x0 PUSH2 0x3D13 DUP3 PUSH2 0x458D JUMP JUMPDEST DUP1 DUP5 MSTORE PUSH2 0x3D27 DUP2 PUSH1 0x20 DUP7 ADD PUSH1 0x20 DUP7 ADD PUSH2 0x46AC JUMP JUMPDEST PUSH2 0x3D30 DUP2 PUSH2 0x46DF JUMP JUMPDEST PUSH1 0x20 DUP6 ADD ADD SWAP2 POP POP SWAP3 SWAP2 POP POP JUMP JUMPDEST PUSH1 0x0 PUSH1 0x2F DUP3 MSTORE PUSH32 0x4E6F7420616E20617574686F72697A6564206164647265737320666F72206372 PUSH1 0x20 DUP4 ADD MSTORE PUSH32 0x656174696E672072657175657374730000000000000000000000000000000000 PUSH1 0x40 DUP4 ADD MSTORE PUSH1 0x60 DUP3 ADD SWAP1 POP SWAP2 SWAP1 POP JUMP JUMPDEST PUSH1 0x0 PUSH1 0x19 DUP3 MSTORE PUSH32 0x4E4F545F4D4F52455F5448414E5F3130305F414C4C4F57454400000000000000 PUSH1 0x20 DUP4 ADD MSTORE PUSH1 0x40 DUP3 ADD SWAP1 POP SWAP2 SWAP1 POP JUMP JUMPDEST PUSH1 0x0 PUSH1 0x23 DUP3 MSTORE PUSH32 0x756E61626C6520746F207472616E73666572416E6443616C6C20746F206F7261 PUSH1 0x20 DUP4 ADD MSTORE PUSH32 0x636C650000000000000000000000000000000000000000000000000000000000 PUSH1 0x40 DUP4 ADD MSTORE PUSH1 0x60 DUP3 ADD SWAP1 POP SWAP2 SWAP1 POP JUMP JUMPDEST PUSH1 0x0 PUSH1 0x21 DUP3 MSTORE PUSH32 0x5369676E6564536166654D6174683A206164646974696F6E206F766572666C6F PUSH1 0x20 DUP4 ADD MSTORE PUSH32 0x7700000000000000000000000000000000000000000000000000000000000000 PUSH1 0x40 DUP4 ADD MSTORE PUSH1 0x60 DUP3 ADD SWAP1 POP SWAP2 SWAP1 POP JUMP JUMPDEST PUSH1 0x0 PUSH1 0x23 DUP3 MSTORE PUSH32 0x43616E6E6F74206D6F6469667920616E20696E2D70726F677265737320616E73 PUSH1 0x20 DUP4 ADD MSTORE PUSH32 0x7765720000000000000000000000000000000000000000000000000000000000 PUSH1 0x40 DUP4 ADD MSTORE PUSH1 0x60 DUP3 ADD SWAP1 POP SWAP2 SWAP1 POP JUMP JUMPDEST PUSH1 0x0 PUSH1 0x20 DUP3 MSTORE PUSH32 0x63616E6E6F742068617665206D6F7265207468616E203435206F7261636C6573 PUSH1 0x20 DUP4 ADD MSTORE PUSH1 0x40 DUP3 ADD SWAP1 POP SWAP2 SWAP1 POP JUMP JUMPDEST PUSH1 0x0 PUSH1 0x2F DUP3 MSTORE PUSH32 0x6D7573742068617665206174206C65617374206173206D616E79206F7261636C PUSH1 0x20 DUP4 ADD MSTORE PUSH32 0x657320617320726573706F6E7365730000000000000000000000000000000000 PUSH1 0x40 DUP4 ADD MSTORE PUSH1 0x60 DUP3 ADD SWAP1 POP SWAP2 SWAP1 POP JUMP JUMPDEST PUSH1 0x0 PUSH1 0x13 DUP3 MSTORE PUSH32 0x504C49207472616E73666572206661696C656400000000000000000000000000 PUSH1 0x20 DUP4 ADD MSTORE PUSH1 0x40 DUP3 ADD SWAP1 POP SWAP2 SWAP1 POP JUMP JUMPDEST PUSH1 0x0 PUSH1 0x15 DUP3 MSTORE PUSH32 0x4E4F5F53554646494349454E545F435245444954530000000000000000000000 PUSH1 0x20 DUP4 ADD MSTORE PUSH1 0x40 DUP3 ADD SWAP1 POP SWAP2 SWAP1 POP JUMP JUMPDEST PUSH1 0x0 PUSH1 0x28 DUP3 MSTORE PUSH32 0x536F75726365206D75737420626520746865206F7261636C65206F6620746865 PUSH1 0x20 DUP4 ADD MSTORE PUSH32 0x2072657175657374000000000000000000000000000000000000000000000000 PUSH1 0x40 DUP4 ADD MSTORE PUSH1 0x60 DUP3 ADD SWAP1 POP SWAP2 SWAP1 POP JUMP JUMPDEST PUSH1 0x0 PUSH1 0x2C DUP3 MSTORE PUSH32 0x6D75737420686176652065786163746C79206173206D616E79206F7261636C65 PUSH1 0x20 DUP4 ADD MSTORE PUSH32 0x73206173206A6F62204944730000000000000000000000000000000000000000 PUSH1 0x40 DUP4 ADD MSTORE PUSH1 0x60 DUP3 ADD SWAP1 POP SWAP2 SWAP1 POP JUMP JUMPDEST PUSH2 0x40AE DUP2 PUSH2 0x4611 JUMP JUMPDEST DUP3 MSTORE POP POP JUMP JUMPDEST PUSH2 0x40BD DUP2 PUSH2 0x462D JUMP JUMPDEST DUP3 MSTORE POP POP JUMP JUMPDEST PUSH1 0x0 PUSH1 0x20 DUP3 ADD SWAP1 POP PUSH2 0x40D8 PUSH1 0x0 DUP4 ADD DUP5 PUSH2 0x3BF6 JUMP JUMPDEST SWAP3 SWAP2 POP POP JUMP JUMPDEST PUSH1 0x0 PUSH1 0x60 DUP3 ADD SWAP1 POP PUSH2 0x40F3 PUSH1 0x0 DUP4 ADD DUP7 PUSH2 0x3BF6 JUMP JUMPDEST PUSH2 0x4100 PUSH1 0x20 DUP4 ADD DUP6 PUSH2 0x3BF6 JUMP JUMPDEST PUSH2 0x410D PUSH1 0x40 DUP4 ADD DUP5 PUSH2 0x40B4 JUMP JUMPDEST SWAP5 SWAP4 POP POP POP POP JUMP JUMPDEST PUSH1 0x0 PUSH1 0x40 DUP3 ADD SWAP1 POP PUSH2 0x412A PUSH1 0x0 DUP4 ADD DUP6 PUSH2 0x3BF6 JUMP JUMPDEST PUSH2 0x4137 PUSH1 0x20 DUP4 ADD DUP5 PUSH2 0x40B4 JUMP JUMPDEST SWAP4 SWAP3 POP POP POP JUMP JUMPDEST PUSH1 0x0 PUSH2 0x100 DUP3 ADD SWAP1 POP PUSH2 0x4154 PUSH1 0x0 DUP4 ADD DUP12 PUSH2 0x3BF6 JUMP JUMPDEST PUSH2 0x4161 PUSH1 0x20 DUP4 ADD DUP11 PUSH2 0x40B4 JUMP JUMPDEST PUSH2 0x416E PUSH1 0x40 DUP4 ADD DUP10 PUSH2 0x3C6F JUMP JUMPDEST PUSH2 0x417B PUSH1 0x60 DUP4 ADD DUP9 PUSH2 0x3BF6 JUMP JUMPDEST PUSH2 0x4188 PUSH1 0x80 DUP4 ADD DUP8 PUSH2 0x3C7E JUMP JUMPDEST PUSH2 0x4195 PUSH1 0xA0 DUP4 ADD DUP7 PUSH2 0x40B4 JUMP JUMPDEST PUSH2 0x41A2 PUSH1 0xC0 DUP4 ADD DUP6 PUSH2 0x40B4 JUMP JUMPDEST DUP2 DUP2 SUB PUSH1 0xE0 DUP4 ADD MSTORE PUSH2 0x41B4 DUP2 DUP5 PUSH2 0x3CC3 JUMP JUMPDEST SWAP1 POP SWAP10 SWAP9 POP POP POP POP POP POP POP POP POP JUMP JUMPDEST PUSH1 0x0 PUSH1 0x60 DUP3 ADD SWAP1 POP PUSH2 0x41D8 PUSH1 0x0 DUP4 ADD DUP7 PUSH2 0x3BF6 JUMP JUMPDEST PUSH2 0x41E5 PUSH1 0x20 DUP4 ADD DUP6 PUSH2 0x40B4 JUMP JUMPDEST DUP2 DUP2 SUB PUSH1 0x40 DUP4 ADD MSTORE PUSH2 0x41F7 DUP2 DUP5 PUSH2 0x3C8D JUMP JUMPDEST SWAP1 POP SWAP5 SWAP4 POP POP POP POP JUMP JUMPDEST PUSH1 0x0 PUSH1 0x20 DUP3 ADD SWAP1 POP DUP2 DUP2 SUB PUSH1 0x0 DUP4 ADD MSTORE PUSH2 0x421B DUP2 DUP5 PUSH2 0x3C05 JUMP JUMPDEST SWAP1 POP SWAP3 SWAP2 POP POP JUMP JUMPDEST PUSH1 0x0 PUSH1 0x20 DUP3 ADD SWAP1 POP PUSH2 0x4238 PUSH1 0x0 DUP4 ADD DUP5 PUSH2 0x3C60 JUMP JUMPDEST SWAP3 SWAP2 POP POP JUMP JUMPDEST PUSH1 0x0 PUSH1 0x80 DUP3 ADD SWAP1 POP PUSH2 0x4253 PUSH1 0x0 DUP4 ADD DUP8 PUSH2 0x3C6F JUMP JUMPDEST PUSH2 0x4260 PUSH1 0x20 DUP4 ADD DUP7 PUSH2 0x40B4 JUMP JUMPDEST PUSH2 0x426D PUSH1 0x40 DUP4 ADD DUP6 PUSH2 0x3C7E JUMP JUMPDEST PUSH2 0x427A PUSH1 0x60 DUP4 ADD DUP5 PUSH2 0x40B4 JUMP JUMPDEST SWAP6 SWAP5 POP POP POP POP POP JUMP JUMPDEST PUSH1 0x0 PUSH1 0x20 DUP3 ADD SWAP1 POP PUSH2 0x4298 PUSH1 0x0 DUP4 ADD DUP5 PUSH2 0x3CF9 JUMP JUMPDEST SWAP3 SWAP2 POP POP JUMP JUMPDEST PUSH1 0x0 PUSH1 0x20 DUP3 ADD SWAP1 POP DUP2 DUP2 SUB PUSH1 0x0 DUP4 ADD MSTORE PUSH2 0x42B8 DUP2 DUP5 PUSH2 0x3D08 JUMP JUMPDEST SWAP1 POP SWAP3 SWAP2 POP POP JUMP JUMPDEST PUSH1 0x0 PUSH1 0x20 DUP3 ADD SWAP1 POP DUP2 DUP2 SUB PUSH1 0x0 DUP4 ADD MSTORE PUSH2 0x42D9 DUP2 PUSH2 0x3D3E JUMP JUMPDEST SWAP1 POP SWAP2 SWAP1 POP JUMP JUMPDEST PUSH1 0x0 PUSH1 0x20 DUP3 ADD SWAP1 POP DUP2 DUP2 SUB PUSH1 0x0 DUP4 ADD MSTORE PUSH2 0x42F9 DUP2 PUSH2 0x3D9B JUMP JUMPDEST SWAP1 POP SWAP2 SWAP1 POP JUMP JUMPDEST PUSH1 0x0 PUSH1 0x20 DUP3 ADD SWAP1 POP DUP2 DUP2 SUB PUSH1 0x0 DUP4 ADD MSTORE PUSH2 0x4319 DUP2 PUSH2 0x3DD2 JUMP JUMPDEST SWAP1 POP SWAP2 SWAP1 POP JUMP JUMPDEST PUSH1 0x0 PUSH1 0x20 DUP3 ADD SWAP1 POP DUP2 DUP2 SUB PUSH1 0x0 DUP4 ADD MSTORE PUSH2 0x4339 DUP2 PUSH2 0x3E2F JUMP JUMPDEST SWAP1 POP SWAP2 SWAP1 POP JUMP JUMPDEST PUSH1 0x0 PUSH1 0x20 DUP3 ADD SWAP1 POP DUP2 DUP2 SUB PUSH1 0x0 DUP4 ADD MSTORE PUSH2 0x4359 DUP2 PUSH2 0x3E8C JUMP JUMPDEST SWAP1 POP SWAP2 SWAP1 POP JUMP JUMPDEST PUSH1 0x0 PUSH1 0x20 DUP3 ADD SWAP1 POP DUP2 DUP2 SUB PUSH1 0x0 DUP4 ADD MSTORE PUSH2 0x4379 DUP2 PUSH2 0x3EE9 JUMP JUMPDEST SWAP1 POP SWAP2 SWAP1 POP JUMP JUMPDEST PUSH1 0x0 PUSH1 0x20 DUP3 ADD SWAP1 POP DUP2 DUP2 SUB PUSH1 0x0 DUP4 ADD MSTORE PUSH2 0x4399 DUP2 PUSH2 0x3F20 JUMP JUMPDEST SWAP1 POP SWAP2 SWAP1 POP JUMP JUMPDEST PUSH1 0x0 PUSH1 0x20 DUP3 ADD SWAP1 POP DUP2 DUP2 SUB PUSH1 0x0 DUP4 ADD MSTORE PUSH2 0x43B9 DUP2 PUSH2 0x3F7D JUMP JUMPDEST SWAP1 POP SWAP2 SWAP1 POP JUMP JUMPDEST PUSH1 0x0 PUSH1 0x20 DUP3 ADD SWAP1 POP DUP2 DUP2 SUB PUSH1 0x0 DUP4 ADD MSTORE PUSH2 0x43D9 DUP2 PUSH2 0x3FB4 JUMP JUMPDEST SWAP1 POP SWAP2 SWAP1 POP JUMP JUMPDEST PUSH1 0x0 PUSH1 0x20 DUP3 ADD SWAP1 POP DUP2 DUP2 SUB PUSH1 0x0 DUP4 ADD MSTORE PUSH2 0x43F9 DUP2 PUSH2 0x3FEB JUMP JUMPDEST SWAP1 POP SWAP2 SWAP1 POP JUMP JUMPDEST PUSH1 0x0 PUSH1 0x20 DUP3 ADD SWAP1 POP DUP2 DUP2 SUB PUSH1 0x0 DUP4 ADD MSTORE PUSH2 0x4419 DUP2 PUSH2 0x4048 JUMP JUMPDEST SWAP1 POP SWAP2 SWAP1 POP JUMP JUMPDEST PUSH1 0x0 PUSH1 0x20 DUP3 ADD SWAP1 POP PUSH2 0x4435 PUSH1 0x0 DUP4 ADD DUP5 PUSH2 0x40A5 JUMP JUMPDEST SWAP3 SWAP2 POP POP JUMP JUMPDEST PUSH1 0x0 PUSH1 0x20 DUP3 ADD SWAP1 POP PUSH2 0x4450 PUSH1 0x0 DUP4 ADD DUP5 PUSH2 0x40B4 JUMP JUMPDEST SWAP3 SWAP2 POP POP JUMP JUMPDEST PUSH1 0x0 PUSH1 0x40 DUP3 ADD SWAP1 POP PUSH2 0x446B PUSH1 0x0 DUP4 ADD DUP6 PUSH2 0x40B4 JUMP JUMPDEST PUSH2 0x4478 PUSH1 0x20 DUP4 ADD DUP5 PUSH2 0x40B4 JUMP JUMPDEST SWAP4 SWAP3 POP POP POP JUMP JUMPDEST PUSH1 0x0 PUSH1 0x60 DUP3 ADD SWAP1 POP PUSH2 0x4494 PUSH1 0x0 DUP4 ADD DUP7 PUSH2 0x40B4 JUMP JUMPDEST PUSH2 0x44A1 PUSH1 0x20 DUP4 ADD DUP6 PUSH2 0x40B4 JUMP JUMPDEST PUSH2 0x44AE PUSH1 0x40 DUP4 ADD DUP5 PUSH2 0x40B4 JUMP JUMPDEST SWAP5 SWAP4 POP POP POP POP JUMP JUMPDEST PUSH1 0x0 PUSH1 0x40 MLOAD SWAP1 POP DUP2 DUP2 ADD DUP2 DUP2 LT PUSH8 0xFFFFFFFFFFFFFFFF DUP3 GT OR ISZERO PUSH2 0x44D9 JUMPI PUSH1 0x0 DUP1 REVERT JUMPDEST DUP1 PUSH1 0x40 MSTORE POP SWAP2 SWAP1 POP JUMP JUMPDEST PUSH1 0x0 PUSH8 0xFFFFFFFFFFFFFFFF DUP3 GT ISZERO PUSH2 0x44FA JUMPI PUSH1 0x0 DUP1 REVERT JUMPDEST PUSH1 0x20 DUP3 MUL SWAP1 POP PUSH1 0x20 DUP2 ADD SWAP1 POP SWAP2 SWAP1 POP JUMP JUMPDEST PUSH1 0x0 PUSH8 0xFFFFFFFFFFFFFFFF DUP3 GT ISZERO PUSH2 0x4522 JUMPI PUSH1 0x0 DUP1 REVERT JUMPDEST PUSH1 0x20 DUP3 MUL SWAP1 POP PUSH1 0x20 DUP2 ADD SWAP1 POP SWAP2 SWAP1 POP JUMP JUMPDEST PUSH1 0x0 PUSH8 0xFFFFFFFFFFFFFFFF DUP3 GT ISZERO PUSH2 0x454A JUMPI PUSH1 0x0 DUP1 REVERT JUMPDEST PUSH1 0x1F NOT PUSH1 0x1F DUP4 ADD AND SWAP1 POP PUSH1 0x20 DUP2 ADD SWAP1 POP SWAP2 SWAP1 POP JUMP JUMPDEST PUSH1 0x0 PUSH1 0x20 DUP3 ADD SWAP1 POP SWAP2 SWAP1 POP JUMP JUMPDEST PUSH1 0x0 DUP2 MLOAD SWAP1 POP SWAP2 SWAP1 POP JUMP JUMPDEST PUSH1 0x0 DUP2 MLOAD SWAP1 POP SWAP2 SWAP1 POP JUMP JUMPDEST PUSH1 0x0 DUP2 MLOAD SWAP1 POP SWAP2 SWAP1 POP JUMP JUMPDEST PUSH1 0x0 DUP2 MLOAD SWAP1 POP SWAP2 SWAP1 POP JUMP JUMPDEST PUSH1 0x0 PUSH1 0x20 DUP3 ADD SWAP1 POP SWAP2 SWAP1 POP JUMP JUMPDEST PUSH1 0x0 PUSH20 0xFFFFFFFFFFFFFFFFFFFFFFFFFFFFFFFFFFFFFFFF DUP3 AND SWAP1 POP SWAP2 SWAP1 POP JUMP JUMPDEST PUSH1 0x0 DUP2 ISZERO ISZERO SWAP1 POP SWAP2 SWAP1 POP JUMP JUMPDEST PUSH1 0x0 DUP2 SWAP1 POP SWAP2 SWAP1 POP JUMP JUMPDEST PUSH1 0x0 PUSH32 0xFFFFFFFF00000000000000000000000000000000000000000000000000000000 DUP3 AND SWAP1 POP SWAP2 SWAP1 POP JUMP JUMPDEST PUSH1 0x0 DUP2 SWAP1 POP SWAP2 SWAP1 POP JUMP JUMPDEST PUSH1 0x0 PUSH16 0xFFFFFFFFFFFFFFFFFFFFFFFFFFFFFFFF DUP3 AND SWAP1 POP SWAP2 SWAP1 POP JUMP JUMPDEST PUSH1 0x0 DUP2 SWAP1 POP SWAP2 SWAP1 POP JUMP JUMPDEST PUSH1 0x0 PUSH20 0xFFFFFFFFFFFFFFFFFFFFFFFFFFFFFFFFFFFFFFFF DUP3 AND SWAP1 POP SWAP2 SWAP1 POP JUMP JUMPDEST PUSH1 0x0 DUP2 ISZERO ISZERO SWAP1 POP SWAP2 SWAP1 POP JUMP JUMPDEST PUSH1 0x0 DUP2 SWAP1 POP SWAP2 SWAP1 POP JUMP JUMPDEST PUSH1 0x0 DUP2 SWAP1 POP SWAP2 SWAP1 POP JUMP JUMPDEST PUSH1 0x0 PUSH16 0xFFFFFFFFFFFFFFFFFFFFFFFFFFFFFFFF DUP3 AND SWAP1 POP SWAP2 SWAP1 POP JUMP JUMPDEST PUSH1 0x0 DUP2 SWAP1 POP SWAP2 SWAP1 POP JUMP JUMPDEST DUP3 DUP2 DUP4 CALLDATACOPY PUSH1 0x0 DUP4 DUP4 ADD MSTORE POP POP POP JUMP JUMPDEST PUSH1 0x0 JUMPDEST DUP4 DUP2 LT ISZERO PUSH2 0x46CA JUMPI DUP1 DUP3 ADD MLOAD DUP2 DUP5 ADD MSTORE PUSH1 0x20 DUP2 ADD SWAP1 POP PUSH2 0x46AF JUMP JUMPDEST DUP4 DUP2 GT ISZERO PUSH2 0x46D9 JUMPI PUSH1 0x0 DUP5 DUP5 ADD MSTORE JUMPDEST POP POP POP POP JUMP JUMPDEST PUSH1 0x0 PUSH1 0x1F NOT PUSH1 0x1F DUP4 ADD AND SWAP1 POP SWAP2 SWAP1 POP JUMP STOP LOG2 PUSH6 0x627A7A723058 KECCAK256 SWAP3 PUSH18 0x354B44B1F55A5B0085962F8C6DFCE40468CC RETURNDATACOPY SLOAD 0x2a SHL PUSH31 0x58C3CE31D202986C6578706572696D656E74616CF500370000000000000000 "
		},
		"gasEstimates": {
			"creation": {
				"codeDepositCost": "3643600",
				"executionCost": "infinite",
				"totalCost": "infinite"
			},
			"external": {
				"_aggRequestId()": "1134",
				"authorizedRequesters(address)": "927",
				"cancelRequest(bytes32,uint256,uint256)": "infinite",
				"depositPLI(uint256)": "infinite",
				"destroy()": "infinite",
				"getAnswer(uint256)": "1213",
				"getOracleResponses()": "infinite",
				"getTimestamp(uint256)": "1235",
				"jobIds(uint256)": "infinite",
				"latestAnswer()": "936",
				"latestRound()": "746",
				"latestTimestamp()": "1068",
				"minimumResponses()": "764",
				"oracleResponses(uint256)": "1575",
				"oracles(uint256)": "1232",
				"owner()": "868",
				"paymentAmount()": "1022",
				"plidbs(address)": "1550",
				"pluginCallback(bytes32,int256)": "infinite",
				"prices(uint256)": "infinite",
				"renounceOwnership()": "22315",
				"requestData(address)": "infinite",
				"setAuthorization(address,bool)": "21681",
				"showPrice(uint256)": "infinite",
				"testMyFunc()": "infinite",
				"totalResponseReceived()": "540",
				"transferOwnership(address)": "23340",
				"transferPLI(address,uint256)": "infinite",
				"updateRequestDetails(uint128,address[],string[])": "infinite"
			},
			"internal": {
				"deleteAnswer(uint256)": "infinite",
				"quickselect(int256[] memory,uint256)": "infinite",
				"stringToBytes32(string memory)": "infinite",
				"swap(int256[] memory,int256[] memory)": "44",
				"updateLatestAnswer(uint256)": "infinite"
			}
		},
		"methodIdentifiers": {
			"_aggRequestId()": "f3d6d2a1",
			"authorizedRequesters(address)": "3ea478aa",
			"cancelRequest(bytes32,uint256,uint256)": "33bfcdd8",
			"depositPLI(uint256)": "d378d5eb",
			"destroy()": "83197ef0",
			"getAnswer(uint256)": "b5ab58dc",
			"getOracleResponses()": "dd5fd792",
			"getTimestamp(uint256)": "b633620c",
			"jobIds(uint256)": "4162cc88",
			"latestAnswer()": "50d25bcd",
			"latestRound()": "668a0f02",
			"latestTimestamp()": "8205bf6a",
			"minimumResponses()": "54bcd7ff",
			"oracleResponses(uint256)": "e46d2250",
			"oracles(uint256)": "5b69a7d8",
			"owner()": "8da5cb5b",
			"paymentAmount()": "c35905c6",
			"plidbs(address)": "a2e36c5f",
			"pluginCallback(bytes32,int256)": "0172e145",
			"prices(uint256)": "bc31c1c1",
			"renounceOwnership()": "715018a6",
			"requestData(address)": "9dd4cc5d",
			"setAuthorization(address,bool)": "eecea000",
			"showPrice(uint256)": "64bb057f",
			"testMyFunc()": "2d8c762c",
			"totalResponseReceived()": "05c165bf",
			"transferOwnership(address)": "f2fde38b",
			"transferPLI(address,uint256)": "8e62ef0c",
			"updateRequestDetails(uint128,address[],string[])": "d163f715"
		}
	},
	"abi": [
		{
			"constant": false,
			"inputs": [
				{
					"name": "_clRequestId",
					"type": "bytes32"
				},
				{
					"name": "_response",
					"type": "int256"
				}
			],
			"name": "pluginCallback",
			"outputs": [],
			"payable": false,
			"stateMutability": "nonpayable",
			"type": "function"
		},
		{
			"constant": true,
			"inputs": [],
			"name": "totalResponseReceived",
			"outputs": [
				{
					"name": "",
					"type": "uint256"
				}
			],
			"payable": false,
			"stateMutability": "view",
			"type": "function"
		},
		{
			"constant": false,
			"inputs": [],
			"name": "testMyFunc",
			"outputs": [],
			"payable": false,
			"stateMutability": "nonpayable",
			"type": "function"
		},
		{
			"constant": false,
			"inputs": [
				{
					"name": "_requestId",
					"type": "bytes32"
				},
				{
					"name": "_payment",
					"type": "uint256"
				},
				{
					"name": "_expiration",
					"type": "uint256"
				}
			],
			"name": "cancelRequest",
			"outputs": [],
			"payable": false,
			"stateMutability": "nonpayable",
			"type": "function"
		},
		{
			"constant": true,
			"inputs": [
				{
					"name": "",
					"type": "address"
				}
			],
			"name": "authorizedRequesters",
			"outputs": [
				{
					"name": "",
					"type": "bool"
				}
			],
			"payable": false,
			"stateMutability": "view",
			"type": "function"
		},
		{
			"constant": true,
			"inputs": [
				{
					"name": "",
					"type": "uint256"
				}
			],
			"name": "jobIds",
			"outputs": [
				{
					"name": "",
					"type": "string"
				}
			],
			"payable": false,
			"stateMutability": "view",
			"type": "function"
		},
		{
			"constant": true,
			"inputs": [],
			"name": "latestAnswer",
			"outputs": [
				{
					"name": "",
					"type": "int256"
				}
			],
			"payable": false,
			"stateMutability": "view",
			"type": "function"
		},
		{
			"constant": true,
			"inputs": [],
			"name": "minimumResponses",
			"outputs": [
				{
					"name": "",
					"type": "uint128"
				}
			],
			"payable": false,
			"stateMutability": "view",
			"type": "function"
		},
		{
			"constant": true,
			"inputs": [
				{
					"name": "",
					"type": "uint256"
				}
			],
			"name": "oracles",
			"outputs": [
				{
					"name": "",
					"type": "address"
				}
			],
			"payable": false,
			"stateMutability": "view",
			"type": "function"
		},
		{
			"constant": true,
			"inputs": [
				{
					"name": "_agreqId",
					"type": "uint256"
				}
			],
			"name": "showPrice",
			"outputs": [
				{
					"name": "",
					"type": "uint256"
				},
				{
					"name": "",
					"type": "uint256"
				}
			],
			"payable": false,
			"stateMutability": "view",
			"type": "function"
		},
		{
			"constant": true,
			"inputs": [],
			"name": "latestRound",
			"outputs": [
				{
					"name": "",
					"type": "uint256"
				}
			],
			"payable": false,
			"stateMutability": "view",
			"type": "function"
		},
		{
			"constant": false,
			"inputs": [],
			"name": "renounceOwnership",
			"outputs": [],
			"payable": false,
			"stateMutability": "nonpayable",
			"type": "function"
		},
		{
			"constant": true,
			"inputs": [],
			"name": "latestTimestamp",
			"outputs": [
				{
					"name": "",
					"type": "uint256"
				}
			],
			"payable": false,
			"stateMutability": "view",
			"type": "function"
		},
		{
			"constant": false,
			"inputs": [],
			"name": "destroy",
			"outputs": [],
			"payable": false,
			"stateMutability": "nonpayable",
			"type": "function"
		},
		{
			"constant": true,
			"inputs": [],
			"name": "owner",
			"outputs": [
				{
					"name": "",
					"type": "address"
				}
			],
			"payable": false,
			"stateMutability": "view",
			"type": "function"
		},
		{
			"constant": false,
			"inputs": [
				{
					"name": "_recipient",
					"type": "address"
				},
				{
					"name": "_amount",
					"type": "uint256"
				}
			],
			"name": "transferPLI",
			"outputs": [],
			"payable": false,
			"stateMutability": "nonpayable",
			"type": "function"
		},
		{
			"constant": false,
			"inputs": [
				{
					"name": "_caller",
					"type": "address"
				}
			],
			"name": "requestData",
			"outputs": [
				{
					"name": "_aggreqid",
					"type": "uint256"
				}
			],
			"payable": false,
			"stateMutability": "nonpayable",
			"type": "function"
		},
		{
			"constant": true,
			"inputs": [
				{
					"name": "",
					"type": "address"
				}
			],
			"name": "plidbs",
			"outputs": [
				{
					"name": "depositor",
					"type": "address"
				},
				{
					"name": "totalcredits",
					"type": "uint256"
				}
			],
			"payable": false,
			"stateMutability": "view",
			"type": "function"
		},
		{
			"constant": true,
			"inputs": [
				{
					"name": "_roundId",
					"type": "uint256"
				}
			],
			"name": "getAnswer",
			"outputs": [
				{
					"name": "",
					"type": "int256"
				}
			],
			"payable": false,
			"stateMutability": "view",
			"type": "function"
		},
		{
			"constant": true,
			"inputs": [
				{
					"name": "_roundId",
					"type": "uint256"
				}
			],
			"name": "getTimestamp",
			"outputs": [
				{
					"name": "",
					"type": "uint256"
				}
			],
			"payable": false,
			"stateMutability": "view",
			"type": "function"
		},
		{
			"constant": true,
			"inputs": [
				{
					"name": "",
					"type": "uint256"
				}
			],
			"name": "prices",
			"outputs": [
				{
					"name": "reqid",
					"type": "uint256"
				},
				{
					"name": "answer",
					"type": "uint256"
				},
				{
					"name": "updatedOn",
					"type": "uint256"
				}
			],
			"payable": false,
			"stateMutability": "view",
			"type": "function"
		},
		{
			"constant": true,
			"inputs": [],
			"name": "paymentAmount",
			"outputs": [
				{
					"name": "",
					"type": "uint128"
				}
			],
			"payable": false,
			"stateMutability": "view",
			"type": "function"
		},
		{
			"constant": false,
			"inputs": [
				{
					"name": "_minimumResponses",
					"type": "uint128"
				},
				{
					"name": "_oracles",
					"type": "address[]"
				},
				{
					"name": "_jobIds",
					"type": "string[]"
				}
			],
			"name": "updateRequestDetails",
			"outputs": [],
			"payable": false,
			"stateMutability": "nonpayable",
			"type": "function"
		},
		{
			"constant": false,
			"inputs": [
				{
					"name": "_value",
					"type": "uint256"
				}
			],
			"name": "depositPLI",
			"outputs": [
				{
					"name": "",
					"type": "bool"
				}
			],
			"payable": false,
			"stateMutability": "nonpayable",
			"type": "function"
		},
		{
			"constant": true,
			"inputs": [],
			"name": "getOracleResponses",
			"outputs": [
				{
					"name": "",
					"type": "int256[]"
				}
			],
			"payable": false,
			"stateMutability": "view",
			"type": "function"
		},
		{
			"constant": true,
			"inputs": [
				{
					"name": "",
					"type": "uint256"
				}
			],
			"name": "oracleResponses",
			"outputs": [
				{
					"name": "",
					"type": "int256"
				}
			],
			"payable": false,
			"stateMutability": "view",
			"type": "function"
		},
		{
			"constant": false,
			"inputs": [
				{
					"name": "_requester",
					"type": "address"
				},
				{
					"name": "_allowed",
					"type": "bool"
				}
			],
			"name": "setAuthorization",
			"outputs": [],
			"payable": false,
			"stateMutability": "nonpayable",
			"type": "function"
		},
		{
			"constant": false,
			"inputs": [
				{
					"name": "_newOwner",
					"type": "address"
				}
			],
			"name": "transferOwnership",
			"outputs": [],
			"payable": false,
			"stateMutability": "nonpayable",
			"type": "function"
		},
		{
			"constant": true,
			"inputs": [],
			"name": "_aggRequestId",
			"outputs": [
				{
					"name": "",
					"type": "uint256"
				}
			],
			"payable": false,
			"stateMutability": "view",
			"type": "function"
		},
		{
			"inputs": [
				{
					"name": "_pli",
					"type": "address"
				},
				{
					"name": "_minimumResponses",
					"type": "uint128"
				},
				{
					"name": "_oracles",
					"type": "address[]"
				},
				{
					"name": "_jobIds",
					"type": "string[]"
				}
			],
			"payable": false,
			"stateMutability": "nonpayable",
			"type": "constructor"
		},
		{
			"anonymous": false,
			"inputs": [
				{
					"indexed": true,
					"name": "response",
					"type": "int256"
				},
				{
					"indexed": true,
					"name": "answerId",
					"type": "uint256"
				},
				{
					"indexed": true,
					"name": "sender",
					"type": "address"
				}
			],
			"name": "ResponseReceived",
			"type": "event"
		},
		{
			"anonymous": false,
			"inputs": [
				{
					"indexed": true,
					"name": "previousOwner",
					"type": "address"
				}
			],
			"name": "OwnershipRenounced",
			"type": "event"
		},
		{
			"anonymous": false,
			"inputs": [
				{
					"indexed": true,
					"name": "previousOwner",
					"type": "address"
				},
				{
					"indexed": true,
					"name": "newOwner",
					"type": "address"
				}
			],
			"name": "OwnershipTransferred",
			"type": "event"
		},
		{
			"anonymous": false,
			"inputs": [
				{
					"indexed": true,
					"name": "id",
					"type": "bytes32"
				}
			],
			"name": "PluginRequested",
			"type": "event"
		},
		{
			"anonymous": false,
			"inputs": [
				{
					"indexed": true,
					"name": "id",
					"type": "bytes32"
				}
			],
			"name": "PluginFulfilled",
			"type": "event"
		},
		{
			"anonymous": false,
			"inputs": [
				{
					"indexed": true,
					"name": "id",
					"type": "bytes32"
				}
			],
			"name": "PluginCancelled",
			"type": "event"
		},
		{
			"anonymous": false,
			"inputs": [
				{
					"indexed": true,
					"name": "current",
					"type": "int256"
				},
				{
					"indexed": true,
					"name": "roundId",
					"type": "uint256"
				},
				{
					"indexed": false,
					"name": "timestamp",
					"type": "uint256"
				}
			],
			"name": "AnswerUpdated",
			"type": "event"
		},
		{
			"anonymous": false,
			"inputs": [
				{
					"indexed": true,
					"name": "roundId",
					"type": "uint256"
				},
				{
					"indexed": true,
					"name": "startedBy",
					"type": "address"
				},
				{
					"indexed": false,
					"name": "startedAt",
					"type": "uint256"
				}
			],
			"name": "NewRound",
			"type": "event"
		}
	]
}